:020000040800F2
:10000000C8390120E93D0008E39F0008D53D0008FC
:10001000D53D0008D53D0008D53D00080000000092
:10002000000000000000000000000000A53E0008E5
:10003000D53D000800000000513E00088561000821
:10004000154000081540000815400008154000083C
:10005000154000081540000815400008154000082C
:10006000154000081540000815400008154000081C
:10007000154000081540000815400008154000080C
:1000800015400008154000081540000815400008FC
:1000900015400008154000081540000815400008EC
:1000A00015400008154000081540000815400008DC
:1000B00015400008154000081540000815400008CC
:1000C00015400008154000081540000815400008BC
:1000D00015400008154000081540000815400008AC
:1000E000154000081540000815400008154000089C
:1000F000154000081540000815400008154000088C
:10010000154000081540000815400008154000087B
:10011000154000081540000815400008154000086B
:10012000154000081540000815400008154000085B
:10013000154000081540000815400008154000084B
:10014000154000081540000815400008154000083B
:10015000154000081540000815400008154000082B
:10016000154000081540000815400008154000081B
:10017000154000081540000815400008154000080B
:1001800015400008154000081540000815400008FB
:1001900015400008154000081540000815400008EB
:1001A00015400008154000081540000815400008DB
:1001B00015400008154000081540000815400008CB
:0801C00015400008154000087D
:1001C80053B94AB9002908BF00281CBF4FF0FF31B6
:1001D8004FF0FF3000F00CB8ADF1080C6DE904CE1B
:1001E80000F060FDDDF804E0DDE9022304B07047AB
:1001F800704700BF03685A004CBF43F0004323F028
:100208000043184470472DE9F0470646174641B3A6
:10021800013988464FF0000909EB080404EBD4744F
:10022800641006EBC4052846FFF7E4FFA1424FEA35
:10023800C40A04D1B84204D82846BDE8F087B842B9
:1002480004D9A1450DD004F1FF38E5E70AF108000B
:100258003044FFF7CFFF0138B842EDD204F101096D
:10026800DAE70025E8E7012806D0022806D00028AA
:10027800034818BF0020704702487047024870477B
:10028800890800088D080008910800081F4B37B539
:1002980004468D1E4BB101A92846AFF3008048B92A
:1002A80000230920236103B030BD1948194B1B1ADC
:1002B800DB10019301992A46FFF7A5FF01460028A4
:1002C800EED0FFF797FF4B68A064012B1AD0002BE4
:1002D80001F1040010DBFFF78DFF0023C4E91303CD
:1002E8000368002B0ADAC3F30360FFF7BCFF034679
:1002F8000028D5D00020D5E70123EFE7FFF77AFFE4
:100308000346F7E700230520CCE700BF0000000004
:100318004CF4000824F500080368DA0710B5044611
:1003280005D49B0700F1480018D500F0F9FB2368B5
:10033800590703D404F1D00000F0FAFB23681A0728
:1003480003D404F5A87000F0FBFB2368DB0608D48F
:1003580004F5E870BDE8104000F036BC00F0D8FBAA
:10036800E5E710BD092070470346006800B118444E
:100378007047704770B505460C46216C2846FFF754
:1003880085FF064608B103F07FFE236C6B612246A9
:100398002B692946012098470828EED00728F2D172
:1003A8003046216CFFF7E5FF201D00F0A5FB2DE985
:1003B800F0470C1DD0F80C90D0F818A00746164648
:1003C8000FCCADF5727D03AD0FC50FCC0FC50FCCAB
:1003D8000FC594E80F000DF1080885E80F00002507
:1003E800C8F80050D8F840103846FFF74FFF0936D4
:1003F800F6B2044668BBD8F840307B614FF4F0721F
:1004080041467AA80EF034F83B697AAA3946304654
:100418009847889B0546C8F844303A46CDE9008A93
:100428003B4631460120C847C0B9C4B94FF4F07201
:100438007AA940460EF01CF8082D2646D2D0072D82
:100448000CD12046D8F84010FFF793FF03A800F01E
:1004580053FBD8F8383046F01006DCE7092420466C
:100468000DF5727DBDE8F087406C7047F0B5CB6B39
:100478000B640D1D06460F460FCDF9B001AC0FC435
:100488000FCD0FC40FCD0FC495E80F0084E80F00FF
:100498004FF0FF33009310993046FFF7F7FE78B915
:1004A80033696A463146984708280446F3D06846B7
:1004B800FFF732FF062C03D139463046FFF75AFFC3
:1004C800092079B0F0BD10B48261DA6BC16010BC4C
:1004D8001A64194600226AE770B5C66843690B6456
:1004E80004460D4626B10122FFF761FF03F0CCFD5B
:1004F80003690A46014602209847072805D00828BC
:10050800F4D129462046FFF735FF3046296CFFF71E
:1005180030FF281D00F0F0FAC26802B9A6E7CA6BDE
:100528000A64002243E77047836801460BB1012043
:1005380018477047012910B50446084605D005D963
:10054800C81E01288CBF0220012010BD43B90F2A04
:1005580006D804EB8204029A616811601846F4E731
:100568000220F2E71FB503AB009300230A461946A1
:10057800FFF7E0FF039805B05DF804FB012910B50B
:100588000446084605D005D9C81E01288CBF02209C
:10059800012010BD43B90F2A06D8029904EB820442
:1005A800096861601846F4E70220F2E71FB503AB5B
:1005B8000093002303920A461946FFF7DFFF05B0B0
:1005C8005DF804FBF0B5D36B1364141D06460F46A3
:1005D8000FCCADF50F7D17AD0FC50FCC0FC50FCCE8
:1005E8000FC594E80F0085E80F004FF0FF3316930E
:1005F80026996846FFF74AFE90B90C2116A86A4664
:10060800FFF7D4FF394616A8B04748B9049B16AA85
:100618006946082098470528044602D00928E7D1EA
:10062800092416A8FFF778FE20460DF50F7DF0BDCA
:100638002DE9F04FCD6C87B0174655F8042B04957B
:100648000C4600F003099A463BBB12028DF81530A0
:10065800039203238DF81430236DB9F1020F08BFFC
:10066800A56B13F0010322D100F0080800932B6852
:1006780043BB03A9384600F08AFC002840F0FB8001
:10068800009BDBB10F213846FFF76CFF0E210246B5
:100698003846FFF78BFF794A55E0130C8DF8153073
:1006A8001204DBB205EB830503920223D2E703A908
:1006B800384600F06CFC002840F0DD80082007B0C8
:1006C800BDE8F08FBAF1020F0CBFD5F804B0B5F849
:1006D80002B0A26C18BF2B8801930CBF05F1080665
:1006E8002E1D0F212BF0010538461544FFF73AFF60
:1006F8008542019B29D823F001022A44824294BFF3
:10070800002201224FEA4B0000F0020003F001032F
:1007180040EA0305012D1AD0022D5ED0002D40F0CD
:10072800AA80351DB9F1000FA1D0002A9FD030460C
:10073800FFF760FDA56306462046AFF3008000285A
:1007480000F0998032460F213FE00022DAE7B9F144
:10075800000F26D1002A3DD073683268991C4FEAF1
:10076800D27200F0888004F158010133029109D057
:10077800301DFFF7F9FD02AB01462046AFF30080BC
:10078800054638B30D213846FFF7ECFE022D029BD3
:10079800206202D1E36204F12C03C4E90936062081
:1007A8008DE70D213846FFF7DDFE256A854211D118
:1007B800A36A9E420ED13046FFF71CFD0F21024668
:1007C8003846FFF7F3FE224600213846FFF7EEFED3
:1007D800072074E706F1080549E7356825F0004564
:1007E800B9F1000F2AD1A2B1B8F1000F19D085B91B
:1007F800CB4617E00BF1010B019B029306EB8B0034
:10080800FFF7B2FD0022014602AB2046AFF300809D
:1008180058B13368002B00DA0436013506EB85053C
:1008280025E7C34604F158030193AB45E2D10D21F6
:100838003846FFF797FE029B2062AEE70D21384647
:10084800FFF790FED4F820B08345E2D1A36A9E4218
:10085800DFD14FF0000B0423C4E90BB3F318A562F2
:10086800636333685B4503DA681C06EB8000A3E723
:1008780001230093D1E7092021E700BF0000000011
:100888000023D5E60123D3E60223D1E62DE9F04182
:100898000546C2B014461E46042925D8DFE811F0E3
:1008A80005001C002400D6000401EEB9836B92B247
:1008B8000121043001FA06F717421CBF53F8047BE4
:1008C80040F826700136102EF4D1A60400D4AB638C
:1008D800002042B0BDE8F081012E4FEA124794B2E1
:1008E80004D13B19102B41D90220F2E7052EFBD188
:1008F80007EB0408B8F1200FF6D80F2F4DD9002CBC
:10090800E6D003685807A04608D5284623F0040314
:1009180040F8D03B00F010F90F2F48D9684600F096
:100928000BF9AB6B102F3A4642A938BF102201EBE6
:10093800C2024FEA4808A2F5C47208F1FF38101F36
:100948004FEA880102EB88021C4654F804CB40F8B1
:1009580004CF8242F9D10A1D012E134417D00F2F5C
:10096800AB636FD9684600F0E3F8B1E7102FBBD04E
:100978000368DA0705D523F0030340F8483B00F085
:10098800CBF820A800F0C8F8AB6B002C3FD104339B
:10099800AB6320A800F0BCF89AE7B8F1100F036821
:1009A8002DD9DC07A8F1100842D45807ADD420A8E7
:1009B80000F0BAF8C7F11004684600F0BDF864000A
:1009C80020AAAB6B02EBC702013C101FA10002EB8F
:1009D80084021C4654F804CB40F804CF9042F9D165
:1009E8000A1D1344B8F1000F9CD1012ECFD00F2F50
:1009F800AB633FF66DAF20A800F092F868E7D9071F
:100A08000DD420A800F090F8AB6B002CF3D0640054
:100A180020AA02EBC702013C4FF00008D5E723F0FB
:100A2800010343F0020340F8483B00F07DF8E8E793
:100A380023F0010343F0020340F8483B00F074F848
:100A48002B68B2E720A800F06BF88BE7032E7FF441
:100A58004BAF97B207EB1244102C4FEA12463FF601
:100A680043AF0368190706D523F00803036000F5B0
:100A7800A87000F087F820A800F084F8AA6B20ABD3
:100A880003EBC603F900D41A03EBC707BB4203EB19
:100A9800040005D10A44AA6320A800F051F817E71A
:100AA800006843F8040BF1E7002E7FF41DAF102A0D
:100AB8003FF61AAF0368DA0606D523F01003036081
:100AC80000F5E87000F08AF820AE304600F086F8AD
:100AD800AB6B0022012101FA02F020421CBF53F83F
:100AE800040B46F822000132042AF4D1AB633046E5
:100AF80000F06AF8ECE600BF00F1340191E8380034
:100B08009C46A6464CF8045D90E8FF0FE54600BDFC
:100B180090EC210B704700BF80EC210B704700BFA1
:100B280090EC200B704700BF80EC200B704700BF93
:100B3800D0EC200B704700BFC0EC200B704700BF03
:100B4800F0EC0201F0EC0211F0EC0221F0EC0231C1
:100B5800F0EC0241F0EC0251F0EC0261F0EC0271B1
:100B6800F0EC0281F0EC0291F0EC02A1F0EC02B1A1
:100B7800F0EC02C1F0EC02D1F0EC02E1F0EC02F191
:100B8800704700BFE0EC0201E0EC0211E0EC02214A
:100B9800E0EC0231E0EC0241E0EC0251E0EC0261F1
:100BA800E0EC0271E0EC0281E0EC0291E0EC02A1E1
:100BB800E0EC02B1E0EC02C1E0EC02D1E0EC02E1D1
:100BC800E0EC02F1704700BFB0FC0181B0FC01917C
:100BD800B0FC01A1B0FC01B1704700BFA0FC0181CD
:100BE800A0FC0191A0FC01A1A0FC01B1704700BFCD
:100BF800EC4600B52DE900502DE9FF1F4FF000032A
:100C08002DE90C0001A9FFF731FCDDF840E012B036
:100C1800704700BFEC4600B52DE900502DE9FF1FD5
:100C28004FF000032DE90C0001A9FFF755FCDDF892
:100C380040E012B0704700BFEC4600B52DE9005007
:100C48002DE9FF1F4FF000032DE90C0001A9FFF764
:100C580063FCDDF840E012B0704700BFEC4600B519
:100C68002DE900502DE9FF1F4FF000032DE90C007E
:100C780001ABFFF728FCDDF840E012B0704700BF79
:100C8800EC4600B52DE900502DE9FF1F4FF0000399
:100C98002DE90C0001AAFFF795FCDDF840E012B041
:100CA800704700BF2DE9F04786468C460846089EE7
:100CB800154674461946002B40F0C2808542B2FAA8
:100CC80082F245D94AB1C2F1200300FA02FC2EFA99
:100CD80003F3954043EA0C0C94404FEA154EA8B232
:100CE800BCFBFEF8230C0EFB18CC08FB00F943EA0A
:100CF8000C43994528D9EB1808F1FF3704D29945D8
:100D080002D9A8F102072B44A3EB0903A4B2B3FB51
:100D1800FEFC0EFB1C330CFB00F044EA0344A0422B
:100D280014D92C190CF1FF3304D2A04202D9ACF12A
:100D380002032C44241A43EA07401EB1D44000237E
:100D480034607360BDE8F0874746DDE76346F1E746
:100D580092BB431B01214FEA154EAFB2B3FBFEFC19
:100D6800200C0EFB1C330CFB07F840EA03439845A4
:100D780062D9EB180CF1FF3004D2984502D9ACF1D6
:100D880002002B44A3EB0803A4B2B3FBFEFC0EFB4A
:100D98001C330CFB07F744EA0344A7424ED92C192D
:100DA8000CF1FF3304D2A74202D9ACF102032C4460
:100DB800E41B43EA0040C0E7C2F1200320FA03F134
:100DC800954090402EFA03F303434FEA154EAFB215
:100DD800B1FBFEFC0EFB1C10190C0CFB07F841EADA
:100DE8000041884504FA02F422D969180CF1FF3051
:100DF80004D2884502D9ACF102002944A1EB0801CC
:100E08009BB2B1FBFEFC0EFB1C110CFB07F743EA7F
:100E180001439F420ED9EB180CF1FF3104D29F42D7
:100E280002D9ACF102012B44DB1B41EA004192E7F5
:100E38006046E3E76146F7E76046A3E76346B7E73E
:100E4800834206D916B9002108467BE7C6E900E0C7
:100E5800F9E7B3FA83F78FB9834201D3724508D80B
:100E6800BEEB020460EB030301209C461EB900217F
:100E780068E73846FAE7C6E9004CF8E7C7F1200CFE
:100E8800BB4022FA0CF41C432EFA0CF120FA0CF3A6
:100E9800B84001434FEA14490EFA07F5B3FBF9F8D5
:100EA8001FFA84FE09FB18300B0C08FB0EFA43EA04
:100EB80000439A4502FA07F240D9E31808F1FF30D7
:100EC80004D29A4502D9A8F102002344A3EB0A03ED
:100ED80089B2B3FBF9F809FB183308FB0EFE41EAA7
:100EE80003418E452CD9611808F1FF3304D28E4591
:100EF80002D9A8F10203214443EA0040A0FB02986A
:100F0800A1EB0E014145CE46434602D306D14D45DD
:100F180004D2B9EB020E68EB04030138002EA6D008
:100F2800B5EB0E0261EB030101FA0CFC22FA07F3A0
:100F38004CEA0303F940C6E9003198E74046C5E7A3
:100F48004346D9E7027A03467AB9427A82B1013A2E
:100F580042724268111D12680260416003221A72CF
:100F68001A68100E12021A607047013AD2B2F6E7F8
:100F7800B02070471FB503AB009300230C2219461D
:100F8800FFF7D8FA039805B05DF804FBF2E72DE9FE
:100F9800F043054685B00E464FF000083046FFF78F
:100FA800D1FFB028044615D1B8F1000F0ED103AC1B
:100FB80043460E22414600942846FFF7BBFA0094A8
:100FC80043460F2241462846FFF7D8FA002005B0CD
:100FD800BDE8F08302061DD4002303AF4FEA800961
:100FE800194600970D222846FFF7A4FA5FFA89F9F7
:100FF800039B09F1040914F0400F14BFA3EB090384
:101008004B440393009700230D2219462846FFF707
:10101800B5FAC3E700F0F003802B18D1040230467C
:10102800FFF790FF0443B4F5004F01D10920CEE744
:1010380024010023A2B219462846FFF727FC0028FE
:10104800F4D114F4004F18BF4FF00108A6E7902B15
:101058000DD100F00D030D2BE8D003AF002300F0F5
:101068000F02009719462846FFF764FACAE7A02B33
:1010780013D1C34303F007034FF47F621A410307F8
:1010880002F47F6201D542F48042002319462846C3
:10109800FFF7FCFB002881D0C8E7B02B46D1B12868
:1010A80008D13046FFF74EFF431EDBB20E2B024637
:1010B800EBD9BBE7B22820D1002303AC0D22194697
:1010C80000942846FFF736FA3046FFF73BFF022721
:1010D80000F07F0110F08003039A01FA07F105D1AF
:1010E80002F501720A44039200948DE70A443046DF
:1010F80003920737FFF726FFEAE7B3280BD13046FC
:10110800FFF720FF020300F00F0002F47022013005
:1011180001230243BAE700F0FC03B42B86D000F0A9
:1011280007020132012342F40022AFE7C02B44D169
:10113800C6280AD13046FFF705FF020300F00F006A
:1011480002F4702201300323E3E7C7280BD13046AD
:10115800FFF7F8FE431EDBB20E2B02463FF666AFE2
:101168000023042193E700F0F803C02B06D100F018
:101178000F020132032342F4202287E7C8280DD149
:101188003046FFF7DFFE00F0F00200F00F001032EB
:101198000130052340EA0232012178E7C9287FF4AB
:1011A80045AF3046FFF7CEFE020300F00F0002F411
:1011B8007022013005230243EEE700F0F803D02B3C
:1011C8007FF434AF00F007020132052342F4002215
:1011D800E2E71FB503460846DA6C5368083219027D
:1011E800019102921B0E032201A98DF80C208DF8A3
:1011F8000D30FFF7CCFE05B05DF804FB08B5FFF72E
:10120800C5FE806C08BD08B5FFF7C0FEC06CC37989
:10121800023300EB830008BD08B5034883685B68A8
:101228007921984708BD00BFBCF700082DE9F041B7
:1012380006460D460AF0F2FB0022431868D2134412
:10124800394AA2FB034727F0030404EB97041B1B4E
:10125800C01A61F100014FF0CC3300FB03F302FB2D
:101268000133A0FB0202134444085F0844EAC37434
:101278000AF0D4FB002243184ED21344DFF8A8C06A
:10128800ACFB03E222F0030E0EEB920EA3EB0E036F
:10129800C01A61F100024FF0CC3100FB01F10CFBE8
:1012A8000211A0FB0C031944430843EAC17349081F
:1012B8001B1B61EB0701EA17AB4291412EDA31465D
:1012C8001A4807F0A8FD80460028D1D10AF0A6FBED
:1012D800002243181ED21344134CA4FB032525F007
:1012E800030202EB95029B1AC01A61F100014FF04C
:1012F800CC3200FB02F204FB0122A0FB04042244CE
:10130800400840EAC2705208094908604A6007E08C
:10131800012294E70122DEE70122AEE76FF07308AD
:101328004046BDE8F08100BFCDCCCCCCBCF700086E
:10133800F801012010B582B00446154A032115486A
:1013480008F0CDFC21460DF10700FFF76FFF0028DC
:101358000DDB9DF807307F2B11D10F4A03210D4873
:1013680008F0BDFCFFF758FF002002B010BD0B4A83
:101378000121084808F0B3FC6FF07300F5E7084A4C
:101388000121044808F0B5FC6FF00400EDE700BF48
:10139800D0FC000848FC00082CFD0008F0FC000800
:1013A80000FD000808B5054883685B681F21984759
:1013B800034A0221034808F092FC08BDBCF7000864
:1013C8003CFD000848FC000810B582B00024384AEB
:1013D8000321384808F083FC4FF4FA62032101A87E
:1013E80007F047FDA04225DB9DF804209DF8051075
:1013F80041EA02239DF806004A40824224D14FF672
:10140800FF7293423FD12C4A03212A4808F067FC17
:101418002A4B186810B38268002108F0B6FD04460C
:1014280030B30346264A0121224808F062FCFFF740
:10143800B9FF3AE0234A01211E4808F050FCFFF7A3
:10144800B1FF6FF0730430E01F4A0121194808F01A
:1014580046FCFFF7A7FF6FF0040426E01B4A0121B2
:10146800144808F03CFCFFF79DFF6FF004041CE0F3
:10147800124B1B689B68164A03210E4808F039FC7A
:10148800FFF7CAFE11E0134A02210A4808F031FCAE
:1014980041F2883006F00EFB21460F4807F0BBFCEE
:1014A8000028F9D0FFF7B8FE0024204602B010BD8E
:1014B80048FD000848FC00089CFD000810090120B0
:1014C800DCFD000868FD000884FD0008C0FD000878
:1014D800F4FD00081CFE0008BCF7000830B5C7B0D2
:1014E8004FF4FA62052144A807F0C3FC002833DB57
:1014F8009DF810319DF81141240444EA03649DF8D5
:10150800123144EA03249DF813311C43042144A8F2
:1015180007F093FC9DF81431834227D1B4F1104FA2
:101528002ED304F1E045FFF777FE4FF4FA610DF290
:101538000F10FFF77BFE00282CDB9DF80F114C1CC9
:101548004FF4FA62023103A807F093FC00282BDB62
:101558009DF80F21002335E02E4A01212E4808F07E
:10156800BEFBFFF71FFF6FF073043CE02B4A01211D
:10157800294808F0B4FBFFF715FF6FF0040432E0C8
:10158800274A0121244808F0AAFBFFF70BFF6FF058
:10159800730428E0234A01211F4808F0A0FBFFF745
:1015A80001FF6FF073041EE01F4A01211A4808F07A
:1015B80096FBFFF7F7FE6FF0730414E003A9C95C0C
:1015C8004A4001339C42F9D803AB1B5D93420DD1CD
:1015D800234603AA29461548006808F0B8FC0446C3
:1015E80070B9FFF719FE204647B030BD104A0121F7
:1015F800094808F074FBFFF7D5FE6FF00404F2E722
:1016080000902B460B4A0121034808F07DFBFFF7A9
:10161800C9FEE8E748FE000848FC000860FE00082C
:1016280078FE000898FE0008ACFE000810090120AA
:10163800C4FE0008DCFE000870B5C6B04FF4FA62BC
:10164800052144A807F015FC00283ADB9DF8103165
:101658009DF81141240444EA03649DF8123144EAD8
:1016680003249DF813311C43042144A807F0E5FB2B
:101678009DF8143183422ED1B4F1104F35D304F1C3
:10168800E044FFF7C9FD4FF4FA62022143A807F0CE
:10169800F0FB002833DB9DF80C519DF80D31DB433E
:1016A800DBB2AB4235D10135FFF7B6FD2B4603AAB5
:1016B80021462848006808F02CFC064698BB002400
:1016C80042E0254A0121254808F009FBFFF76AFE98
:1016D8006FF073063AE0224A0121204808F0FFFA29
:1016E800FFF760FE6FF0040630E01E4A01211B4838
:1016F80008F0F5FAFFF756FE6FF0730626E01A4A6F
:101708000121164808F0EBFAFFF74CFE6FF073065C
:101718001CE0164A0121114808F0E1FAFFF742FEE1
:101728006FF0040612E000902346114A01210B488D
:1017380008F0EAFAFFF736FE08E003AB195D0D483A
:1017480083685B6898470134A542F6D8304646B0AE
:1017580070BD00BF1009012048FE000848FC0008C1
:1017680060FE000878FE000800FF000818FF000867
:1017780038FF0008BCF7000870B586B004469E4ED6
:101788009E4D32460321284608F0A9FA9C4A0321B7
:10179800284608F0A4FA9B4A0321284608F09FFA35
:1017A8002346994A0321284608F0A3FA3246032122
:1017B800284608F094FA642007F04BFB934A04ABE0
:1017C80092E8030083E803001946914807F02CFBD0
:1017D800002841D18F49002001F06EFE05460028FF
:1017E80041D18C4B1A685368926800928A4A032147
:1017F800824808F089FA894B01221A700AF00EF91A
:1018080002460020531835D203448548A0FB0356EE
:1018180026F0030505EB96055B1BD21A61F1000360
:101828004FF0CC3102FB01F100FB0311A2FB0020B9
:101838000144520842EAC17249087A4B1A60596059
:1018480041F28830FFF776FD051E1CDB4FF47A73F2
:1018580003FB04F400254BE00346734A01212846A4
:1018680008F047FAB6E70346704A0121634808F0D2
:1018780040FA24E00120C7E76D4A02215F4808F0DA
:101888002EFA6FF07305634B186808B108F040FB37
:10189800594A0321594808F022FA002D00F09F8088
:1018A80015F1740F00F0A1802B46624A01215348BC
:1018B80008F01FFA504A0321504808F010FA284649
:1018C80006B070BD5C4A02214C4808F008FAD8E717
:1018D8005A4A0121494808F002FAFFF763FD07E078
:1018E8000091574A0121454808F00EFAFFF75AFDC2
:1018F8000AF094F8002243186FD21344484EA6FB0E
:10190800032C2CF0030202EB9C029B1AC01A61F113
:1019180000024FF0CC3100FB01F106FB0211A0FBE5
:1019280006031944420842EAC17249083D4803685F
:101938004068D21A61EB0001944275EB01019BD318
:1019480042F210710DF10E00FFF770FC0028B9DBB0
:101958004FF47A710DF10F00FFF768FC0028B7DB30
:101968009DF80F10CA43D2B29DF80E309A42B7D1F3
:10197800FFF752FC9DF80E30312B1AD0442B09D0BA
:10198800112B20D02F4A02211C4808F0B2F9FFF78A
:1019980009FDADE72C4A0321184808F0A0F9FFF724
:1019A80013FD031EA4DA294A0121144808F0A1F9FD
:1019B8009EE7FFF793FD031E9ADA254A01210F4897
:1019C80008F097F994E7FFF737FE031E90DA214AEB
:1019D80001210A4808F08DF98AE701228DE71E4A9D
:1019E8000321064808F07BF964E71C4A02210348F2
:1019F80008F075F95EE700BF58FF000848FC0008CA
:101A080084FF0008ACFF0008D0FF0008C8FC0008ED
:101A1800BCF70008100901201C000108801D0120E6
:101A2800CDCCCCCCF8010120E4FF0008000001086F
:101A380048000108A8010108700001089000010889
:101A4800AC00010850010108DC0001080001010890
:101A58001C01010838010108680101088801010812
:101A6800B0B582B000AF022869D0032800F0C98061
:101A7800012802D00837BD46B0BD6C4600233B7133
:101A880002237B7188B0EC461CF110022BD04FF07A
:101A98000E0E131E18BF01237046BEF1040FD4BFEB
:101AA800002503F0010515B1894DCCF81450002527
:101AB8003D7002257D700828D4BF002303F0010380
:101AC8000BB1CCF818108AB10CF11C0300210129C4
:101AD8000CD801F1080505EB070E1EF808EC03F811
:101AE80001EB0131F3E76FF0004ED2E70D2823DD5B
:101AF8000E234AB10321397100217971B97101218D
:101B0800F9717868CCF8100000216FF300016FF3C9
:101B180041016FF382016FF3C501012060F3881161
:101B2800C3F30A0363F353216FF31F51002369487A
:101B380001F07CF9A5469DE76FF01B03D9E76C46D9
:101B480000233B7102237B7188B0EC461CF1100224
:101B58002BD04FF00E0E131E18BF01237046BEF196
:101B6800040FD4BF002503F0010515B1584DCCF87A
:101B7800145000253D7002257D700828D4BF00232D
:101B880003F001030BB1CCF818108AB10CF11C0357
:101B9800002101290CD801F1080505EB070E1EF8F4
:101BA80008EC03F801EB0131F3E76FF0004ED2E7E0
:101BB8000D2823DD0E234AB10321397100217971E3
:101BC800B9710121F9717868CCF8100000216FF320
:101BD80000016FF341016FF382016FF3C501022029
:101BE80060F38811C3F30A0363F353216FF31F51A2
:101BF8000023384801F01AF9A5463BE76FF01B03AC
:101C0800D9E76C4600233B7102237B7188B0EC4610
:101C18001CF110022FD04FF00E0E131E18BF012317
:101C28007046BEF1040FD4BF002503F0010515B1BD
:101C3800274DCCF814504FF0000E87F800E04FF015
:101C4800020E87F801E00828D4BF002303F001033F
:101C58000BB1CCF818108AB10CF11C030021012932
:101C68000CD801F1080505EB070E1EF808EC03F87F
:101C780001EB0131F3E76FF0004ECEE70D2823DDCD
:101C88000E234AB10321397100217971B9710121FB
:101C9800F9717868CCF8100000216FF300016FF338
:101CA80041016FF382016FF3C501032060F38811CE
:101CB800C3F30A0363F353216FF31F51002305484D
:101CC80001F0B4F8A546D5E66FF01B03D9E700BFCD
:101CD800E001010898FC000838B5836805699C692B
:101CE8007CB112F4000F06D02D6801238B401D42F1
:101CF80001D082F0C062044B134002F01662A04784
:101D080038BD6FF05700FBE7400000062DE9F04FA3
:101D180091B005920293134602F004020092C3F3B5
:101D2800C20210F00303019340F0328280468A46D3
:101D38000132041D002858D0B8F1000F05D0A4EBDB
:101D480008030433534500F22682029B5D1E019B63
:101D580004930693039300264FF0FF3B0427B946EC
:101D6800B8F1000F01D0029B2360531E0793002A8D
:101D780040F367810122059B03F00203002B14BF87
:101D88000123002302F0010118BF002141BBA4EB8D
:101D980008008108B0F5007F34BF002303F0010379
:101DA800002B40F0FE8103980F2800F2FD81B8F166
:101DB800000F00F05B81CBB200F14001694401F8EB
:101DC800103C01F820BC002A00F04C8163F07F032E
:101DD80001F8103C049B01330493039B01330393E4
:101DE80004340022CC4640463DE001F0070A544442
:101DF800CAF1080AA0E7002634E0002632E00026EF
:101E080030E00827BC462DE025292BD10BF1010B2A
:101E180001260427BC4625E04729EED82A2914D3F1
:101E28002A39C9B24FF0010E0EFA01F14FF6DA7EE7
:101E380011EA0E0F16D111F0625F40F0C18011F067
:101E4800010F40F08D8000260CE0252903D10BF10D
:101E5800FF3B002606E001D9002603E0202901D037
:101E68002329CCD11D466B1C6978002900F0178105
:101E7800002EC9D07A29BED84C29CDD34C392E2969
:101E880062D80FF2080E5EF821F000BF6D1E000840
:101E9800511F0008511F0008511F0008511F00085A
:101EA800511F0008511F0008511F0008511F00084A
:101EB800511F0008511F0008511F0008611F00082A
:101EC800511F0008511F0008511F0008511F00082A
:101ED800511F0008511F0008511F0008511F00081A
:101EE800C91F0008511F0008611F0008611F000872
:101EF800C91F0008C91F0008C91F00086D1E000877
:101F0800611F00080B1E0008511F00086D1E000805
:101F1800511F000825200008611F0008252000081F
:101F2800511F0008511F00082D2000085B1F0008E2
:101F3800611F0008511F0008511F0008611F000899
:101F4800511F0008551F000800268BE70427BC46D0
:101F580088E70427BC4685E729786C2924D0002621
:101F68003C44013CB4FBF7F407FB04F420B1211A0C
:101F78006144514500F21281002A58D1BCF1040F86
:101F880000F08580BCF1080F40F011811A990731E3
:101F980021F0070101F108051A95D1E9008908B176
:101FA800C4E9008908345DE713F8021C6C2903D0E2
:101FB80000260427BC46D3E700260827BC46CFE7FF
:101FC80029784C291AD01A99073121F0070101F113
:101FD80008061A96D1E90067073424F0070440B1CF
:101FE800211A0831514513D829784C2913D0C4E94E
:101FF8000067083400260827BC4633E71A990731DA
:1020080021F0070101F108061A96D1E90067E3E714
:102018006FF01B00B9E0C4E90067EAE7002604276F
:10202800BC469DE7324600260427BC4698E7E146B1
:1020380080461A9A111D1A9112680292079A1D4633
:102048008EE6614B029A9A4204D3604B9A4205D3BA
:10205800002300E000231BB900228CE60123FAE7E5
:10206800012288E6069B01330693B6E612B10AF10F
:10207800010AB2E6009B13B10AF1020AADE6029822
:102088000CF0DCF90AEB000303F1020AA5E61A9941
:102098000D1D1A95096800B121600434E2E68046F6
:1020A800231AB3F5806F80F0858090B1002202601A
:1020B8009B080370009B83B1069BC370049B88F840
:1020C80002301BBB019DDDF80C90DDF810B0029FBB
:1020D8003DE05344A3F1080057E0069B4370EDE749
:1020E80001339842EED903F140026A4412F8101CF9
:1020F80012F9102C002AF3DA01F07F01A4EB080290
:102108000132524559D804F8011BE9E7019B0398AD
:10211800E7E7009B43B305F140036B4413F8203C09
:1021280004F8013B019EA4EB0803334401335345F3
:1021380046D805F140036B4413F8103C04F8013B02
:102148003246394620460CF093F934440135A94506
:1021580019D9BBF1000FDCD005F140036B4413F92A
:10216800103C002BD5DAF1E705F140036B4413F876
:10217800103C58F82370002248F8232038460CF009
:102188005DF9461CCFE7A4EB080011B0BDE8F08F5D
:102198006FF00D00F9E76FF01B00F6E76FF01B001A
:1021A800F3E76FF01500F0E76FF01500EDE76FF05B
:1021B8001500EAE76FF01500E7E76FF01B00E4E7AA
:1021C8006FF01B00E1E700BF24F500082037010885
:1021D8002DE9F04F97B000AF8346BA617B61D7F81D
:1021E8008030C3F3C0033B62396111B907F01EF9AF
:1021F80038619BF80260B14636B1D7F8803013F0E9
:10220800010F0ED1002300E0002319469BF803209C
:102218007A6242B1D7F8802012F0020F22D1002250
:1022280002E00123F1E7002213431DD09BF8005080
:10223800AB00BB60DBF80430FB600BEB8505BB69CA
:10224800F3B1002940F01781B9F1000F00F02281A5
:10225800D7F8803013F0040F40F020810020F86197
:1022680006460CE10122DFE7BB691BB17A693969CF
:10227800584698473C6920465C37BD46BDE8F08F14
:102288003C69E1B94D4400237B6123E004440135F6
:1022980001364E451AD22A7800235BF822201946C7
:1022A800B86907F0D8F8D7F88830BAF1000F18BF26
:1022B8009845EBD22AF8180008F10108E6E700264D
:1022C800C7F81C80B046D7F884A0E2E7C7F81480A6
:1022D800D7F81C80D7F8803003F005033B614FF036
:1022E800000AA146C7F81CB0AFE000253B6A93B9C5
:1022F800002D00F08D80D7F8803013F0010F40F0EA
:102308008C803B69002B40F081800223A9EB0309F4
:1023180098E00125EAE75946F86807F0E2F800284E
:10232800E6D06C46002387F82C30022387F82D303E
:102338008AB0694611F1100251D01225131E18BF38
:1023480001232846042DD4BF4FF0000C03F0010CE4
:10235800BCF1000F01D0B44D4D61002587F828501D
:10236800022587F829500828D4BF002503F0010565
:102378000DB1FD688D610C28D4BF002303F0010363
:102388000BB1C1F81CB06ABB11283CDD122362B145
:10239800042087F82C00002087F82D0087F82E00ED
:1023A800012087F82F00F86A08616FF300086FF3BF
:1023B80041086FF382086FF3C508022161F388189A
:1023C800C3F30A0363F353286FF31F5800234146EE
:1023D800964800F02BFDA546A9F1020932E06FF0FE
:1023E8000045ABE701F12003002509E005F1300CB9
:1023F80007F1280EF4441CF830CC03F801CB013562
:10240800012DF3D9C0E76FF01B03C0E701237DE777
:10241800D7F8803013F0020F14D000232246194653
:10242800B86907F018F8D7F884207B69D7F88810BE
:10243800002A18BF8B4203D222F8130001337B61B4
:10244800013881440AF1010A35467B6A9A4510D25F
:102458002E4616F802BB6B78FA6952F82340744B83
:102468009C42FFF442AF734B9C42FFF452AF0025ED
:102478003CE74C46FFE607F144000023FB6118B136
:102488004A4629460BF0F4FF4D444FF00008C7F8C0
:1024980004901EE00020F8610646F0E7FE6107F1AF
:1024A80034000026EBE700253B6A33BB002D3BD008
:1024B800D7F8803013F0010F26D0731C06F13002D4
:1024C80007F12801561806F8149CDEB208F1010835
:1024D80025467B6A98454AD22C4614F802AB95F8F3
:1024E80001905BF82930524A9342DCD3514A934217
:1024F80001D30025D8E70125D6E75146F86806F04C
:10250800F0FF0028D2D0E1E7D7F8803013F0040FAD
:10251800DCD0FA69531C303207F128010A4402F86A
:10252800249CDBB2FB61D1E7D7F8803013F0020FAF
:1025380009D0731C06F1300207F12801561806F875
:10254800149CDEB2C2E7F869431C00F1300107F1C0
:1025580028028A1802F824AC02460232D2B2FA6182
:1025680007F1580252FA83F303F8249CAEE7D7F830
:1025780004909BF8003087F854309BF801303344BE
:1025880087F85530D7F8803013F0020F0ED1FB6969
:10259800C3F3470387F85730D7F8803013F0010F9B
:1025A80006D113F0040F3DD1002302E00023F1E728
:1025B800002387F85630DBF800003863786DCBF8D5
:1025C8000000D7F814804246B9685846D7F818A0D2
:1025D800D047041EFFF64FAE386BCBF80000C7F8A3
:1025E80014804246F96907F13400D047B0F1000879
:1025F80056DBA044B96849447B6A01EB4301D7F82C
:1026080014904A463B69591A2846D047041EFFF6DB
:1026180032AEA04400257E62C7F820B05646D7F8EF
:1026280084B01DE0FB69C4E7EC01010840FC000828
:1026380024F50008203701084FF0000A4A46012116
:1026480007F12C00B04700282CDB80445346224673
:102658004946304606F0FFFE002825DB8044013558
:102668007B6A9D4215D205F1300307F12802134415
:1026780013F8143C87F82C303A6A52F82340D7F8FC
:102688008830BBF1000F18BF9D42D5D23BF815A08A
:10269800D4E77A6900210846BB6998474446EAE5C9
:1026A8004446E8E50446E6E50446E4E5014B1860DF
:1026B800704700BF0000012070B506460D46002493
:1026C80004E0044B1B68305D98470134AC42F8D3F2
:1026D80070BD00BF0000012080B505460E461746B4
:1026E800984605F041FA03460CF09AFE0446DFF8D6
:1026F800189049F80030424639463046A84754F801
:10270800090001F087FB00BF0800000008B509F0C8
:1027180085F90022431819D213440D4AA2FB03CEAF
:102728002EF0030C0CEB9E0CA3EB0C03C01A61F10A
:1027380000014FF0CC3300FB03F302FB0133A0FB95
:1027480002021344400840EAC37008BD0122E3E7CF
:10275800CDCCCCCC034A536843F00203536000202D
:10276800704700BF002004E0064B1A6842F400726C
:102778001A601A6842F480721A60034B034A1A609E
:10278800704700BF003C0240540101200024F400BF
:1027980038B505460B4C00E010340B4B9C420FD269
:1027A80063685B79002BF7D02946204607F0EBF9E0
:1027B8000028F1D023681B68294620469847EBE794
:1027C80038BD00BFB8FC0008C8FC000870B5064654
:1027D8000D46084C04E02A463146204698471034F6
:1027E800054B9C4204D223689B69002BF3D1F6E782
:1027F80070BD00BFB8FC0008C8FC000808B509F0A7
:102808000DF90022431819D213440D4AA2FB03CE36
:102818002EF0030C0CEB9E0CA3EB0C03C01A61F119
:1028280000014FF0CC3300FB03F302FB0133A0FBA4
:1028380002021344400840EAC37008BD0122E3E7DE
:10284800CDCCCCCC2DE9F041074605460AE007EA95
:102858000807144B03EB06135B680422196820462B
:1028680007F0D1F9D5B195FAA5F6B6FA86F60D4C6A
:1028780004EB06140123B3406FEA030825EA0305B5
:10288800237B002BEED03301064AD3581B69002B5B
:10289800DDD0204698470028E4D1D8E73846BDE87F
:1028A800F08100BFB8FC00082DE9F04180460F46D2
:1028B8001F4BBFF35B8F53E8005F6A1C43E800219E
:1028C8000029F8D1BFF35B8F6DBB1A4C002607E0D7
:1028D800636804221968204607F095F90136103418
:1028E800154B9C4211D2237B002BF7D0204607F0D2
:1028F8003EF923681B69002BEAD020469847002838
:10290800E6D00123B3401D43E8E7B8F1000F0BD030
:1029180055B12846FFF796FF0546002FF8D00A2044
:1029280007F033F9F4E700252846BDE8F08100BF39
:1029380028090120B8FC0008C8FC000808B5064BA7
:10294800186018B1054B1B68092B00DC08BD04484A
:1029580004F054FBFAE700BF1C09012024090120F8
:10296800E401012008B5024804F048FB08BD00BF97
:10297800E401012030B589B000220F490F4809F061
:10298800BCF80F4D00220023CDE90623002404944F
:102998000E2303930294019400940A4B4FF440725F
:1029A8000949284608F074FE0849284608F060FEE0
:1029B800204609B030BD00BF6D2900087806012007
:1029C800000201205D2D0008881D0120B8020108C1
:1029D800014B53F820007047D402010848B108B5EC
:1029E800054A1060054B1960084600F025FD0020D7
:1029F80008BD6FF015007047040001201809012078
:102A080008B5054B1B781BB1034B01221A7008BD92
:102A1800024804F0F3FAF7E7811D0120E4010120E0
:102A280008B5104BBFF35B8F53E8001F013143E833
:102A38000012002AF8D1BFF35B8F30B90A4809F0B9
:102A480068F80A4804F0DAFA08BD094BBFF35B8F4F
:102A580053E8001F013943E80012002AF8D1BFF3F8
:102A68005B8FEBE72009012078060120E4010120B3
:102A780024090120064B00200146BFF35B8F53E871
:102A8800000F43E80012002AF9D1BFF35B8F7047AB
:102A98002009012038B5FFF7EDFF0546094C00E095
:102AA8001034094B9C420BD263685B79002BF7D03A
:102AB80023685B68002BF3D0294620469847EFE748
:102AC80038BD00BFB8FC0008C8FC0008034B1868F4
:102AD8000028D4BF00200120704700BF2009012032
:102AE80010B5044C0449204606F08BFE034B1C60CD
:102AF80010BD00BF94010120C00201081409012083
:102B080008B500230C4A13700C4A13600C4A136072
:102B18004FF47A710B48FFF761FFFFF7E1FF0A4AAC
:102B280006E0094BD31A1B11013351680B7110329F
:102B3800064B9A42F5D308BD821D012020090120C9
:102B48002409012005280008B8FC0008C8FC000872
:102B580008B50146014807F028F808BD940101208E
:102B680008B5024806F030FF08BD00BF94010120F7
:102B780008B50146024B186807F01DF808BD00BFEC
:102B88001409012008B5024807F019F808BD00BF6C
:102B98009401012010B582B000220023CDE9002362
:102BA8002C4B187808B902B010BD684607F01FF81A
:102BB800044680B1FFF7ECFD2046FFF7D9FF264B0E
:102BC800BFF35B8F53E8001F013943E80012002A66
:102BD800F8D1BFF35B8FFFF779FF58B91F4A136825
:102BE800516813F57A7341F1000113605160FFF7E2
:102BF800C9FFD8E708F012FF0022431827D2134470
:102C0800174AA2FB034C2CF0030404EB9C041B1B87
:102C1800C01A61F100014FF0CC3300FB03F302FB53
:102C28000133A0FB02021344400840EAC3705B086A
:102C38000A490A684968801A63EB010340F2E932DD
:102C4800904273F10003C9D3FFF724FFC6E70122BE
:102C5800D5E700BF811D012024090120700601204D
:102C6800CDCCCCCC0F4B1B7803B1704710B50021ED
:102C78000120FFF719FE0C4C00E010340B4B9C426E
:102C880008D263685B79002BF7D023689B682046DD
:102C98009847F2E7FFF77EFF0028FBD1014B01229E
:102CA8001A7010BD821D0120B8FC0008C8FC00087D
:102CB80010B582B01A4BBFF35B8F53E8002F511C3D
:102CC80043E800100028F8D1BFF35B8F154B1B7841
:102CD80063B9154B1B68B3B1BAB1092A13D11348AC
:102CE80008F017FF124804F089F90CE0EFF311849B
:102CF800102383F31288BFF36F8FFFF74BFF84F322
:102D08001188BFF36F8F02B010BD00220023CDE9F8
:102D1800002342F210720023044805F053FAF2E748
:102D280024090120821D01201C09012078060120A8
:102D3800E401012010B50446044B1B689847A060C5
:102D48002146034806F057FF10BD00BF04000120CC
:102D5800940101202DE9F04100210846FFF7A4FD68
:102D6800804650B14FF4FA7600270CF059FB154B0A
:102D78001858FFF7E3FD002515E04FF0FF364FF038
:102D8800FF37F2E74046FFF75DFD804670B94FF028
:102D9800FF364FF0FF3709E02C4632463B460A48DB
:102DA80004F06EF92546B8F1000FEBD1FFF7F2FEFB
:102DB80004460028F6D1002DEED000210846FFF782
:102DC80005FDEAE708000000E40101200248034B82
:102DD800C01AC008704700BFB8FC000838FC0008DB
:102DE80010B50C46FFF7F2FFA04203D9024B53F887
:102DF800340010BD0020FCE738FC000800B589B09D
:102E0800059206930023079362B1074A0C9B02932D
:102E18000B9B01930A9B009305ABFFF7D9F909B007
:102E28005DF804FB0022F1E7259C00082DE9F04F2E
:102E38008BB004AF05461E468846C1F34A24002CD1
:102E480000F0988091460022FA603A617A61042382
:102E58000293FB1801930A23009307F10C03214600
:102E68004846FFF7B5F9B0F5006F67D3D9F804C045
:102E78006C4600233B7302237B738AB004AD15F1C3
:102E8800100226D01221131E18BF01230846042958
:102E9800D4BF002603F001060EB140496961002144
:102EA8003970022179700828D4BF002103F001018C
:102EB80009B1C5F818C00C28D4BF002303F00103DA
:102EC80013B140F2FF73EB6182B105F120030021D9
:102ED8000AE06FF00041D6E701F118063E4416F803
:102EE800186C03F8016B01310129F5D9112822DD8D
:102EF800122342B10421397300217973B973012176
:102F0800F973F868286100216FF300016FF341013C
:102F18006FF382016FF3C501022060F38811C3F3D8
:102F28000A0363F353210023C1F313011C4806F07D
:102F3800F8FEA5462DE06FF01B03DAE760F353288F
:102F4800C0F30A0A0AEB1850173020F0070080086F
:102F5800FFF7FEFD8346B0B104230293FB180193EB
:102F68000A230093534600F1100221464846FFF712
:102F780045FF08E004EB1154173424F00704A008B7
:102F8800FFF7E6FD8346334642462946584606F093
:102F98005EFE1C37BD46BDE8F08F00BFF402010895
:102FA80078FC00082DE9F04F85B080460D4617469D
:102FB8001E46DDF838A0DDF84090B9F1000F3CD08E
:102FC800119B039300934B460F9A10210020FEF7A4
:102FD8009DFEB0F5006F28D283460AEB0003173335
:102FE80023F0070300246FF300046FF341046FF329
:102FF800820468F3C50467F3881460F353246AF302
:103008001F549808FFF7A4FD074600B110300028A8
:1030180018BFB9F1000F12D1334622462946384667
:1030280006F015FE05B0BDE8F08F40F2FF73084AC0
:103038000221084806F05DFEF4E70020CCE7119B6A
:1030480000934B460F9A5946FEF760FEE4E700BF2F
:103058003403010878FC0008406820B1034BC01A0B
:1030680040F3CF0070474FF0FF30704738FC00083E
:103078000EB400B582B0014603AB53F8042B01939C
:10308800034800F0D3FF02B05DF804EB03B07047CB
:10309800619D000810B584B011F0440F05D01A4B9B
:1030A8001B6833B9002004B010BD1849FFF7E0FFD2
:1030B800F9E717490968B2FBF1F2B2FBF3FC03FB2D
:1030C8001C224FF47A7E0EFB02F2B2FBF3F403FBF0
:1030D80014210EFB01F1B1FBF3F10E4AA2FB0C32F5
:1030E800D20A4FF4616303FB12CC0B4BA3FB0CE336
:1030F8005B0902910194C3EB0311ACEB81010091D0
:103108000649FFF7B5FFCEE7300901206C03010837
:103118002C090120C5B3A291898888887803010801
:1031280061B108B52AB1064A52F8232012B9054AF6
:1031380000E0044A0449FFF79BFF08BD704700BF41
:103148001804010894030108E00101082DE9F04181
:1031580080461746069D079EC1B900242DB12A4610
:1031680010494046FFF784FF044466B1099B042BCD
:1031780014BF002707F001078FB10B4932464046BC
:10318800FFF776FF04442046BDE8F081074B099A13
:1031980053F822200649FFF76BFF0446DEE705498E
:1031A800ECE700BFB00301089C0301082C040108E8
:1031B800A8030108A00301082DE9F04F87B00546D0
:1031C8000C46049205939DF84C7001F0020B01F037
:1031D800010AC1F3C00801F4807906F012FD18B3A2
:1031E800024616492846FFF743FF0646BBF1000F83
:1031F8001CD13A465146284606F0D9FDB9F1000FD0
:1032080001D0002311930397129B0293119B019302
:10321800109B00930023049A41462846FFF796FF27
:10322800304407B0BDE8F08F0026DFE7059A214655
:103238002846FFF72FFF0644DBE700BFB403010869
:1032480011F0100F0BD108B511F0200F03D004496D
:10325800FFF70EFF08BD0349FFF70AFFFAE77047BB
:10326800FCFF0008B80301082DE9F04105460F46A8
:10327800164698460699FFF7E3FF0024444505DA09
:1032880024492846FFF7F4FE0134F7E7002409E053
:1032980020492846FFF7ECFE0BE01F492846FFF7B8
:1032A800E7FE01340F2C0CDC002C02DD14F0070FB4
:1032B800EED0B442F1D23A5D18492846FFF7D8FE5D
:1032C800EFE717492846FFF7D3FE002409E0114924
:1032D8002846FFF7CDFE0BE012492846FFF7C8FE47
:1032E80001340F2C13DC002C02DD14F0070FEED094
:1032F800B44207D23A5D0C4B9B5C13F0970FEBD1AD
:103308002E22E9E703492846FFF7B2FEE8E7BDE8C1
:10331800F08100BFAC030108C4030108BC03010825
:10332800C8030108CC0301080E3601082DE9F04155
:1033380084B004469DF82C500C9F0E9E95B9012B25
:103348001ED019484FF0000827B13B4622461749BE
:1033580006F097F8C6B905BB204606F0E6FC04B0AF
:10336800BDE8F08103950A980290019300920B46FC
:1033780000220F992046FFF71FFF80460C48E3E71D
:103388000B484FF00008DFE70F9B00934346324697
:103398000D99204606F023FDDDE72A460F992046C1
:1033A80006F011FDD8E700BF999D000835400008D8
:1033B800619D00082DE9F04383B00646056842F296
:1033C8000F738B4228BF0B46184A0521684605F043
:1033D8009BFA04467368D3F804900B27DFF85080F3
:1033E80005E04A4639464046A8473F1A8044002F20
:1033F800F7D17368D3F804806F4605E0424621464A
:103408003846A847241A0744002CF7D173685F6828
:103418001B24084E05E03A4621463046A847241AA0
:103428000644002CF7D103B0BDE8F083F0FD000896
:10343800EC030108D0030108074B01221A6004E0DD
:103448004008054A13685B001360044B9842F7D89C
:10345800034B1860704700BF2C09012040420F0041
:103468003009012070B506460D46002405E0315D9F
:10347800044883685B6898470134AC42F7D3284610
:1034880070BD00BFFCF700088446002300E001334C
:10349800074A12689A4208DD1A010649096801EBD1
:1034A80003108A5C6245F2D100E00020704700BF3B
:1034B800940401081000012038B50C4B1B685BB15F
:1034C8000C46FFF7E1FF054648B1C06808F052F81E
:1034D80040B12560002038BD6FF00C00FBE76FF0AD
:1034E8000100F8E76FF01200F5E700BF10000120B7
:1034F80008B50648064A121A002106F060FD05487C
:10350800054A121A002106F05AFD08BDF8010120EB
:10351800881D0120000000200000002008B509488F
:10352800094A121A094906F04EFD0948094A121AB1
:10353800094906F048FD0948094A121A094906F0DE
:1035480042FD08BD00000120F401012020370108D8
:1035580000000120000001202037010800000020A1
:1035680000000020143901082DE9F04383B000AFB2
:103578000446D0F80090D0F80480D0F808E06D46F2
:103588008AB0694611F1100200F0B5801426131EA6
:1035980018BF01233046042ED4BF4FF0000C03F0AF
:1035A800010CBCF1000F01D0594E4E610828D4BF60
:1035B800002603F001060EB1C1F818900C28D4BFFC
:1035C800002603F001060EB1C1F81C801028D4BFF4
:1035D800002303F001030BB1C1F820E0132840F3E6
:1035E8008D8014233AB10520387100207871B871A4
:1035F800F8717868086100216FF300016FF34101E9
:103608006FF382016FF3C501012060F38811C3F3E2
:103618000A0363F353216FF31F5100233D48FFF75B
:1036280005FCAD46D4F80C90D4F81080D4F814E01A
:103638006D468AB0694611F1100262D01426131E35
:1036480018BF01233046042ED4BF4FF0000C03F0FE
:10365800010CBCF1000F01D02F4E4E610828D4BFD9
:10366800002603F001060EB1C1F818900C28D4BF4B
:10367800002603F001060EB1C1F81C801028D4BF43
:10368800002303F001030BB1C1F820E013283BDD50
:1036980014233AB10520387100207871B871F87197
:1036A8007868086100216FF300016FF341016FF33F
:1036B80082016FF3C5014FF0010868F38811C3F365
:1036C8000A0363F353216FF31F51124E0023304650
:1036D800FFF7ACFBAD46E369104A4146304606F0B9
:1036E80008FBA3690E4A4146304606F002FB0C3738
:1036F800BD46BDE8F0836FF0004648E76FF01B0356
:1037080070E76FF000469AE76FF01B03C1E700BF50
:10371800C804010890FC0008F804010828050108FD
:103728003805010838B504460D4611B10846FFF7BB
:103738001BFF012C04D02946204603F031F938BD7F
:10374800EFF30583103B034A0121034806F0D1FA41
:10375800F1E700BF6805010890FC000830BFFFF7DB
:10376800FDBF00BF38B50446054D2A4605490AF095
:103778007FFE054A002160190AF0DDFE38BD00BF52
:1037880000000000C8FC00080800000070B50646EC
:10379800054D064B1D444C1B2046FFF7E3FF083C34
:1037A800746605F1080070BD000000000800000004
:1037B800054B5A699B689A4204D0044A536843F0FF
:1037C80080535360704700BFD40A012000ED00E029
:1037D80081690D4B5A6942F480725A61BFF34F8F69
:1037E800BFF36F8F31F8021C5A6922F480725A6154
:1037F800BFF34F8FBFF36F8F4DF60273994201D01D
:10380800002070470120704700ED00E04FF0000CE9
:1038180083F800C002F07F4CBCF17F4F14D102F056
:103828000C0CBCF1080F04D012F0080F09D00846A0
:10383800704708B5054A0121054806F050FA0020EE
:1038480008BD01221A707047002070477C050108E6
:1038580090FC000808B52A4A01212A4806F03FFAD8
:10386800294B9B6A13F0007F1FD11D20264B9B6AB2
:1038780013F0807F20D1244B9B6A13F4002F22D1B0
:10388800214B9B6A13F4802F24D11F4B9B6A13F49E
:10389800003F26D11C4B9B6A13F4803F28D11A4A5B
:1038A800916A1A4B0B43936208BD194A01211548C6
:1038B80006F015FA1E20D9E7164A0121114806F02C
:1038C8000EFA1F20D7E7144A01210E4806F007FA1E
:1038D8002120D5E7114A01210A4806F000FA2220E2
:1038E800D3E70F4A0121074806F0F9F92320D1E769
:1038F8000C4A0121034806F0F2F92420CFE700BF63
:10390800A805010890FC000800ED00E00000FFFF9A
:10391800C0050108D4050108F005010810060108D2
:10392800380601085406010808B500230B70034A3D
:103938000121034806F0D3F908BD00BF800601083D
:1039480090FC0008B0B582B000AF0F2933DC374DCA
:10395800103900233B7102237B718AB0EC461CF1BD
:1039680010022AD04FF0120E131E18BF0123704602
:10397800BEF1040FD4BF002403F0010414B12C4C91
:10398800CCF8144000243C7002247C700828D4BF72
:10399800002403F001040CB1CCF818500C28D4BF53
:1039A800002303F001030BB1CCF81C109AB10CF101
:1039B800200300210DE01F4DCAE76FF0004ED3E74A
:1039C80001F1080404EB070E1EF808EC03F801EBFC
:1039D80001310129F4D9112824DD12234AB1042127
:1039E800397100217971B9710121F9717868CCF8C0
:1039F800100000216FF300016FF341016FF38201A2
:103A08006FF3C501012060F38811C3F30A0363F360
:103A180053216FF31F5100230748FFF707FA0837B0
:103A2800BD46B0BD6FF01B03D8E700BFA406010870
:103A3800D8060108BC06010890FC0008F8B5054640
:103A48000F461446394A0121394806F048F9394BDE
:103A58009B6A13F0100F31D11026364B9B6A13F076
:103A6800080F32D1334B9B6A13F0020F34D1314B1C
:103A78009B6A13F0010F4BD12E4B9B6A13F0200F5A
:103A88004DD12C4B9B6A13F0100F01D1294B9B6A27
:103A9800284B9B6A13F0200F04D0264A536A23F45C
:103AA80000535362234A936A43F0FF039362012150
:103AB800284606F098FA20703046F8BD1E4A0121C3
:103AC8001B4806F00CF91126C7E71C4A01211848C3
:103AD80006F005F91226C5E7194A0121144806F02F
:103AE800FEF8144A536B926A12F0800F01D1132624
:103AF800BDE7144A01210E4806F0FBF837B10D4A1C
:103B0800936A23F0800393621326B0E71326AEE787
:103B18000D4A0121064806F0E2F81426ACE70B4AE4
:103B28000121034806F0DBF81526AAE7EC06010890
:103B380090FC000800ED00E00407010838070108C0
:103B48004C070108640701087C0701089C07010865
:103B5800F8B505460F461446374A0121374806F09E
:103B6800BEF8374B9B6A13F4805F25D11626344B79
:103B78009B6A13F4006F26D1314B9B6A13F4007FC4
:103B880028D12F4B9B6A13F4806F3FD12C4B9B6A33
:103B980013F4807F41D12A4B9B6A13F4005F43D111
:103BA800274A936A43F47F4393620121284606F02B
:103BB8001AFA20703046F8BD224A01211F4806F043
:103BC8008EF81726D3E7204A01211C4806F087F80B
:103BD8001826D1E71D4A0121184806F080F8184A2E
:103BE800936B926A12F4004F01D11926C9E7184A5B
:103BF8000121124806F07DF837B1114A936A23F47F
:103C0800004393621926BCE71926BAE7114A012135
:103C18000A4806F064F81A26B8E70F4A012107484F
:103C280006F05DF81B26BBE70C4A0121034806F0A5
:103C380056F81C26B4E700BFCC07010890FC000822
:103C480000ED00E0E407010838070108F80701085B
:103C5800140801082C080108480801089C070108F5
:103C680070B506460D462B4A01212B4806F037F859
:103C780000232B70294BDC6A14F002040AD1274B6D
:103C8800DB6A002B0DDB254BDC6A14F080440ED177
:103C9800204670BD224A01211F4806F020F8002462
:103CA800F6E7204A01211C4806F019F8F0E71E4AF9
:103CB8000121194806F013F83046FFF789FD98B935
:103CC800164B9B6A13F0FF0F16D1144B9C6A14F421
:103CD8007F4418D1114B9B6AB3F5803FD8D3304647
:103CE800FFF7B8FD0446D3E73368104A01210A48B4
:103CF80005F0FFFF3468CBE72A4601213046FFF77D
:103D08009DFE0446C4E72A4601213046FFF720FFFE
:103D18000446BDE76008010890FC000800ED00E0DB
:103D2800780801089C080108AC080108CC080108BB
:103D380030B58BB01D4B5D68C5F30805002383F3D0
:103D48001188BFF36F8F0DF12603FFF75FFD04465F
:103D58000DF12702294606F048F99DF827300BB1E6
:103D68000BB030BD05460DF1040C20686168A268EF
:103D7800E368ACE80F0020696169A269E369ACE80F
:103D88000F009DF8263043B1089BC3F3080242B9DF
:103D980040F2FF121A43089203E0054B089A1340B9
:103DA800089301A92846FFF7BDFCD9E700ED00E01C
:103DB80000FEFFFF044B5A6942F010025A615A692B
:103DC80022F008025A61704700ED00E0EFF3088026
:103DD800EFF3098101B57246FFF7AAFF01BD00BFE5
:103DE8000A4880F30888102080F3118808484FF4A7
:103DF8000061401880F30988EFF31480022108431A
:103E080080F31488BFF36F8F00F088F8C839012059
:103E18008820012008B50A4B9B68834202D003F032
:103E2800A9FE08BDEFF30583002BF8D0054B5A68AF
:103E380042F080525A605A6A22F400425A62EEE70F
:103E4800D40A012000ED00E011498A684FF03000E3
:103E58001044EFF3098C80E8F01F102080F31288DB
:103E6800BFF36F8F0B4F4FF000664A698A603E6060
:103E7800506E094C2060906E0023936680F3118881
:103E880002F1300090E8F01F8CF3098870470000B9
:103E9800D40A012004ED00E05C0901201EF0040FA3
:103EA8000CBFEFF30880EFF30980816911F8021C59
:103EB8000229FFD001B5724606F089F801BD00BF9E
:103EC800002807DB00F01F02400901239340024A43
:103ED80042F82030704700BF00E100E0002804DB12
:103EE8000901C9B2044B1954704700F00F000901C9
:103EF800C9B2024B1954704700E400E014ED00E029
:103F0800044B23F07F03044A9360BFF34F8FBFF342
:103F18006F8F70470000000800ED00E008B5FFF75C
:103F2800EFFF0B4AD2F8883023F47003C2F88830C8
:103F3800EFF3148323F0040383F31488BFF36F8F24
:103F4800FFF7D6FAFFF7EAFA00F046F802F04AFF60
:103F580000ED00E010B4A2F120040D4942F8081C5D
:103F680021F0010142F8081C42F8203C019B42F86C
:103F78001C3C029B42F8183C039B42F8143C4FF04F
:103F8800807342F8043C04650023836610BC7047C4
:103F9800E126000800B50E4615460A4B9860426EA9
:103FA800094B1A602C4686F309880020034B984772
:103FB8002046002100220023014C204765A000086C
:103FC800E1260008D40A01205C090120014B1022D7
:103FD8001A61704700ED00E0002306E002F00F02CE
:103FE8000849114410220A760133612B08DC5AB2C1
:103FF800002AF3DB04491144102281F80023F3E777
:10400800704700BFFCEC00E000E100E008B5EFF30A
:104018000583103B044A02EBC301496852F8330098
:104028008847FFF7C5FB08BD5CF8000830B587B0C6
:104038000D461146002400940194029403940494BC
:10404800059402228DF80220044A019204900595F5
:104058001A46684604F082FC07B030BD8DA00008FF
:1040680008B5024B1B689847002008BD600901206D
:10407800034B1860034A937843F002039370704728
:10408800600901201400012008B5054805F056FA1A
:10409800002383F31188BFF36F8F0423184602DFD0
:1040A800E808010808B54FF0FF324FF0FF33024827
:1040B80005F0F3FF08BD00BF2400012008B505493D
:1040C80021F00701044A521A044805F05FF900205C
:1040D80008BD00BFCF45012000000520640901206C
:1040E80038B50446FFF7DEFF224608210A4805F0E6
:1040F800D6F80546B0FA80F04009002C08BF002029
:1041080020B10BF08DF9054B0C221A50044802F02F
:104118001FFF284638BD00BF640901200C000000BD
:104128002400012010B50446FFF7BCFF21460348D0
:1041380005F070F8024802F00BFF10BD6409012079
:1041480024000120002399420ADD10B400EB030C7F
:10415800044C04F80C2001339942F7DC10BC70477A
:10416800704700BF38000120F8B50746002401E079
:104178000134E4B27B78A34217D93D7866193046FA
:1041880000F0F8F80028F3D0304600F00FF9074B9C
:1041980053F83620002AEBD006F01F0503EBC603C0
:1041A80059680120A8409047E2E7F8BD700901204E
:1041B8005FFA81FC0CF102020A4B53F822200B0C27
:1041C80022EA114193FAA3F34BB1B3FA83F398406F
:1041D80001430CF1020C034A42F82C1070472023CB
:1041E800F5E700BF00380140C3B20233074A52F86E
:1041F8002320030C02EA104093FAA3F31BB1B3FA8D
:1042080083F3D84070472023FBE700BF0038014004
:1042180008B5034668B1B0FA80F2C2F11F02D2B203
:1042280005498856054A11680B43136005F002FFDB
:1042380008BDFF22F4E700BF38000120003C014020
:10424800024A136823EA000313607047003C0140E8
:10425800032926D8DFE801F0020C151E114B9A68D5
:1042680022EA00029A60DA6822EA0002DA607047FD
:104278000C4B9A6802439A60DA6822EA0002DA6014
:104288007047084BDA680243DA609A6822EA00024B
:104298009A607047034B9A6802439A60DA68104341
:1042A800D8607047003C014010B498B1B0FA80F370
:1042B800C3F11F03DBB29C460D4850F83300884217
:1042C8000AD088B90A4B43F83C1003EBCC035A6078
:1042D80010BC7047FF23EEE7054C04EBC3035B6893
:1042E8009342EED10020F3E76FF00F00F0E700BF34
:1042F8007009012060B1B0FA80F3C3F11F03DBB28B
:10430800044A002142F8331002EBC302516070479F
:10431800FF23F5E77009012000B583B0124807F0C4
:1043280029F9B0B1002300930193BDF8003044226D
:1043380062F30B03ADF800304FF4804301930A4B4E
:104348009B681B686BB169460748984703B05DF8DE
:1043580004FB064A0121064805F0C1FC6FF0120073
:10436800F4E76FF05700F1E7FCF5000830090108A1
:1043780050FC000808B500F01F02012393401F28D5
:1043880006D8074A526993430CBF0120002008BD94
:104398000346044A0121044805F0ABFC0020F6E777
:1043A800003C01401809010850FC000808B500F05D
:1043B8001F02012393401F2803D8064A5361002097
:1043C80008BD0346044A0121044805F092FC6FF039
:1043D8001500F5E7003C01401809010850FC0008E9
:1043E8000B88C3F30B0303F57D62C2F30B02782A33
:1043F80010D810B483B0094A48689C582043985094
:104408000B88C3F30B039B580193019B002003B057
:1044180010BC70476FF08500704700BF003802403D
:104428000B88C3F30B0303F57D62C2F30B02782AF2
:1044380007D8054849681A5822EA01021A5000208C
:1044480070476FF085007047003802400C4B1B68BE
:1044580013F0020F09D10A4A136843F001031360ED
:10446800074B1B6813F0020FFAD0054A936823F034
:1044780003039360024B9B6813F00C0FFAD170474B
:10448800003802400C4B1A6822F480221A601A681D
:1044980042F480321A60084B1B6813F4003FFAD0CC
:1044A800054A536F43F001035367034B5B6F13F0E7
:1044B800020FFAD0704700BF00380240F8B50C462A
:1044C80015464E4B1E680421304605F05EFE074631
:1044D8000221304605F059FE2388C3F30B02134628
:1044E800442A29D812B2002A7FD0013B432B7FD817
:1044F800DFE803F03D696C70733F497E3976797E59
:104508007E7E7E535D7E7E7E7E7E7E7E7E7E7E7E0F
:104518007E7E7E7E7E7E7E7E7E7E7E7E7E7E7E7EB3
:104528007E7E7E297E7E7E297E7E7E377E7E7E7E94
:104538007E7E7E397E7E7E3BA82A01D12E6003E0F6
:104548006FF0850056E02E602368B3F5805F52D384
:104558002A68C3F313330133B2FBF3F22A60002055
:1045680048E02E60F0E72F60EEE72860ECE72E6069
:10457800EAE700F05FF902234FF4D872192105F039
:10458800FDFD2860E0E700F055F909234FF4D872E3
:10459800192105F0F3FD2860D6E700F085F9052319
:1045A8004FF4C072192105F0E9FD2860CCE700F04E
:1045B8007BF905234FF4C072192105F0DFFD28604F
:1045C800C0082860C0E700232B60BDE74FF4FA431A
:1045D8002B60B9E700232B60B6E7094B2B60B3E7E4
:1045E8007F002F60B0E72E60AEE76FF0850001E036
:1045F8006FF08500F8BD0020FCE700BF54010120E2
:1046080040787D0108B5204B9B6803F00C03082B0C
:1046180031D01D4A136823F0807313601A4B1B684E
:1046280013F0007FFAD1194AD2F8043823F4403342
:10463800C2F80438D2F8043823F0706343F01063EA
:10464800C2F8043800F0FAF80F4A136843F0807390
:1046580013600D4B1B6813F0007FFAD005F09FFD27
:10466800094A136843F080531360074B1B6813F023
:10467800005FFAD008BDFFF7E9FE034A936823F00C
:10468800F0039360C5E700BF0038024000300240E5
:10469800112806D8064BC34013F0010F04D00020A0
:1046A80070476FF0850070476FF08500704700BF56
:1046B800EA0E030010B50C460888C0F30B00FFF79C
:1046C800E7FF00281EDB6268FF2A1CD01FFA82FC65
:1046D8000E49C2F34150013001238340013BC2F32C
:1046E800044293405CF8012022EA03034CF80130AD
:1046F800626890B2130EC2F30442934042581343C7
:104708004350002010BD0020FCE700BF00380240E5
:1047180008B50888C0F30B0000F57D63C3F30B03ED
:10472800782B08D8074BC2584B68934301D0012017
:1047380008BD0220FCE7FFF7ABFF08B10120F7E74F
:104748000220F5E70038024038B500F0B1F8244CF3
:10475800204605F01DFD01F0F7FD224B9B68C3F3D1
:104768000313214AD35C20FA03F513781C41A542B0
:104778002ED3FFF787FEFFF745FF1A4A936823F009
:10478800F0039360936823F0030343F002039360FC
:10479800144B9B6803F00C03082BF9D1A5421BD2DC
:1047A800124B0F4A1A600F4B9A6822F4E05242F4F7
:1047B800A0529A609A6822F4604242F400429A60D9
:1047C800D3F88C2022F08072C3F88C20002038BDEA
:1047D800204601F0F7FFCCE7204601F0F3FFDFE7C2
:1047E80000E6DF0C003802406C110108540101207A
:1047F80070B40D4C66680D4D35400843054365603F
:10480800D4F888000A49014043EA82131943C4F8DE
:104818008810D4F88C3023F44033039A1343C4F837
:104828008C3070BC704700BF00380240C0FFBFFF2B
:104838003F80FF8F0048704740787D0108B505F03C
:10484800A8FC144B5968144A0A4046F6194101431A
:104858000A435A605968114A0A40114901430A43F8
:104868005A601A6842F080721A600E4A136843F45C
:10487800803313600B4B5B6813F4803FFAD0094A0E
:10488800136843F400331360064B5B6813F4003F6E
:10489800FAD008BD003802400080BCFF0080BFF09D
:1048A800196C0009007000400048704740787D018D
:1048B80082B0064B1A6C42F080521A641B6C03F0EB
:1048C80080530193019B02B0704700BF003802403B
:1048D80010B504460A2806D0E1B2064883685B682A
:1048E8009847204610BD034883685B680D219847A8
:1048F800F2E700BFFCF7000810B5044C2046FFF7AC
:10490800B7FB2046FDF7D2FE10BD00BFD94800080E
:1049180008B5054806F02EFE18B1FFF7EDFF002098
:1049280008BD6FF01200FBE7FCF70008004870476D
:10493800440C010810B504690023C4F880302046EF
:1049480006F05BFC50B904F15C004FF0FF324FF009
:10495800FF3302F095FBD4F8800010BD0346044AEB
:104968000121044805F0C5F96FF00400F5E700BF20
:104978008C09010868FC000810B58EB0044619B10E
:104988000949FFF7D7FF68B938220021684609F0BE
:10499800D2FDB72300934FF48073069369462046EF
:1049A800FFF7C8FF0EB010BD4C0C010870B582B0FF
:1049B800436804691E69B4F87C000023194605E0C1
:1049C80003F1380204EB420251790133032B10D86A
:1049D80003F1380204EB42021279002AF5D00029CB
:1049E800EED003F1380204EB420252798A42ECD24B
:1049F800E6E7C9B101258D406B1E034200D105468B
:104A0800B6FBF5F305FB136333B92567B6FBF5F67B
:104A1800E666002002B070BD00962B46044A0321CA
:104A2800044805F071F9F0E76FF08500F2E700BF80
:104A3800B009010868FC000838B5154604698B629E
:104A48000023C4F88030204606F0D7FB80B92946F9
:104A5800204606F04FFC034698B904F15C004FF07D
:104A6800FF324FF0FF3302F00BFBD4F8800038BD63
:104A78000346084A0121084805F03BF96FF0040095
:104A8800F5E7064A0121044805F033F96FF0040000
:104A9800EDE700BF8C09010868FC0008E40901087B
:104AA8002DE9F04F93B005460E461446D0F804A001
:104AB800D0F810B005F0EFFB002800F08580002C3E
:104AC80000F085803822002104A809F034FD4FF455
:104AD80080730A934FF480630B932B6993F8AF307C
:104AE80013F0010F08D14FF400530793284605F03F
:104AF800F1FB4FF0000940E04FF440530793F5E70E
:104B0800C723049300230B9304A92846FFF712FF39
:104B1800DAF81030E41A2DE01CF80E2004928046D2
:104B28000133DBB2032B17D84FEA430E0CEB4300DB
:104B380041780029F4D04FF0FF328A40D54337EA54
:104B48000202EDD12542EBD1B8F1000FE4D098F87C
:104B580001209142E4D9DFE7039DB8F1000F21D08D
:104B680004A92846FFF7E6FE98F8012001239340A0
:104B7800FE18E41A284605F0E0FBB9FA89F35B0948
:104B8800D4B1CBB13746059612492846FFF7D2FE75
:104B9800DAF81030A342B3D00BF1740C0023984616
:104BA8000395BFE7009723460B4A01210B4805F000
:104BB800ABF86FF01509DDE728694C3002F01EFAF2
:104BC800484613B0BDE8F08F6FF01509F8E74FF0CD
:104BD8000009F5E74C0C0108FC09010868FC00080D
:104BE80038B5154604698B620023C4F88030204626
:104BF80006F003FB80B92946204606F040FB034631
:104C080098B904F15C004FF0FF324FF0FF3302F027
:104C180037FAD4F8800038BD0346084A012108480D
:104C280005F067F86FF00400F5E7064A012104482B
:104C380005F05FF86FF00400EDE700BF8C0901088C
:104C480068FC0008E40901082DE9F0478EB0074622
:104C58000C4690461E461A4605F01DFB002853D008
:104C6800002E54D038220021684609F064FC022343
:104C780000934FF4807306934FF4806307934FF0CB
:104C8800807309933B6993F8AF3013F0010F08D193
:104C98004FF400530393384605F01CFB4FF0000A0D
:104CA80028E04FF440530393F5E74FF48075A1468D
:104CB8002B19013B220AB2EB132F02D0E4B2C4F540
:104CC800807516493846FFF735FE8246B8B9CDF8E3
:104CD80004902B46424669463846FFF781FF8246D4
:104CE80068B9761BA84405EB0904384605F025FB8E
:104CF800824620B91EB1FF2ED7D83546D7E7386986
:104D08004C3002F07BF904E06FF0150A01E04FF037
:104D1800000A50460EB0BDE8F08700BF4C0C0108F1
:104D2800F0B58FB00D4616461C460769204A032188
:104D3800204804F0D4FF38220021684609F0FBFB24
:104D48005A23009301954FF40053039308230593C6
:104D58004FF4807306934FF4806307934FF080738A
:104D680009930A9441F288326946384606F0F6F902
:104D780060B941F288323146384606F06DFB034689
:104D880068B90020C7F880000FB0F0BD03460A4A92
:104D98000121084804F0ADFF6FF00400F4E7074A6A
:104DA8000121044804F0A5FF6FF00400ECE700BF00
:104DB800180A010868FC0008280A01084C0A0108BA
:104DC8002DE9F04F85B000AF06468B461546416881
:104DD800D0F8108008F174045368002B4DDB0133C0
:104DE8002CBF01220022DB0843EA42790B694B45BC
:104DF80053D133687B604FEA1953E94600223A736E
:104E080002227A738AB0EC461CF110024CD04FF0A3
:104E1800120E111E18BF01217046BEF1040FD4BF37
:104E28004FF0000A01F0010ABAF1000F03D0DFF8D1
:104E3800ACE1CCF814E04FF0000E87F808E04FF032
:104E4800020E87F809E00828D4BF4FF0000E01F0E1
:104E5800010EBEF1000F03D0D7F804E0CCF818E03B
:104E68000C28D4BF002101F0010109B1CCF81C3095
:104E78004AB30CF12003002123E023F00043012072
:104E8800A3F12002C3F1200C00FA02F220FA0CFC74
:104E980042EA0C0200FA03F3A5E74B46504A012107
:104EA800504804F026FFA4E76FF0004EB1E701F187
:104EB800080E07F1080AD6441EF808EC03F801EBBF
:104EC80001310129F3D9112829DD12234AB104211E
:104ED800397300217973B9730121F973F868CCF833
:104EE800100000216FF300016FF341016FF382019D
:104EF8006FF3C501032060F38811C3F30A0363F35A
:104F080053216FF31F5100233648FDF78FFFCD461D
:104F18000023C8F8743063604FF001090CE06FF0AB
:104F28001B03D3E722464946284605F049F90234CF
:104F380009F101095FFA89F9B9F1040FF2D99BF86F
:104F480003300A2B13D9AB6AC3F30312012393402E
:104F5800A8F87C302C68C4F34144012C0AD0022CF8
:104F68002ED0002528461437BD46BDE8F08F4FF4F3
:104F78008073EDE707F10C022946584605F035F92C
:104F88000028ECD1397B11F0030FE8D0C1F34001C0
:104F98003046FFF7F1FC054658B998F8AF3043F0B2
:104FA800010388F8AF30104A03210E4804F097FE39
:104FB800D5E703460D4A01210A4804F09AFED1E7D5
:104FC80098F8AF3043F0010388F8AF30064A032160
:104FD800044804F084FE0025C4E700BF800A0108E5
:104FE800640A010868FC0008940A0108B00A01086C
:104FF8002DE9F04FA5B002AFB860466804690021FA
:10500800F06905F0EBF9051E1EDB06F10408864B76
:105018009D682B68FBB1414683489847D8B9EB682F
:10502800E3B107F16C0241467F489847002815DB39
:105038000022FF2A15D8511CFB6EB3FBF1F37069EF
:1050480098420ED20A46F4E72B46784A012178485E
:1050580004F04FFEC9E16FF00405C6E16FF00405E6
:10506800C3E16260326992FAA2F3B3FA83F30AB930
:105078004FF0FF33013B23611023E360337E013B94
:105088006361204601F046FB002840F0BC8104F132
:105098004C000122114606F0A8FA04F15C00012236
:1050A800002106F0A2FAF368BC6820469847182346
:1050B80007F1700200212046FFF732FE054600285E
:1050C8005BD13B6F5B4A93425ED1BB681B687B61D7
:1050D80097F8759097F8748097F877E097F8763096
:1050E80003F1010B6C4600233B7702237B778CB0DE
:1050F80002A911F110024FD01E25131E18BF01235B
:105108002846042DD4BF4FF0000C03F0010CBCF16D
:10511800000F01D0484D4D6100253D7602257D7672
:105128000828D4BF002503F001050DB17D698D6104
:105138000C28D4BF002503F001050DB1C1F81C905F
:105148001028D4BF002503F001050DB1C1F8208057
:105158001428D4BF002503F001050DB1C1F824E0DF
:105168001828D4BF002303F001030BB1C1F828B0FD
:105178000AB301F12C0300251BE003462F4A012145
:105188002B4804F0B6FD30E12D4A0121284804F0EF
:10519800B0FD6FF0150528E16FF00045ADE705F1AA
:1051A800700C07F1180EF4441CF870CC03F801CB0E
:1051B8000135012DF3D91D282DDD1E2342B107200D
:1051C800387700207877B8770120F877F869086190
:1051D80000216FF300016FF341016FF382016FF358
:1051E800C501032060F38811C3F30A0363F3532155
:1051F8006FF31F5100230E48FDF718FEA54697F8D8
:105208007630012B0AD9102307F17802D318FB60F6
:1052180091467E603FE06FF01B03CFE70133DB0070
:10522800F2E76FF0004C5FE0FCF50008D00A0108D7
:1052380068FC000853464450200B0108F00A010896
:10524800080B01081F2940F3958020233AB1082153
:10525800397700217977B977F977F86920616FF3A1
:10526800000A6FF3410A6FF3820A6FF3C50A03213C
:1052780061F3881AC3F30A0363F3532A6FF31F5ABF
:10528800002351466148FDF7D1FDB546B5F57F4F7E
:1052980073D009F10809FB684B4500F0978099F82D
:1052A800073099F8005045EA032507F17800A9EB83
:1052B8000000C01099F802B099F8018099F80330FD
:1052C8007B6199F8062099F805301B0243EA0243EE
:1052D80099F8042013433B616E468CB002AC14F17C
:1052E80010029ED04FF0200C131E18BF01236146F8
:1052F800BCF1040FD4BF4FF0000E03F0010EBEF155
:10530800000F03D0DFF808C1C4F814C00829D4BFBF
:105318004FF0000C03F0010CBCF1000F00D0A061AD
:105328000C29D4BF002003F0010000B1E561102969
:10533800D4BF002003F0010008B1C4F820B014293C
:10534800D4BF002003F0010008B1C4F82480182954
:10535800D4BF002003F0010008B17869A0621C29BD
:10536800D4BF002303F00103002B3FF46BAF3B696C
:10537800E36267E76FF01B0368E799F8063099F86E
:105388000510090241EA034199F8040099F803302D
:105398009B00502B28BF502307F11C020143BC6817
:1053A8002046FFF7BDFC034648B907F11C024946F1
:1053B8002046FFF705FD034600283FF46AAF7E68E4
:1053C800144A0121114804F094FC00E07E68B86892
:1053D800FFF7ECFA054668B9336900934FF01043BC
:1053E8000D4A0321094804F08FFC28468C37BD4636
:1053F800BDE8F08F0346094A0121044804F079FC0E
:105408006FF01205F1E76FF00405EEE768FC00089D
:10541800440B0108680B0108940B01087C0B010878
:1054280001F10061002A0FDD01F01F031A44BFF3E8
:105438004F8F064BC3F85C122031203A002AF8DC63
:10544800BFF34F8FBFF36F8F704700BF00ED00E0D1
:1054580000487047440D0108044BD3F842349BB20E
:105468009B020B6000234B601846704700F0F01F4A
:1054780070B582B00D4616461C460023224605F03C
:1054880047F818B164B9002002B070BD00942B46EB
:10549800074A0121074804F037FC6FF01500F3E7CD
:1054A800224605F10061304608F0E2FF0020EBE7F4
:1054B800840C010860FC000870B582B00646144AE6
:1054C8000023684606F0AEFADDE90045304604F0F0
:1054D800CEFF002819DB002033691B68DB6813F452
:1054E800803F0FD020B92046294604F0CFFFF3E7CC
:1054F8004FF4FA53074A0121074804F0FAFB6FF00A
:10550800040000E0002002B070BD6FF00400FAE76C
:1055180080380100B00C010860FC000870B5036910
:105528001D6829B92B69002B11DB0026304670BD98
:105538000446FFF7C1FF064620B92B6943F0004334
:105548002B61F3E72069043001F058FDEEE7034BC7
:105558006B6003F188336B600026E7E7230167453A
:10556800F0B583B004460E461546012304F0D0FF7B
:1055780020B16DB90025284603B0F0BD009533462B
:10558800144A0121144804F0BFFB6FF01505F2E737
:10559800204604F08BFF00212046FFF7BFFF074697
:1055A80080B12A4631462046FFF73AFF01212046BE
:1055B800FFF7B4FF054607B13D462069043001F006
:1055C8001DFDD8E72A463146204604F0A5FF0746C8
:1055D800E7E700BFC40C010860FC00082DE9F041B2
:1055E80082B005460F4616461C460123224604F0A3
:1055F8008FFF28B174B90024204602B0BDE8F081BD
:1056080000943B46134A0121134804F07DFB6FF0D8
:105618001504F1E7284604F049FF00212846FFF762
:105628007DFF804668B101212846FFF777FF0446D1
:10563800B8F1000F00D044462869043001F0DEFCC0
:10564800DAE7234632463946284604F087FF804683
:10565800E9E700BFF00C010860FC000870B50369B9
:105668001D682B69002B17DB04460E46FFF724FF45
:10567800002810DB2A690A4B134043EAC603094A8B
:105688001A432A61BFF34F8F2046FFF715FF2B6996
:1056980023F07A032B6170BD6FF00400FBE700BFB5
:1056A80085FCFFFF02000100F8B503691E68336935
:1056B800002B1BDB04460D461746FFF7FDFE0028AE
:1056C80013DB32690B4B134043F001033361BFF323
:1056D8004F8F05F100652F70BFF34F8F2046FFF7FE
:1056E800EBFE336923F001033361F8BD6FF004006A
:1056F800FBE700BFFEFCFFFF024B0B6003231360B8
:10570800704700BF4C0D010808B5436841B103F16B
:105718000C010B4B9B681B685BB10948984708BD97
:1057280003F10C01064B9B685B682BB10448984752
:10573800F5E76FF05700F2E76FF05700EFE700BFAB
:10574800FCF500082DE9F8430F4614461D46D0F82D
:105758000480D0F81090D8F8080004F0EBFC064656
:10576800B4F1026F14D0B4F1046F15D0B4F5001F72
:1057780016D0B4F5800F35D0B5F1806F2ED0B5F1C5
:10578800C06F2DD0B5F1007F11D06FF0150422E065
:10579800FEF756FD00241EE0FEF73AFD00241AE04D
:1057A8003946D8F8080005F016F9002413E0022558
:1057B8004A460F493046FEF777FD0446A8B9D8F89F
:1057C8000810384604F0BBFC29463046FEF740FD79
:1057D8003046FEF71DFD2046BDE8F8830125E7E7C2
:1057E8000325E5E76FF08504F5E76FF00F04F2E7AE
:1057F8007BA6000810B5044603695860054805F003
:10580800B9FE20B10449204604F0E1FE10BD6FF056
:105818001200FBE7FCF5000881A70008B0F5D07F6F
:1058280017D2F8B504460D46164603090A4A52F837
:1058380023705FB1384605F09DFE38B133462A46DD
:1058480004F00F01384605F0DEF8F8BD6FF01200DD
:10585800FBE76FF015007047F80E010808B5024A1B
:1058680005F0E6F908BD00BF99AC000808B5024A82
:1058780005F0F1F908BD00BF9FAC000870B50446FB
:105888000D46164643681B681868196801F4C0611C
:1058980000F0102005F06AF9042806D0044B3246BF
:1058A8002946204605F034FA70BD6FF08500FBE705
:1058B8006BAD000870B504460D46164643681B6874
:1058C8001868196801F4C06100F0102005F04EF95D
:1058D800042806D0044B32462946204605F044FAEF
:1058E80070BD6FF08500FBE7ADAD000843681A682E
:1058F80002F1080353E8003F43F0010302F10800F6
:1059080040E800310029F3D101F1804101F58831E7
:10591800184B9A4218BF8A421ED003F500639A4278
:1059280014BF00230123A1F548418A4214D09BB932
:10593800114B9A4214BF0023012301F500618A42EA
:105948000AD04BB90D4B9A4214BF0023012301F52D
:1059580020518A4200D01BB1536843F04003536082
:1059680052E8003F43F4807342E800310029F7D140
:10597800704700BF0044004000140140007C004014
:1059880043681A6802F1080353E8003F23F0010353
:1059980002F1080040E800310029F3D101F180410B
:1059A80001F58831184B9A4218BF8A421ED003F578
:1059B80000639A4214BF00230123A1F548418A429B
:1059C80014D09BB9114B9A4214BF0023012301F54F
:1059D80000618A420AD04BB90D4B9A4214BF00238A
:1059E800012301F520518A4200D01BB1536823F0EE
:1059F8004003536052E8003F23F4807342E80031CB
:105A08000029F7D1704700BF00440040001401404E
:105A1800007C00402DE9F04184B000AF43681D6868
:105A28000269002900F0948004460E461068D9687F
:105A38008368DB68CBB107F10C029847B0F1000826
:105A480015DB2B6823F400432B60FB6803EB56033C
:105A5800B3FBF6F30F2B10D99BB2EB604FF00008A5
:105A680040461037BD46BDE8F0816FF057083A4A06
:105A780001213A4804F033F9F2E7D4F800E06C4623
:105A880000233B7202237B728AB06D4615F1100227
:105A980031D01221131E18BF012308460429D4BF90
:105AA8004FF0000C03F0010CBCF1000F01D02C49A1
:105AB800696100213971022179710828D4BF002158
:105AC80003F0010109B1C5F818E00C28D4BF002380
