:020000040800F2
:10000000A8410024853E0008C7DB0008713E0008B7
:10001000713E0008713E0008713E000800000000BB
:10002000000000000000000000000000453F000844
:10003000713E000800000000F13E0008D991000860
:10004000B9400008B9400008B9400008B9400008AC
:10005000B9400008B9400008B9400008B94000089C
:10006000B9400008B9400008B9400008B94000088C
:10007000B9400008B9400008B9400008B94000087C
:1002CC0003685A004CBF43F0004323F0004318442A
:1002DC0070472DE9F0470646174641B30139884669
:1002EC004FF0000909EB080404EBD474641006EB1E
:1002FC00C4052846FFF7E4FFA1424FEAC40A04D123
:10030C00B84204D82846BDE8F087B84204D9A145C4
:10031C000DD004F1FF38E5E70AF108003044FFF78F
:10032C00CFFF0138B842EDD204F10109DAE700251C
:10033C00E8E7012806D0022806D00028034818BF99
:10034C00002070470248704702487047590900085E
:10035C005D090008610900081F4B37B504468D1E66
:10036C004BB101A92846AFF3008048B900230920FE
:10037C00236103B030BD1948194B1B1ADB100193D4
:10038C0001992A46FFF7A5FF01460028EED0FFF79A
:10039C0097FF4B68A064012B1AD0002B01F10400CD
:1003AC0010DBFFF78DFF0023C4E913030368002B58
:1003BC000ADAC3F30360FFF7BCFF03460028D5D06D
:1003CC000020D5E70123EFE7FFF77AFF0346F7E7B5
:1003DC0000230520CCE700BF00000000344E0108CC
:1003EC00FC4E01080368DA0710B5044605D49B07D8
:1003FC0000F1480018D500F0F9FB2368590703D425
:10040C0004F1D00000F0FAFB23681A0703D404F5BA
:10041C00A87000F0FBFB2368DB0608D404F5E87039
:10042C00BDE8104000F036BC00F0D8FBE5E710BD8D
:10043C00092070470346006800B1184470477047A4
:10044C0070B505460C46216C2846FFF785FF06461D
:10045C0008B103F0E9FE236C6B6122462B69294637
:10046C00012098470828EED00728F2D13046216C9D
:10047C00FFF7E5FF201D00F0A5FB2DE9F0470C1D53
:10048C00D0F80C90D0F818A0074616460FCCADF556
:10049C00727D03AD0FC50FCC0FC50FCC0FC594E803
:1004AC000F000DF1080885E80F000025C8F8005072
:1004BC00D8F840103846FFF74FFF0936F6B204461D
:1004CC0068BBD8F840307B614FF4F07241467AA893
:1004DC0012F050FA3B697AAA394630469847889B05
:1004EC000546C8F844303A46CDE9008A3B463146C9
:1004FC000120C847C0B9C4B94FF4F0727AA940467C
:10050C0012F038FA082D2646D2D0072D0CD12046F1
:10051C00D8F84010FFF793FF03A800F053FBD8F86E
:10052C00383046F01006DCE7092420460DF5727DC4
:10053C00BDE8F087406C7047F0B5CB6B0B640D1DBC
:10054C0006460F460FCDF9B001AC0FC40FCD0FC44A
:10055C000FCD0FC495E80F0084E80F004FF0FF3368
:10056C00009310993046FFF7F7FE78B933696A4665
:10057C003146984708280446F3D06846FFF732FF07
:10058C00062C03D139463046FFF75AFF092079B0C3
:10059C00F0BD10B48261DA6BC16010BC1A641946EC
:1005AC0000226AE770B5C66843690B6404460D46C1
:1005BC0026B10122FFF761FF03F036FE03690A46FC
:1005CC00014602209847072805D00828F4D129466F
:1005DC002046FFF735FF3046296CFFF730FF281D0A
:1005EC0000F0F0FAC26802B9A6E7CA6B0A640022EE
:1005FC0043E77047836801460BB1012018477047E9
:10060C00012910B50446084605D005D9C81E012895
:10061C008CBF0220012010BD43B90F2A06D804EB71
:10062C008204029A616811601846F4E70220F2E72E
:10063C001FB503AB009300230A461946FFF7E0FFF2
:10064C00039805B05DF804FB012910B50446084673
:10065C0005D005D9C81E01288CBF0220012010BD71
:10066C0043B90F2A06D8029904EB82040968616029
:10067C001846F4E70220F2E71FB503AB0093002302
:10068C0003920A461946FFF7DFFF05B05DF804FB3D
:10069C00F0B5D36B1364141D06460F460FCCADF5A5
:1006AC000F7D17AD0FC50FCC0FC50FCC0FC594E840
:1006BC000F0085E80F004FF0FF331693269968461C
:1006CC00FFF74AFE90B90C2116A86A46FFF7D4FF33
:1006DC00394616A8B04748B9049B16AA69460820A3
:1006EC0098470528044602D00928E7D1092416A802
:1006FC00FFF778FE20460DF50F7DF0BD2DE9F04F8C
:10070C00CD6C87B0174655F8042B04950C4600F0B9
:10071C0003099A463BBB12028DF815300392032352
:10072C008DF81430236DB9F1020F08BFA56B13F0CF
:10073C00010322D100F0080800932B6843BB03A9E6
:10074C00384600F044FB002840F0FB80009BDBB1F6
:10075C000F213846FFF76CFF0E2102463846FFF793
:10076C008BFF794A55E0130C8DF815301204DBB26F
:10077C0005EB830503920223D2E703A9384600F068
:10078C0026FB002840F0DD80082007B0BDE8F08F84
:10079C00BAF1020F0CBFD5F804B0B5F802B0A26CD8
:1007AC0018BF2B8801930CBF05F108062E1D0F21D5
:1007BC002BF0010538461544FFF73AFF8542019BA3
:1007CC0029D823F001022A44824294BF002201223C
:1007DC004FEA4B0000F0020003F0010340EA03056E
:1007EC00012D1AD0022D5ED0002D40F0AA80351DAF
:1007FC00B9F1000FA1D0002A9FD03046FFF760FD61
:10080C00A56306462046AFF30080002800F09980CF
:10081C0032460F213FE00022DAE7B9F1000F26D172
:10082C00002A3DD073683268991C4FEAD27200F0EE
:10083C00888004F158010133029109D0301DFFF773
:10084C00F9FD02AB01462046AFF30080054638B3F4
:10085C000D213846FFF7ECFE022D029B206202D1DF
:10086C00E36204F12C03C4E9093606208DE70D215F
:10087C003846FFF7DDFE256A854211D1A36A9E42F8
:10088C000ED13046FFF71CFD0F2102463846FFF70C
:10089C00F3FE224600213846FFF7EEFE072074E7F0
:1008AC0006F1080549E7356825F00045B9F1000F58
:1008BC002AD1A2B1B8F1000F19D085B9CB4617E0F7
:1008CC000BF1010B019B029306EB8B00FFF7B2FDC2
:1008DC000022014602AB2046AFF3008058B13368CA
:1008EC00002B00DA0436013506EB850525E7C346F7
:1008FC0004F158030193AB45E2D10D213846FFF7C3
:10090C0097FE029B2062AEE70D213846FFF790FE62
:10091C00D4F820B08345E2D1A36A9E42DFD14FF0D8
:10092C00000B0423C4E90BB3F318A56263633368AB
:10093C005B4503DA681C06EB8000A3E701230093F8
:10094C00D1E7092021E700BF000000000023D5E615
:10095C000123D3E60223D1E62DE9F0410546C2B0CE
:10096C0014461E46042925D8DFE811F005001C00AA
:10097C002400D6000401EEB9836B92B2012104303D
:10098C0001FA06F717421CBF53F8047B40F8267097
:10099C000136102EF4D1A60400D4AB63002042B073
:1009AC00BDE8F081012E4FEA124794B204D13B19F5
:1009BC00102B41D90220F2E7052EFBD107EB0408DE
:1009CC00B8F1200FF6D80F2F4DD9002CE6D00368C4
:1009DC005807A04608D5284623F0040340F8D03B1E
:1009EC0000F010F90F2F48D9684600F00BF9AB6BEB
:1009FC00102F3A4642A938BF102201EBC2024FEA2F
:100A0C004808A2F5C47208F1FF38101F4FEA88019C
:100A1C0002EB88021C4654F804CB40F804CF824207
:100A2C00F9D10A1D012E134417D00F2FAB636FD9C8
:100A3C00684600F0E3F8B1E7102FBBD00368DA0783
:100A4C0005D523F0030340F8483B00F0CBF820A871
:100A5C0000F0C8F8AB6B002C3FD10433AB6320A87B
:100A6C0000F0BCF89AE7B8F1100F03682DD9DC0739
:100A7C00A8F1100842D45807ADD420A800F0BAF859
:100A8C00C7F11004684600F0BDF8640020AAAB6BF7
:100A9C0002EBC702013C101FA10002EB84021C46B2
:100AAC0054F804CB40F804CF9042F9D10A1D1344FA
:100ABC00B8F1000F9CD1012ECFD00F2FAB633FF6B6
:100ACC006DAF20A800F092F868E7D9070DD420A8E4
:100ADC0000F090F8AB6B002CF3D0640020AA02EB72
:100AEC00C702013C4FF00008D5E723F0010343F0A7
:100AFC00020340F8483B00F07DF8E8E723F00103DF
:100B0C0043F0020340F8483B00F074F82B68B2E75E
:100B1C0020A800F06BF88BE7032E7FF44BAF97B255
:100B2C0007EB1244102C4FEA12463FF643AF036812
:100B3C00190706D523F00803036000F5A87000F030
:100B4C0087F820A800F084F8AA6B20AB03EBC6034F
:100B5C00F900D41A03EBC707BB4203EB040005D121
:100B6C000A44AA6320A800F051F817E7006843F87C
:100B7C00040BF1E7002E7FF41DAF102A3FF61AAFDD
:100B8C000368DA0606D523F01003036000F5E8705D
:100B9C0000F08AF820AE304600F086F8AB6B0022ED
:100BAC00012101FA02F020421CBF53F8040B46F855
:100BBC0022000132042AF4D1AB63304600F06AF80B
:100BCC00ECE600BF00F1340191E838009C46A646E3
:100BDC004CF8045D90E8FF0FE54600BD90EC210B4E
:100BEC00704700BF80EC210B704700BF90EC200BCE
:100BFC00704700BF80EC200B704700BFD0EC200B7F
:100C0C00704700BFC0EC200B704700BFF0EC020136
:100C1C00F0EC0211F0EC0221F0EC0231F0EC0241AC
:100C2C00F0EC0251F0EC0261F0EC0271F0EC02819C
:100C3C00F0EC0291F0EC02A1F0EC02B1F0EC02C18C
:100C4C00F0EC02D1F0EC02E1F0EC02F1704700BFE5
:100C5C00E0EC0201E0EC0211E0EC0221E0EC0231EC
:100C6C00E0EC0241E0EC0251E0EC0261E0EC0271DC
:100C7C00E0EC0281E0EC0291E0EC02A1E0EC02B1CC
:100C8C00E0EC02C1E0EC02D1E0EC02E1E0EC02F1BC
:100C9C00704700BFB0FC0181B0FC0191B0FC01A118
:100CAC00B0FC01B1704700BFA0FC0181A0FC019118
:100CBC00A0FC01A1A0FC01B1704700BFEC4600B53F
:100CCC002DE900502DE9FF1F4FF000032DE90C001A
:100CDC0001A9FFF731FCDDF840E012B0704700BF0E
:100CEC00EC4600B52DE900502DE9FF1F4FF0000335
:100CFC002DE90C0001A9FFF755FCDDF840E012B01E
:100D0C00704700BFEC4600B52DE900502DE9FF1FE0
:100D1C004FF000032DE90C0001A9FFF763FCDDF88F
:100D2C0040E012B0704700BFEC4600B52DE9005012
:100D3C002DE9FF1F4FF000032DE90C0001ABFFF76D
:100D4C0028FCDDF840E012B0704700BFEC4600B55F
:100D5C002DE900502DE9FF1F4FF000032DE90C0089
:100D6C0001AAFFF795FCDDF840E012B0704700BF18
:100D7C0010F8012B11F8013B012A28BF9A42F7D039
:100D8C00D01A7047027A03467AB9427A82B1013A94
:100D9C0042724268111D12680260416003221A728D
:100DAC001A68100E12021A607047013AD2B2F6E7B6
:100DBC00B02070471FB503AB009300230C221946DB
:100DCC00FFF71EFC039805B05DF804FBF2E72DE974
:100DDC00F043054685B00E464FF000083046FFF74D
:100DEC00D1FFB028044615D1B8F1000F0ED103ACD9
:100DFC0043460E22414600942846FFF701FC00941E
:100E0C0043460F2241462846FFF71EFC002005B042
:100E1C00BDE8F08302061DD4002303AF4FEA80091E
:100E2C00194600970D222846FFF7EAFB5FFA89F96D
:100E3C00039B09F1040914F0400F14BFA3EB090341
:100E4C004B440393009700230D2219462846FFF7C5
:100E5C00FBFBC3E700F0F003802B18D104023046F3
:100E6C00FFF790FF0443B4F5004F01D10920CEE702
:100E7C0024010023A2B219462846FFF76DFD002875
:100E8C00F4D114F4004F18BF4FF00108A6E7902BD3
:100E9C000DD100F00D030D2BE8D003AF002300F0B3
:100EAC000F02009719462846FFF7AAFBCAE7A02BAA
:100EBC0013D1C34303F007034FF47F621A410307B6
:100ECC0002F47F6201D542F4804200231946284681
:100EDC00FFF742FD002881D0C8E7B02B46D1B128DE
:100EEC0008D13046FFF74EFF431EDBB20E2B0246F5
:100EFC00EBD9BBE7B22820D1002303AC0D22194655
:100F0C0000942846FFF77CFB3046FFF73BFF022797
:100F1C0000F07F0110F08003039A01FA07F105D16C
:100F2C0002F501720A44039200948DE70A4430469C
:100F3C0003920737FFF726FFEAE7B3280BD13046B9
:100F4C00FFF720FF020300F00F0002F470220130C3
:100F5C0001230243BAE700F0FC03B42B86D000F067
:100F6C0007020132012342F40022AFE7C02B44D127
:100F7C00C6280AD13046FFF705FF020300F00F0028
:100F8C0002F4702201300323E3E7C7280BD130466B
:100F9C00FFF7F8FE431EDBB20E2B02463FF666AFA0
:100FAC000023042193E700F0F803C02B06D100F0D6
:100FBC000F020132032342F4202287E7C8280DD107
:100FCC003046FFF7DFFE00F0F00200F00F001032A9
:100FDC000130052340EA0232012178E7C9287FF469
:100FEC0045AF3046FFF7CEFE020300F00F0002F4CF
:100FFC007022013005230243EEE700F0F803D02BFA
:10100C007FF434AF00F007020132052342F40022D2
:10101C00E2E71FB503460846DA6C5368083219023A
:10102C00019102921B0E032201A98DF80C208DF860
:10103C000D30FFF7CCFE05B05DF804FB08B5FFF7EB
:10104C00C5FE806C08BD08B5FFF7C0FEC06CC37947
:10105C00023300EB830008BD00B587B04FF0FF32C0
:10106C004FF0FF33CDE90223144B0093144B154A78
:10107C0015490968154803F04DFDA8B1009080236F
:10108C00134A012113480CF02FFC07B05DF804FB48
:10109C00198AD8680FF04BFC059900200CF0EFFE74
:1010AC000590059B002BF3D144F62062002305A983
:1010BC0006480CF0B2FF0028F6DBF2E7945A010860
:1010CC008C5A0108845A0108B00A0024D802002462
:1010DC00A0590108C458010810B58CB008F05EFF87
:1010EC00354B18600EF0C0FE00283AD0324B186811
:1010FC0040F26B33314A09A904F018F9041E38DBAD
:10110C002D4B186809A90DF01EF9041E38DB2A4B6B
:10111C0018688368DB68042198470446002836D198
:10112C00254B186883685B6898470446002835D1BE
:10113C0000220023CDE9062300230493022203920C
:10114C000293019300931E4B4FF480621D491E487D
:10115C000FF0DCF848B31D490FF0C8F820460CB06E
:10116C0010BD1B4A01211B480CF0A9FB4FF0FF34AA
:10117C00F4E72346184A012116480CF0AAFBEDE7C8
:10118C002346164A012113480CF0A3FBE6E703465D
:10119C00134A01210F480CF09CFBDFE70346114A70
:1011AC0001210C480CF095FBD8E70F4A01210948A6
:1011BC000CF085FBD2E700BFB00A002420A1070089
:1011CC006510000868210024600200247C5A010884
:1011DC00C4590108C4580108E4590108005A01080F
:1011EC001C5A01083C5A0108605A010808B503480A
:1011FC0083685B687921984708BD00BFA45101083A
:10120C002DE9F04106460D460FF066FA0022431810
:10121C0068D21344394AA2FB034727F0030404EBBA
:10122C0097041B1BC01A61F100014FF0CC3300FB7B
:10123C0003F302FB0133A0FB0202134444085F08D2
:10124C0044EAC3740FF048FA002243184ED21344F8
:10125C00DFF8A8C0ACFB03E222F0030E0EEB920EFB
:10126C00A3EB0E03C01A61F100024FF0CC3100FB6E
:10127C0001F10CFB0211A0FB0C031944430843EAD7
:10128C00C17349081B1B61EB0701EA17AB42914183
:10129C002EDA31461A480BF028FA80460028D1D1B4
:1012AC000FF01AFA002243181ED21344134CA4FB5D
:1012BC00032525F0030202EB95029B1AC01A61F17B
:1012CC0000014FF0CC3200FB02F204FB0122A0FB28
:1012DC0004042244400840EAC270520809490860DC
:1012EC004A6007E0012294E70122DEE70122AEE723
:1012FC006FF073084046BDE8F08100BFCDCCCCCC7C
:10130C00A45101087003002410B582B00446154A9C
:10131C00032115480CF0D3FA21460DF10700FFF715
:10132C006FFF00280DDB9DF807307F2B11D10F4A82
:10133C0003210D480CF0C3FAFFF758FF002002B050
:10134C0010BD0B4A012108480CF0B9FA6FF073007C
:10135C00F5E7084A012104480CF0BBFA6FF00400D1
:10136C00EDE700BFA05A0108D4580108FC5A010847
:10137C00C05A0108D05A010808B5054883685B6853
:10138C001F219847034A022103480CF098FA08BD24
:10139C00A45101080C5B0108D458010810B582B0A7
:1013AC000024384A032138480CF089FA4FF4FA62C9
:1013BC00032101A80BF0C7F9A04225DB9DF80420FE
:1013CC009DF8051041EA02239DF806004A4082422E
:1013DC0024D14FF6FF7293423FD12C4A03212A4865
:1013EC000CF06DFA2A4B186810B3826800210CF0CF
:1013FC00BCFB044630B30346264A012122480CF0BC
:10140C0068FAFFF7B9FF3AE0234A01211E480CF0B5
:10141C0056FAFFF7B1FF6FF0730430E01F4A012159
:10142C0019480CF04CFAFFF7A7FF6FF0040426E004
:10143C001B4A012114480CF042FAFFF79DFF6FF094
:10144C0004041CE0124B1B689B68164A03210E48CF
:10145C000CF03FFAFFF7CAFE11E0134A02210A48CA
:10146C000CF037FA41F2883009F07AFF21460F4828
:10147C000BF03BF90028F9D0FFF7B8FE002420460A
:10148C0002B010BD185B0108D45801086C5B010850
:10149C00B40A0024AC5B0108385B0108545B0108FA
:1014AC00905B0108C45B0108EC5B0108A4510108C6
:1014BC0030B5C7B04FF4FA62052144A80BF043F9DC
:1014CC00002831DB9DF810319DF811512D0445EAAF
:1014DC0003659DF8123145EA03259DF813311D4330
:1014EC00042144A80BF013F99DF81431834225D143
:1014FC00B5F1104F2CD3FFF779FE4FF4FA610DF2D2
:10150C000F10FFF77DFE00282CDB9DF80F114C1CF3
:10151C004FF4FA62023103A80BF015F900282BDB0B
:10152C009DF80F21002335E02E4A01212E480CF0A6
:10153C00C6F9FFF721FF6FF073043CE02B4A012141
:10154C0029480CF0BCF9FFF717FF6FF0040432E0E8
:10155C00274A012124480CF0B2F9FFF70DFF6FF078
:10156C00730428E0234A01211F480CF0A8F9FFF767
:10157C0003FF6FF073041EE01F4A01211A480CF0A0
:10158C009EF9FFF7F9FE6FF0730414E003A9C95C30
:10159C004A4001339C42F9D803AB1B5D93420DD1F9
:1015AC00234603AA2946154800680CF0C0FA0446E5
:1015BC0070B9FFF71BFE204647B030BD104A012121
:1015CC0009480CF07CF9FFF7D7FE6FF00404F2E742
:1015DC0000902B460B4A012103480CF085F9FFF7CC
:1015EC00CBFEE8E7185C0108D4580108305C010810
:1015FC00485C0108605C0108745C0108B40A0024B2
:10160C008C5C0108A45C010870B5C6B04FF4FA629A
:10161C00052144A80BF097F8002838DB9DF8103111
:10162C009DF81141240444EA03649DF8123144EA04
:10163C0003249DF813311C43042144A80BF067F8D4
:10164C009DF8143183422CD1B4F1104F33D3FFF7F2
:10165C00CDFD4FF4FA62022143A80BF074F8002878
:10166C0033DB9DF80C519DF80D31DB43DBB2AB4203
:10167C0035D10135FFF7BAFD2B4603AA2146284880
:10168C0000680CF036FA064698BB002442E0254A66
:10169C00012125480CF013F9FFF76EFE6FF073066D
:1016AC003AE0224A012120480CF009F9FFF764FEC8
:1016BC006FF0040630E01E4A01211B480CF0FFF8C5
:1016CC00FFF75AFE6FF0730626E01A4A01211648FE
:1016DC000CF0F5F8FFF750FE6FF073061CE0164A9D
:1016EC00012111480CF0EBF8FFF746FE6FF00406F1
:1016FC0012E000902346114A01210B480CF0F4F83B
:10170C00FFF73AFE08E003AB195D0D4883685B6890
:10171C0098470134A542F6D8304646B070BD00BF9C
:10172C00B40A0024185C0108D4580108305C010884
:10173C00485C0108C85C0108E05C0108005D010818
:10174C00A451010870B586B004469E4E9E4D32469B
:10175C00032128460CF0B3F89C4A032128460CF0D0
:10176C00AEF89B4A032128460CF0A9F82346994A67
:10177C00032128460CF0ADF83246032128460CF024
:10178C009EF864200AF0CFFF934A04AB92E8030062
:10179C0083E80300194691480AF0B0FF002841D1B4
:1017AC008F49002001F0EAFE0546002841D18C4B00
:1017BC001A685368926800928A4A032182480CF096
:1017CC0093F8894B01221A700EF086FF0246002016
:1017DC00531835D203448548A0FB035626F0030565
:1017EC0005EB96055B1BD21A61F100034FF0CC316F
:1017FC0002FB01F100FB0311A2FB00200144520883
:10180C0042EAC17249087A4B1A60596041F2883039
:10181C00FFF77AFD051E1CDB4FF47A7303FB04F40F
:10182C0000254BE00346734A012128460CF051F881
:10183C00B6E70346704A012163480CF04AF824E0ED
:10184C000120C7E76D4A02215F480CF038F86FF0B1
:10185C007305634B186808B10CF04AF9594A032117
:10186C0059480CF02CF8002D00F09F8015F1740FE6
:10187C0000F0A1802B46624A012153480CF029F854
:10188C00504A032150480CF01AF8284606B070BD97
:10189C005C4A02214C480CF012F8D8E75A4A012154
:1018AC0049480CF00CF8FFF767FD07E00091574A28
:1018BC00012145480CF018F8FFF75EFD0EF00CFF07
:1018CC00002243186FD21344484EA6FB032C2CF075
:1018DC00030202EB9C029B1AC01A61F100024FF04A
:1018EC00CC3100FB01F106FB0211A0FB06031944ED
:1018FC00420842EAC17249083D4803684068D21A5E
:10190C0061EB0001944275EB01019BD342F2107123
:10191C000DF10E00FFF774FC0028B9DB4FF47A715F
:10192C000DF10F00FFF76CFC0028B7DB9DF80F10D2
:10193C00CA43D2B29DF80E309A42B7D1FFF756FC8B
:10194C009DF80E30312B1AD0442B09D0112B20D0FE
:10195C002F4A02211C480BF0BCFFFFF70DFDADE731
:10196C002C4A032118480BF0AAFFFFF717FD031EA2
:10197C00A4DA294A012114480BF0ABFF9EE7FFF7CC
:10198C0097FD031E9ADA254A01210F480BF0A1FF9F
:10199C0094E7FFF739FE031E90DA214A01210A4829
:1019AC000BF097FF8AE701228DE71E4A03210648B8
:1019BC000BF085FF64E71C4A022103480BF07FFF04
:1019CC005EE700BF205D0108D45801084C5D01089A
:1019DC006C5D0108905D010894590108A45101083F
:1019EC00B40A0024DC5D01085C210024CDCCCCCCF5
:1019FC0070030024A45D0108C05D0108085E0108A5
:101A0C00685F0108305E0108505E01086C5E0108D9
:101A1C00105F01089C5E0108C05E0108DC5E0108D5
:101A2C00F85E0108285F0108485F0108B0B582B074
:101A3C0000AF022869D0032800F0C980012802D029
:101A4C000837BD46B0BD6C4600233B7102237B7149
:101A5C0088B0EC461CF110022BD04FF00E0E131E6A
:101A6C0018BF01237046BEF1040FD4BF002503F04C
:101A7C00010515B1894DCCF8145000253D70022597
:101A8C007D700828D4BF002303F001030BB1CCF800
:101A9C0018108AB10CF11C03002101290CD801F19A
:101AAC00080505EB070E1EF808EC03F801EB0131F5
:101ABC00F3E76FF0004ED2E70D2823DD0E234AB179
:101ACC000321397100217971B9710121F97178689B
:101ADC00CCF8100000216FF300016FF341016FF39C
:101AEC0082016FF3C501012060F38811C3F30A036F
:101AFC0063F353216FF31F510023694801F0F8F988
:101B0C00A5469DE76FF01B03D9E76C4600233B719C
:101B1C0002237B7188B0EC461CF110022BD04FF0E5
:101B2C000E0E131E18BF01237046BEF1040FD4BF56
:101B3C00002503F0010515B1584DCCF814500025C3
:101B4C003D7002257D700828D4BF002303F00103EB
:101B5C000BB1CCF818108AB10CF11C03002101292F
:101B6C000CD801F1080505EB070E1EF808EC03F87C
:101B7C0001EB0131F3E76FF0004ED2E70D2823DDC6
:101B8C000E234AB10321397100217971B9710121F8
:101B9C00F9717868CCF8100000216FF300016FF335
:101BAC0041016FF382016FF3C501022060F38811CC
:101BBC00C3F30A0363F353216FF31F510023384817
:101BCC0001F096F9A5463BE76FF01B03D9E76C468D
:101BDC0000233B7102237B7188B0EC461CF1100290
:101BEC002FD04FF00E0E131E18BF01237046BEF1FE
:101BFC00040FD4BF002503F0010515B1274DCCF817
:101C0C0014504FF0000E87F800E04FF0020E87F8EA
:101C1C0001E00828D4BF002303F001030BB1CCF87A
:101C2C0018108AB10CF11C03002101290CD801F108
:101C3C00080505EB070E1EF808EC03F801EB013163
:101C4C00F3E76FF0004ECEE70D2823DD0E234AB1EB
:101C5C000321397100217971B9710121F971786809
:101C6C00CCF8100000216FF300016FF341016FF30A
:101C7C0082016FF3C501032060F38811C3F30A03DB
:101C8C0063F353216FF31F510023054801F030F922
:101C9C00A546D5E66FF01B03D9E700BFB05F01087E
:101CAC006459010838B5836805699C697CB112F4E4
:101CBC00000F06D02D6801238B401D4201D082F00D
:101CCC00C062044B134002F01662A04738BD6FF09F
:101CDC005700FBE7400000062DE9F04F91B005924C
:101CEC000293134602F004020092C3F3C20210F0F6
:101CFC000303019340F0328280468A460132041D70
:101D0C00002858D0B8F1000F05D0A4EB0803043319
:101D1C00534500F22682029B5D1E019B04930693A1
:101D2C00039300264FF0FF3B0427B946B8F1000F90
:101D3C0001D0029B2360531E0793002A40F3678156
:101D4C000122059B03F00203002B14BF0123002387
:101D5C0002F0010118BF002141BBA4EB080081086F
:101D6C00B0F5007F34BF002303F00103002B40F0DB
:101D7C00FE8103980F2800F2FD81B8F1000F00F0EE
:101D8C005B81CBB200F14001694401F8103C01F8D1
:101D9C0020BC002A00F04C8163F07F0301F8103C5A
:101DAC00049B01330493039B0133039304340022FB
:101DBC00CC4640463DE001F0070A5444CAF1080AFB
:101DCC00A0E7002634E0002632E0002630E00827A9
:101DDC00BC462DE025292BD10BF1010B0126042744
:101DEC00BC4625E04729EED82A2914D32A39C9B292
:101DFC004FF0010E0EFA01F14FF6DA7E11EA0E0FDA
:101E0C0016D111F0625F40F0C18011F0010F40F06B
:101E1C008D8000260CE0252903D10BF1FF3B002619
:101E2C0006E001D9002603E0202901D02329CCD1DA
:101E3C001D466B1C6978002900F01781002EC9D053
:101E4C007A29BED84C29CDD34C392E2962D80FF221
:101E5C00080E5EF821F000BF3D1E0008211F00088F
:101E6C00211F0008211F0008211F0008211F000846
:101E7C00211F0008211F0008211F0008211F000836
:101E8C00211F0008211F0008311F0008211F000816
:101E9C00211F0008211F0008211F0008211F000816
:101EAC00211F0008211F0008211F0008991F00088E
:101EBC00211F0008311F0008311F0008991F00085E
:101ECC00991F0008991F00083D1E0008311F0008CB
:101EDC00DB1D0008211F00083D1E0008211F000803
:101EEC00F51F0008311F0008F51F0008211F00080E
:101EFC00211F0008FD1F00082B1F0008311F0008C0
:101F0C00211F0008211F0008311F0008211F000895
:101F1C00251F000800268BE70427BC4688E704270A
:101F2C00BC4685E729786C2924D000263C44013C2A
:101F3C00B4FBF7F407FB04F420B1211A61445145BA
:101F4C0000F21281002A58D1BCF1040F00F08580F8
:101F5C00BCF1080F40F011811A99073121F00701EB
:101F6C0001F108051A95D1E9008908B1C4E9008985
:101F7C0008345DE713F8021C6C2903D000260427F3
:101F8C00BC46D3E700260827BC46CFE729784C2966
:101F9C001AD01A99073121F0070101F108061A9697
:101FAC00D1E90067073424F0070440B1211A083145
:101FBC00514513D829784C2913D0C4E9006708344B
:101FCC0000260827BC4633E71A99073121F0070190
:101FDC0001F108061A96D1E90067E3E76FF01B00E0
:101FEC00B9E0C4E90067EAE700260427BC469DE790
:101FFC00324600260427BC4698E7E14680461A9AEA
:10200C00111D1A9112680292079A1D468EE6614BB9
:10201C00029A9A4204D3604B9A4205D3002300E003
:10202C0000231BB900228CE60123FAE7012288E683
:10203C00069B01330693B6E612B10AF1010AB2E629
:10204C00009B13B10AF1020AADE6029810F0ABFB4B
:10205C000AEB000303F1020AA5E61A990D1D1A9565
:10206C00096800B121600434E2E68046231AB3F516
:10207C00806F80F0858090B1002202609B08037015
:10208C00009B83B1069BC370049B88F802301BBB7A
:10209C00019DDDF80C90DDF810B0029F3DE053443B
:1020AC00A3F1080057E0069B4370EDE7013398421B
:1020BC00EED903F140026A4412F8101C12F9102CEC
:1020CC00002AF3DA01F07F01A4EB08020132524539
:1020DC0059D804F8011BE9E7019B0398E7E7009B3B
:1020EC0043B305F140036B4413F8203C04F8013B67
:1020FC00019EA4EB080333440133534546D805F144
:10210C0040036B4413F8103C04F8013B324639464B
:10211C00204610F02FFC34440135A94519D9BBF1E8
:10212C00000FDCD005F140036B4413F9103C002B7D
:10213C00D5DAF1E705F140036B4413F8103C58F87D
:10214C002370002248F82320384610F02CFB461C44
:10215C00CFE7A4EB080011B0BDE8F08F6FF00D00D5
:10216C00F9E76FF01B00F6E76FF01B00F3E76FF079
:10217C001500F0E76FF01500EDE76FF01500EAE7DA
:10218C006FF01500E7E76FF01B00E4E76FF01B0042
:10219C00E1E700BFFC4E010888A801082DE9F04FCB
:1021AC0097B000AF8346BA617B61D7F88030C3F338
:1021BC00C0033B62396111B90AF027FF38619BF803
:1021CC000260B14636B1D7F8803013F0010F0ED152
:1021DC00002300E0002319469BF803207A6242B1E9
:1021EC00D7F8802012F0020F22D1002202E0012346
:1021FC00F1E7002213431DD09BF80050AB00BB60ED
:10220C00DBF80430FB600BEB8505BB69F3B10029EF
:10221C0040F01781B9F1000F00F02281D7F880301F
:10222C0013F0040F40F020810020F86106460CE109
:10223C000122DFE7BB691BB17A69396958469847B7
:10224C003C6920465C37BD46BDE8F08F3C69E1B97E
:10225C004D4400237B6123E00444013501364E4597
:10226C001AD22A7800235BF822201946B8690AF0A2
:10227C00E1FED7F88830BAF1000F18BF9845EBD2C1
:10228C002AF8180008F10108E6E70026C7F81C80B8
:10229C00B046D7F884A0E2E7C7F81480D7F81C80C2
:1022AC00D7F8803003F005033B614FF0000AA146DC
:1022BC00C7F81CB0AFE000253B6A93B9002D00F0C5
:1022CC008D80D7F8803013F0010F40F08C803B6983
:1022DC00002B40F081800223A9EB030998E0012533
:1022EC00EAE75946F8680AF0EBFE0028E6D06C469F
:1022FC00002387F82C30022387F82D308AB06946EA
:10230C0011F1100251D01225131E18BF01232846BB
:10231C00042DD4BF4FF0000C03F0010CBCF1000FE6
:10232C0001D0B44D4D61002587F82850022587F85F
:10233C0029500828D4BF002503F001050DB1FD6814
:10234C008D610C28D4BF002303F001030BB1C1F83D
:10235C001CB06ABB11283CDD122362B1042087F843
:10236C002C00002087F82D0087F82E00012087F81C
:10237C002F00F86A08616FF300086FF341086FF3E0
:10238C0082086FF3C508022161F38818C3F30A03AE
:10239C0063F353286FF31F5800234146964800F00F
:1023AC00A7FDA546A9F1020932E06FF00045ABE7A5
:1023BC0001F12003002509E005F1300C07F1280E8E
:1023CC00F4441CF830CC03F801CB0135012DF3D9C2
:1023DC00C0E76FF01B03C0E701237DE7D7F880301F
:1023EC0013F0020F14D0002322461946B8690AF0E4
:1023FC0021FED7F884207B69D7F88810002A18BFF3
:10240C008B4203D222F8130001337B6101388144E3
:10241C000AF1010A35467B6A9A4510D22E4616F807
:10242C0002BB6B78FA6952F82340744B9C42FFF460
:10243C0042AF734B9C42FFF452AF00253CE74C4635
:10244C00FFE607F144000023FB6118B14A46294618
:10245C0010F090FA4D444FF00008C7F804901EE0BD
:10246C000020F8610646F0E7FE6107F13400002613
:10247C00EBE700253B6A33BB002D3BD0D7F880300F
:10248C0013F0010F26D0731C06F1300207F128015E
:10249C00561806F8149CDEB208F1010825467B6A32
:1024AC0098454AD22C4614F802AB95F801905BF88B
:1024BC002930524A9342DCD3514A934201D300252E
:1024CC00D8E70125D6E75146F8680AF0F9FD00284F
:1024DC00D2D0E1E7D7F8803013F0040FDCD0FA69E2
:1024EC00531C303207F128010A4402F8249CDBB259
:1024FC00FB61D1E7D7F8803013F0020F09D0731CC1
:10250C0006F1300207F12801561806F8149CDEB2C9
:10251C00C2E7F869431C00F1300107F128028A1860
:10252C0002F824AC02460232D2B2FA6107F1580228
:10253C0052FA83F303F8249CAEE7D7F804909BF887
:10254C00003087F854309BF80130334487F855300D
:10255C00D7F8803013F0020F0ED1FB69C3F3470399
:10256C0087F85730D7F8803013F0010F06D113F0ED
:10257C00040F3DD1002302E00023F1E7002387F88C
:10258C005630DBF800003863786DCBF80000D7F8D4
:10259C0014804246B9685846D7F818A0D047041E94
:1025AC00FFF64FAE386BCBF80000C7F814804246EC
:1025BC00F96907F13400D047B0F1000856DBA044AC
:1025CC00B96849447B6A01EB4301D7F814904A4639
:1025DC003B69591A2846D047041EFFF632AEA04478
:1025EC0000257E62C7F820B05646D7F884B01DE0AF
:1025FC00FB69C4E7BC5F0108CC580108FC4E01081C
:10260C0088A801084FF0000A4A46012107F12C0066
:10261C00B04700282CDB80445346224649463046BE
:10262C000AF008FD002825DB804401357B6A9D42B9
:10263C0015D205F1300307F12802134413F8143CAA
:10264C0087F82C303A6A52F82340D7F88830BBF11F
:10265C00000F18BF9D42D5D23BF815A0D4E77A697C
:10266C0000210846BB6998474446EAE54446E8E53C
:10267C000446E6E50446E4E5014B1860704700BFEC
:10268C000000002470B506460D46002404E0044BFF
:10269C001B68305D98470134AC42F8D370BD00BF65
:1026AC000000002480B505460E461746984608F0F3
:1026BC00B1FE034612F0A6FB0446DFF8189049F869
:1026CC000030424639463046A84754F8090001F01C
:1026DC00EFFB00BF0800000008B50DF0FDFF002265
:1026EC00431819D213440D4AA2FB03CE2EF0030C4F
:1026FC000CEB9E0CA3EB0C03C01A61F100014FF024
:10270C00CC3300FB03F302FB0133A0FB02021344A6
:10271C00400840EAC37008BD0122E3E7CDCCCCCC25
:10272C00054B5A6842F002025A605A6842F00102A4
:10273C005A600020704700BF0010005CEFF311825C
:10274C00102383F31288BFF36F8F0D4B1B686BB98B
:10275C000C490B6843F480730B6000E033B9094BF0
:10276C001B6813F48073F9D00123F7E704490B6855
:10277C0001330B6082F31188BFF36F8F704700BF7A
:10278C00BC0A00240048025810B5EFF31184102342
:10279C0083F31288BFF36F8F144B1B68A3B9144BD0
:1027AC000122BFF35B8F53E8001F002903D143E8DC
:1027BC0000200028F7D1BFF35B8F0BD10D4A02210B
:1027CC000D480BF07CF805E0012B08D0074A136884
:1027DC00013B136084F31188BFF36F8F10BD074A60
:1027EC00136823F480731360F0E700BFBC0A002465
:1027FC00B80A002474600108745901080048025892
:10280C0008B501F0C7FC01F061FC0D4B0D4A1A60D4
:10281C000D4AD36823F03F0343F00403D3600B4B02
:10282C001A6841F20303B3EB124F00D008BD084AFB
:10283C00D2F8083143F00103C2F80831F6E700BFC3
:10284C00540100240090D003004802580010005C92
:10285C000080005138B505460B4C00E010340B4B92
:10286C009C420FD263685B79002BF7D02946204637
:10287C000AF079FF0028F1D023681B68294620460E
:10288C009847EBE738BD00BF8459010894590108FB
:10289C0070B506460D46084C04E02A4631462046E3
:1028AC0098471034054B9C4204D223689B69002B3B
:1028BC00F3D1F6E770BD00BF8459010894590108A3
:1028CC0008B50DF009FF0022431819D213440D4A24
:1028DC00A2FB03CE2EF0030C0CEB9E0CA3EB0C0313
:1028EC00C01A61F100014FF0CC3300FB03F302FB83
:1028FC000133A0FB02021344400840EAC37008BD38
:10290C000122E3E7CDCCCCCC2DE9F04107460546BE
:10291C000AE007EA0807144B03EB06135B68042272
:10292C00196820460AF05FFFD5B195FAA5F6B6FAFC
:10293C0086F60D4C04EB06140123B3406FEA030832
:10294C0025EA0305237B002BEED03301064AD3582E
:10295C001B69002BDDD0204698470028E4D1D8E72E
:10296C003846BDE8F08100BF845901082DE9F041DB
:10297C0080460F461F4BBFF35B8F53E8005F6A1C0A
:10298C0043E800210029F8D1BFF35B8F6DBB1A4CD3
:10299C00002607E063680422196820460AF023FF2A
:1029AC0001361034154B9C4211D2237B002BF7D0EF
:1029BC0020460AF0CCFE23681B69002BEAD0204687
:1029CC0098470028E6D00123B3401D43E8E7B8F14F
:1029DC00000F0BD055B12846FFF796FF0546002F88
:1029EC00F8D00A200AF0C1FEF4E700252846BDE81D
:1029FC00F08100BFD40A00248459010894590108BD
:102A0C0008B5064B186018B1054B1B68092B00DC88
:102A1C0008BD044807F0B2FEFAE700BFC80A00245C
:102A2C00D00A0024EC01002408B5024807F0A6FEE9
:102A3C0008BD00BFEC01002430B589B000220F495D
:102A4C000F480DF0B8FE0F4D00220023CDE90623F0
:102A5C00002404940E2303930294019400940A4BD3
:102A6C004FF44072094928460DF050FC084928469D
:102A7C000DF03CFC204609B030BD00BF352A0008E3
:102A8C00F807002478030024252E0008682500246C
:102A9C00B4600108014B53F820007047D060010866
:102AAC0048B108B5054A1060054B1960084600F09E
:102ABC0025FD002008BD6FF01500704704000024B0
:102ACC00C40A002408B5054B1B781BB1034B01222B
:102ADC001A7008BD024807F051FEF7E75D2100248B
:102AEC00EC01002408B5104BBFF35B8F53E8001FBB
:102AFC00013143E80012002AF8D1BFF35B8F30B9E3
:102B0C000A480DF064FE0A4807F038FE08BD094B70
:102B1C00BFF35B8F53E8001F013943E80012002A12
:102B2C00F8D1BFF35B8FEBE7CC0A0024F807002445
:102B3C00EC010024D00A0024064B00200146BFF310
:102B4C005B8F53E8000F43E80012002AF9D1BFF362
:102B5C005B8F7047CC0A002438B5FFF7EDFF0546B4
:102B6C00094C00E01034094B9C420BD263685B7932
:102B7C00002BF7D023685B68002BF3D02946204646
:102B8C009847EFE738BD00BF8459010894590108F4
:102B9C00034B18680028D4BF00200120704700BFE9
:102BAC00CC0A002410B5044C044920460AF018FC49
:102BBC00034B1C6010BD00BF94010024BC600108D5
:102BCC00C00A002408B500230C4A13700C4A136089
:102BDC000C4A13604FF47A710B48FFF761FFFFF753
:102BEC00E1FF0A4A06E0094BD31A1B110133516865
:102BFC000B711032064B9A42F5D308BD5E210024AE
:102C0C00CC0A0024D00A0024CD28000884590108DD
:102C1C009459010808B5014601480AF0B6FD08BDF3
:102C2C009401002408B502480AF0BDFC08BD00BFA1
:102C3C009401002408B50146024B18680AF0ABFD5C
:102C4C0008BD00BFC00A002408B502480AF0A7FD61
:102C5C0008BD00BF9401002410B582B000220023EF
:102C6C00CDE900232C4B187808B902B010BD68468A
:102C7C000AF0ADFD044680B1FFF7ECFD2046FFF7EE
:102C8C00D9FF264BBFF35B8F53E8001F013943E894
:102C9C000012002AF8D1BFF35B8FFFF779FF58B908
:102CAC001F4A1368516813F57A7341F100011360E0
:102CBC005160FFF7C9FFD8E70DF00EFD0022431855
:102CCC0027D21344174AA2FB034C2CF0030404EB49
:102CDC009C041B1BC01A61F100014FF0CC3300FBAC
:102CEC0003F302FB0133A0FB02021344400840EA49
:102CFC00C3705B080A490A684968801A63EB0103D0
:102D0C0040F2E932904273F10003C9D3FFF724FF7C
:102D1C00C6E70122D5E700BF5D210024D00A0024BC
:102D2C00F0070024CDCCCCCC0F4B1B7803B17047F3
:102D3C0010B500210120FFF719FE0C4C00E01034F7
:102D4C000B4B9C4208D263685B79002BF7D023684D
:102D5C009B6820469847F2E7FFF77EFF0028FBD1DF
:102D6C00014B01221A7010BD5E2100248459010808
:102D7C009459010810B582B01A4BBFF35B8F53E81E
:102D8C00002F511C43E800100028F8D1BFF35B8FD3
:102D9C00154B1B7863B9154B1B68B3B1BAB1092A33
:102DAC0013D113480DF013FD124807F0E7FC0CE0AB
:102DBC00EFF31184102383F31288BFF36F8FFFF7A7
:102DCC004BFF84F31188BFF36F8F02B010BD00224C
:102DDC000023CDE9002342F210720023044808F0CE
:102DEC0047FEF2E7D00A00245E210024C80A002422
:102DFC00F8070024EC01002410B50446044B1B68B2
:102E0C009847A060214603480AF0E5FC10BD00BFBE
:102E1C0004000024940100242DE9F041002108460F
:102E2C00FFF7A4FD804650B14FF4FA76002711F05D
:102E3C00E9FF154B1858FFF7E3FD002515E04FF09F
:102E4C00FF364FF0FF37F2E74046FFF75DFD804657
:102E5C0070B94FF0FF364FF0FF3709E02C46324681
:102E6C003B460A4807F0D0FC2546B8F1000FEBD1E1
:102E7C00FFF7F2FE04460028F6D1002DEED000211B
:102E8C000846FFF705FDEAE708000000EC01002406
:102E9C000248034BC01AC008704700BF8459010890
:102EAC00A458010810B50C46FFF7F2FFA04203D955
:102EBC00024B53F8340010BD0020FCE7A458010865
:102ECC0000B589B0059206930023079362B1074AB7
:102EDC000C9B02930B9B01930A9B009305ABFFF792
:102EEC005DF909B05DF804FB0022F1E709D8000890
:102EFC002DE9F04F8BB004AF05461E468846C1F352
:102F0C004A24002C00F0988091460022FA603A6125
:102F1C007A6104230293FB1801930A23009307F1AF
:102F2C000C0321464846FFF739F9B0F5006F67D31B
:102F3C00D9F804C06C4600233B7302237B738AB020
:102F4C0004AD15F1100226D01221131E18BF012357
:102F5C0008460429D4BF002603F001060EB14049EF
:102F6C00696100213970022179700828D4BF0021D1
:102F7C0003F0010109B1C5F818C00C28D4BF002317
:102F8C0003F0010313B140F2FF73EB6182B105F161
:102F9C00200300210AE06FF00041D6E701F118068A
:102FAC003E4416F8186C03F8016B01310129F5D970
:102FBC00112822DD122342B10421397300217973C7
:102FCC00B9730121F973F868286100216FF30001CE
:102FDC006FF341016FF382016FF3C501022060F3BF
:102FEC008811C3F30A0363F353210023C1F31301C4
:102FFC001C480AF086FCA5462DE06FF01B03DAE7AF
:10300C0060F35328C0F30A0A0AEB1850173020F06B
:10301C0007008008FFF7FEFD8346B0B1042302933E
:10302C00FB1801930A230093534600F1100221462A
:10303C004846FFF745FF08E004EB1154173424F021
:10304C000704A008FFF7E6FD8346334642462946AF
:10305C0058460AF0ECFB1C37BD46BDE8F08F00BFAC
:10306C00F06001080C5901082DE9F04F85B080463D
:10307C000D4617461E46DDF838A0DDF84090B9F134
:10308C00000F3CD0119B039300934B460F9A1021D9
:10309C000020FEF721FEB0F5006F28D283460AEB24
:1030AC000003173323F0070300246FF300046FF3BE
:1030BC0041046FF3820468F3C50467F3881460F36A
:1030CC0053246AF31F549808FFF7A4FD074600B178
:1030DC001030002818BFB9F1000F12D13346224628
:1030EC00294638460AF0A3FB05B0BDE8F08F40F244
:1030FC00FF73084A022108480AF0EBFBF4E70020B2
:10310C00CCE7119B00934B460F9A5946FEF7E4FD12
:10311C00E4E700BF306101080C590108406820B198
:10312C00034BC01A40F3CF0070474FF0FF3070478D
:10313C00A45801080EB400B582B0014603AB53F895
:10314C00042B0193034801F041F802B05DF804EB45
:10315C0003B0704745D9000810B584B011F0440F86
:10316C0005D01A4B1B6833B9002004B010BD1849A8
:10317C00FFF7E0FFF9E717490968B2FBF1F2B2FB80
:10318C00F3FC03FB1C224FF47A7E0EFB02F2B2FB23
:10319C00F3F403FB14210EFB01F1B1FBF3F10E4A26
:1031AC00A2FB0C32D20A4FF4616303FB12CC0B4B23
:1031BC00A3FB0CE35B0902910194C3EB0311ACEB91
:1031CC00810100910649FFF7B5FFCEE7DC0A002428
:1031DC0068610108D80A0024C5B3A291898888883F
:1031EC007461010861B108B52AB1064A52F823206E
:1031FC0012B9054A00E0044A0449FFF79BFF08BDD9
:10320C00704700BF1462010890610108B05F0108AB
:10321C002DE9F04180461746069D079EC1B9002452
:10322C002DB12A4610494046FFF784FF044466B18D
:10323C00099B042B14BF002707F001078FB10B4922
:10324C0032464046FFF776FF04442046BDE8F08145
:10325C00074B099A53F822200649FFF76BFF0446E7
:10326C00DEE70549ECE700BFAC6101089861010895
:10327C0028620108A46101089C6101082DE9F04F46
:10328C0087B005460C46049205939DF84C7001F0EE
:10329C00020B01F0010AC1F3C00801F480790AF0B5
:1032AC00A0FA18B3024616492846FFF743FF064614
:1032BC00BBF1000F1CD13A46514628460AF067FB79
:1032CC00B9F1000F01D0002311930397129B0293C5
:1032DC00119B0193109B00930023049A41462846AE
:1032EC00FFF796FF304407B0BDE8F08F0026DFE70C
:1032FC00059A21462846FFF72FFF0644DBE700BF5F
:10330C00B061010811F0100F0BD108B511F0200FAE
:10331C0003D00449FFF70EFF08BD0349FFF70AFF6E
:10332C00FAE770475C5A0108B46101082DE9F041D5
:10333C0005460F46164698460699FFF7E3FF00240C
:10334C00444505DA24492846FFF7F4FE0134F7E733
:10335C00002409E020492846FFF7ECFE0BE01F494A
:10336C002846FFF7E7FE01340F2C0CDC002C02DDA5
:10337C0014F0070FEED0B442F1D23A5D184928464A
:10338C00FFF7D8FEEFE717492846FFF7D3FE0024D6
:10339C0009E011492846FFF7CDFE0BE012492846FB
:1033AC00FFF7C8FE01340F2C13DC002C02DD14F0E7
:1033BC00070FEED0B44207D23A5D0C4B9B5C13F076
:1033CC00970FEBD12E22E9E703492846FFF7B2FE0F
:1033DC00E8E7BDE8F08100BFA8610108C061010801
:1033EC00B8610108C4610108C861010879A7010826
:1033FC002DE9F04184B004469DF82C500C9F0E9E94
:10340C0095B9012B1ED019484FF0000827B13B4647
:10341C002246174909F024FEC6B905BB20460AF01E
:10342C0074FA04B0BDE8F08103950A9802900193F8
:10343C0000920B4600220F992046FFF71FFF804693
:10344C000C48E3E70B484FF00008DFE70F9B0093B5
:10345C00434632460D9920460AF0B1FADDE72A467A
:10346C000F9920460AF09FFAD8E700BF7DD90008D3
:10347C00D941000845D900082DE9F04383B0064630
:10348C00056842F20F738B4228BF0B46184A052180
:10349C00684608F0A3FE04467368D3F804900B2723
:1034AC00DFF8508005E04A4639464046A8473F1AA7
:1034BC008044002FF7D17368D3F804806F4605E081
:1034CC00424621463846A847241A0744002CF7D117
:1034DC0073685F681B24084E05E03A462146304667
:1034EC00A847241A0644002CF7D103B0BDE8F0839A
:1034FC00C05B0108E8610108CC610108074B01229F
:10350C001A6004E04008054A13685B001360044B22
:10351C009842F7D8034B1860704700BFD80A0024B4
:10352C0040420F00DC0A002470B506460D4600240C
:10353C0005E0315D044883685B6898470134AC4210
:10354C00F7D3284670BD00BFC45101088446002340
:10355C0000E00133074A12689A4208DD1A01064955
:10356C00096801EB03108A5C6245F2D100E000208F
:10357C00704700BF906201081000002438B50C4B56
:10358C001B685BB10C46FFF7E1FF054648B1C0680C
:10359C000CF06AFC40B12560002038BD6FF00C00C7
:1035AC00FBE76FF00100F8E76FF01200F5E700BFE2
:1035BC001000002408B50348034A121A00210AF02F
:1035CC00EEFA08BD600200246421002408B5064808
:1035DC00064A121A06490AF0E6FA0648064A121A70
:1035EC0006490AF0E0FA08BD000000245C02002441
:1035FC0088A80108000000240000002488A8010805
:10360C002DE9F04383B000AF0446D0F80090D0F819
:10361C000480D0F808E06D468AB0694611F11002BA
:10362C0000F0B5801426131E18BF01233046042E5B
:10363C00D4BF4FF0000C03F0010CBCF1000F01D013
:10364C00594E4E610828D4BF002603F001060EB176
:10365C00C1F818900C28D4BF002603F001060EB157
:10366C00C1F81C801028D4BF002303F001030BB158
:10367C00C1F820E0132840F38D8014233AB10520C3
:10368C00387100207871B871F87178680861002180
:10369C006FF300016FF341016FF382016FF3C5010A
:1036AC00012060F38811C3F30A0363F353216FF312
:1036BC001F5100233D48FFF71BFCAD46D4F80C907E
:1036CC00D4F81080D4F814E06D468AB0694611F134
:1036DC00100262D01426131E18BF01233046042E8C
:1036EC00D4BF4FF0000C03F0010CBCF1000F01D063
:1036FC002F4E4E610828D4BF002603F001060EB1F0
:10370C00C1F818900C28D4BF002603F001060EB1A6
:10371C00C1F81C801028D4BF002303F001030BB1A7
:10372C00C1F820E013283BDD14233AB10520387191
:10373C0000207871B871F8717868086100216FF316
:10374C0000016FF341016FF382016FF3C5014FF07C
:10375C00010868F38811C3F30A0363F353216FF371
:10376C001F51124E00233046FFF7C2FBAD46E369F2
:10377C00104A414630460AF0ACF8A3690E4A41465D
:10378C0030460AF0A6F80C37BD46BDE8F0836FF062
:10379C00004648E76FF01B0370E76FF000469AE7AE
:1037AC006FF01B03C1E700BFBC6201085C59010844
:1037BC00EC6201081C6301082C63010838B504464F
:1037CC000D4611B10846FFF71BFF012C04D029460A
:1037DC00204606F047FC38BDEFF30583103B034A47
:1037EC00012103480AF075F8F1E700BF5C6301089A
:1037FC005C59010830BFFFF7FDBF00BF38B5044668
:10380C00054D2A4605490FF0B5F8054A0021601907
:10381C000EF0E3FF38BD00BF000000009459010812
:10382C000800000070B50646054D064B1D444C1BA8
:10383C002046FFF7E3FF083CB46605F1080070BDB5
:10384C000000000008000000054B5A699B689A4272
:10385C0004D0044A536843F080535360704700BF50
:10386C00B80F002400ED00E081690D4B5A6942F459
:10387C0080725A61BFF34F8FBFF36F8F31F8021C08
:10388C005A6922F480725A61BFF34F8FBFF36F8F66
:10389C004DF60273994201D0002070470120704709
:1038AC0000ED00E04FF0000C83F800C002F07F4CFC
:1038BC00BCF17F4F14D102F00C0CBCF1080F04D0FA
:1038CC0012F0080F09D00846704708B5054A0121C7
:1038DC00054809F0F4FF002008BD01221A7070475A
:1038EC0000207047706301085C59010808B52A4A2A
:1038FC0001212A4809F0E3FF294B9B6A13F0007F52
:10390C001FD11D20264B9B6A13F0807F20D1244BA6
:10391C009B6A13F4002F22D1214B9B6A13F4802F46
:10392C0024D11F4B9B6A13F4003F26D11C4B9B6A7E
:10393C0013F4803F28D11A4A916A1A4B0B439362B5
:10394C0008BD194A0121154809F0B9FF1E20D9E715
:10395C00164A0121114809F0B2FF1F20D7E7144A7B
:10396C0001210E4809F0ABFF2120D5E7114A0121B6
:10397C000A4809F0A4FF2220D3E70F4A0121074887
:10398C0009F09DFF2320D1E70C4A0121034809F0DF
:10399C0096FF2420CFE700BF9C6301085C59010807
:1039AC0000ED00E00000FFFFB4630108C8630108EC
:1039BC00E4630108046401082C64010848640108EC
:1039CC0008B500230B70034A0121034809F077FF67
:1039DC0008BD00BF746401085C590108B0B582B021
:1039EC0000AF0F2933DC374D103900233B71022314
:1039FC007B718AB0EC461CF110022AD04FF0120EEB
:103A0C00131E18BF01237046BEF1040FD4BF00244F
:103A1C0003F0010414B12C4CCCF8144000243C707D
:103A2C0002247C700828D4BF002403F001040CB1DC
:103A3C00CCF818500C28D4BF002303F001030BB1B1
:103A4C00CCF81C109AB10CF1200300210DE01F4D95
:103A5C00CAE76FF0004ED3E701F1080404EB070E40
:103A6C001EF808EC03F801EB01310129F4D91128F7
:103A7C0024DD12234AB10421397100217971B97105
:103A8C000121F9717868CCF8100000216FF3000166
:103A9C006FF341016FF382016FF3C501012060F3F5
:103AAC008811C3F30A0363F353216FF31F510023EF
:103ABC000748FFF71DFA0837BD46B0BD6FF01B0372
:103ACC00D8E700BF98640108CC640108B064010811
:103ADC005C590108F8B505460F461446394A0121D0
:103AEC00394809F0ECFE394B9B6A13F0100F31D1B9
:103AFC001026364B9B6A13F0080F32D1334B9B6A5E
:103B0C0013F0020F34D1314B9B6A13F0010F4BD1E0
:103B1C002E4B9B6A13F0200F4DD12C4B9B6A13F04C
:103B2C00100F01D1294B9B6A284B9B6A13F0200F75
:103B3C0004D0264A536A23F400535362234A936AEF
:103B4C0043F0FF039362012128460AF03CF82070F1
:103B5C003046F8BD1E4A01211B4809F0B0FE112663
:103B6C00C7E71C4A0121184809F0A9FE1226C5E72F
:103B7C00194A0121144809F0A2FE144A536B926AA7
:103B8C0012F0800F01D11326BDE7144A01210E4813
:103B9C0009F09FFE37B10D4A936A23F080039362BC
:103BAC001326B0E71326AEE70D4A0121064809F0AB
:103BBC0086FE1426ACE70B4A0121034809F07FFE70
:103BCC001526AAE7E06401085C59010800ED00E045
:103BDC00F86401082C650108406501085865010866
:103BEC007065010890650108F8B505460F46144646
:103BFC00374A0121374809F062FE374B9B6A13F4B0
:103C0C00805F25D11626344B9B6A13F4006F26D1A6
:103C1C00314B9B6A13F4007F28D12F4B9B6A13F412
:103C2C00806F3FD12C4B9B6A13F4807F41D12A4B80
:103C3C009B6A13F4005F43D1274A936A43F47F4392
:103C4C0093620121284609F0BEFF20703046F8BD72
:103C5C00224A01211F4809F032FE1726D3E7204AD9
:103C6C0001211C4809F02BFE1826D1E71D4A012121
:103C7C00184809F024FE184A936B926A12F4004F0C
:103C8C0001D11926C9E7184A0121124809F021FE71
:103C9C0037B1114A936A23F4004393621926BCE7A7
:103CAC001926BAE7114A01210A4809F008FE1A261A
:103CBC00B8E70F4A0121074809F001FE1B26BBE7B4
:103CCC000C4A0121034809F0FAFD1C26B4E700BF99
:103CDC00C06501085C59010800ED00E0D8650108D9
:103CEC002C650108EC6501080866010820660108CE
:103CFC003C6601089065010870B506460D462B4AD6
:103D0C0001212B4809F0DBFD00232B70294BDC6AC9
:103D1C0014F002040AD1274BDB6A002B0DDB254B78
:103D2C00DC6A14F080440ED1204670BD224A012179
:103D3C001F4809F0C4FD0024F6E7204A01211C4865
:103D4C0009F0BDFDF0E71E4A0121194809F0B7FD45
:103D5C003046FFF789FD98B9164B9B6A13F0FF0F9D
:103D6C0016D1144B9C6A14F47F4418D1114B9B6AE6
:103D7C00B3F5803FD8D33046FFF7B8FD0446D3E700
:103D8C003368104A01210A4809F0A3FD3468CBE7D7
:103D9C002A4601213046FFF79DFE0446C4E72A4619
:103DAC0001213046FFF720FF0446BDE754660108A9
:103DBC005C59010800ED00E06C6601089066010892
:103DCC00A0660108C066010830B58BB01D4B5D685C
:103DDC00C5F30805002383F31188BFF36F8F0DF132
:103DEC002603FFF75FFD04460DF12702294609F073
:103DFC00ECFE9DF827300BB10BB030BD05460DF134
:103E0C00040C20686168A268E368ACE80F002069C4
:103E1C006169A269E369ACE80F009DF8263043B1F3
:103E2C00089BC3F3080242B940F2FF121A430892EE
:103E3C0003E0054B089A1340089301A92846FFF7A5
:103E4C00BDFCD9E700ED00E000FEFFFF044B5A6912
:103E5C0042F010025A615A6922F008025A61704706
:103E6C0000ED00E0EFF30880EFF3098101B5724635
:103E7C00FFF7AAFF01BD00BF0B4880F3088809F0CB
:103E8C0055FC102080F3118808484FF4006140184D
:103E9C0080F30988EFF314800221084380F314881F
:103EAC00BFF36F8F00F088F8A84100246828002425
:103EBC0008B50A4B9B68834202D007F0B1FA08BDE3
:103ECC00EFF30583002BF8D0054B5A6842F0805273
:103EDC005A605A6A22F400425A62EEE7B80F002484
:103EEC0000ED00E011498A684FF030001044EFF308
:103EFC00098C80E8F01F102080F31288BFF36F8FBD
:103F0C000B4F4FF000664A698A603E60906E094C18
:103F1C002060D06E0023D36680F3118802F130004C
:103F2C0090E8F01F8CF3098870470000B80F00244C
:103F3C0004ED00E0100B00241EF0040F0CBFEFF397
:103F4C000880EFF30980816911F8021C0229FFD067
:103F5C0001B5724609F02BFE01BD00BF002807DB3E
:103F6C0000F01F02400901239340024A42F820301E
:103F7C00704700BF00E100E0002804DB0901C9B272
:103F8C00044B1954704700F00F000901C9B2024BE1
:103F9C001954704700E400E014ED00E0044B23F0EA
:103FAC007F03044A9360BFF34F8FBFF36F8F70474B
:103FBC000000000800ED00E008B5FFF7EFFF0C4A29
:103FCC00D2F8883023F47003C2F88830EFF31483EE
:103FDC0023F0040383F31488BFF36F8FFFF7EAFA1F
:103FEC00FFF7F4FA00F048F809F03CFE06F05CFA32
:103FFC0000ED00E010B4A2F120040D4942F8081CB9
:10400C0021F0010142F8081C42F8203C019B42F8C7
:10401C001C3C029B42F8183C039B42F8143C4FF0AA
:10402C00807342F8043C04650023C36610BC7047DF
:10403C00B126000800B50E4615460A4B9860826EF4
:10404C00094B1A602C4686F309880020034B9847CD
:10405C002046002100220023014C204749DC0008A7
:10406C00B1260008B80F0024100B0024014B1022BD
:10407C001A61704700ED00E0002306E002F00F0229
:10408C000849114410220A760133A22B08DC1AB21B
:10409C00002AF3DB04491144102281F80023F3E7D2
:1040AC00704700BFFCEC00E000E100E008B5EFF366
:1040BC000583103B044A02EBC301496852F83300F4
:1040CC008847FFF7C1FB08BD64520108184B5B69B8
:1040DC0013F4803F2AD110B4154B0022C3F884206E
:1040EC00BFF34F8FD3F88040C4F34E3000E0184636
:1040FC00C4F3C90243F6E07303EA401343EA827344
:10410C000B49C1F860321346013A002BF2D1431E21
:10411C000028ECD1BFF34F8F4B6943F480334B61D4
:10412C00BFF34F8FBFF36F8F10BC7047704700BF4A
:10413C0000ED00E0002910DD034600F01F000144F3
:10414C00BFF34F8F064AC2F868322033203900295A
:10415C00F8DCBFF34F8FBFF36F8F0020704700BFA9
:10416C0000ED00E0002910DD034600F01F000144C3
:10417C00BFF34F8F064AC2F85C3220332039002936
:10418C00F8DCBFF34F8FBFF36F8F0020704700BF79
:10419C0000ED00E00C4B5B6913F4003F13D1BFF34F
:1041AC004F8FBFF36F8F084B0022C3F85022BFF321
:1041BC004F8FBFF36F8F5A6942F400325A61BFF3CD
:1041CC004F8FBFF36F8F704700ED00E030B587B0B5
:1041DC000D46114600240094019402940394049417
:1041EC00059402228DF80220044A01920490059550
:1041FC001A46684608F01CF807B030BD73DC00089E
:10420C0008B5024B1B689847002008BD140B00240E
:10421C00034B1860034A937843F002039370704782
:10422C00140B00241400002408B5054808F075FF91
:10423C00002383F31188BFF36F8F0423184602DF2A
:10424C00DC66010808B54FF0FF324FF0FF3302482F
:10425C0009F014FD08BD00BF2400002408B5054971
:10426C0021F00701044A521A044808F042FE0020CB
:10427C0008BD00BF774F002400000524180B002454
:10428C0038B50446FFF7DEFF224608210A4808F03D
:10429C00A7FD0546B0FA80F04009002C08BF0020AD
:1042AC0020B110F0AFFD054B0C221A50044806F05B
:1042BC00D5F9284638BD00BF180B00240C000000AF
:1042CC002400002410B50446FFF7BCFF2146034828
:1042DC0008F030FD024806F0C1F910BD180B00249F
:1042EC0024000024034BC01A8010034B03FB00F086
:1042FC00704700BF04020024A38B2EBA2C22024B61
:10430C0002FB0030704700BF0402002410B509F016
:10431C0041FE054B1C6804E004F10C0006F0D6FBD2
:10432C002468002CF8D110BD240B002410B509F022
:10433C0031FE054B9C6804E004F10C0006F0C6FB52
:10434C002468002CF8D110BD240B0024F8B50446C9
:10435C0000220023104809F060FD0746C8B13F2C2D
:10436C0017D93F3C0646A4B1002200230A4809F0A5
:10437C0054FD054648B10146304609F075FD3F2C09
:10438C0038BF3F243F3C2E46EDE7384609F04BFD45
:10439C002F463846F8BD00BF0402002401B970470F
:1043AC0010B514460B46084A0121084809F091FA49
:1043BC00072384F892306FF00803E36104F12000C6
:1043CC0006F084FB10BD00BF1467010804590108F6
:1043DC0010B582B0044690F89230013B072B4DD8B3
:1043EC00DFE803F0041B2F3A4C6894A890F8861071
:1043FC00C1F3C001806809F0E5FDA061A36800224B
:10440C009A61A16804F168000BF0A8FE082384F8F7
:10441C0092302046FFF7DCFF30E0806809F0E5FDC4
:10442C00A061A1680B8AC31AA36194F890200AB901
:10443C00FC2B25D8AABBFF2384F89430032384F8E3
:10444C00923004F130000CF0C2F9204600F0F8F87C
:10445C00A0B9042384F892300021204600F09AF889
:10446C0004F1300000220023CDE9002342F2107247
:10447C00002307F0FDFA052384F8923002B010BD3A
:10448C00FC2200923D4A01213D4809F02DFA0723F8
:10449C0084F892306FF00703E3612046FFF798FF32
:1044AC00ECE784F893208B61A16804F168000BF0B1
:1044BC0055FEC0E790F894300133DBB280F89430AD
:1044CC00092B11D8012100F065F804F1300000220D
:1044DC000023CDE9002342F22832002307F0C8FA6A
:1044EC00032384F89230C9E700F11401254809F040
:1044FC0025FD94F89430244A0121214809F0E9F96A
:10450C00072384F892306FF00703E36104F1300065
:10451C000CF05DF9E36913F1080F1BD004F168008E
:10452C000BF0E1FDA06809F07EFC0023A3600823DA
:10453C0084F8923000220023144809F06EFCA0602D
:10454C0068B104F11401124809F0F8FC002384F856
:10455C00923093E70221204600F01CF8DEE704F1CC
:10456C00140300226261074AD2681AB11360054A2B
:10457C00D36083E7034AD36093607FE73067010819
:10458C0004590108240B0024606701083002002440
:10459C002C0B002410B594B00446D0F88830C3F32B
:1045AC001C03029390F88E00C0F38003420802F0C3
:1045BC00040C43EA0C0302F0080213438DF80D308F
:1045CC0010F0010F24D094F88C308DF810300DF1D0
:1045DC00110341F03001197094F890205A70D81CD6
:1045EC0094F891209A7004ABC01AC0B209F0B6FCD2
:1045FC008DF80C00606801940E4B009342F210721F
:10460C00002302A900F0D8FC034618B914B010BD61
:10461C0004ABDEE7084A0121084809F05AF90723E0
:10462C0084F892304FF0FF33E3612046FFF7D0FE61
:10463C00ECE700BFA94300088C6701080459010886
:10464C0030B583B0044690F8900088B9A069FFF7A4
:10465C007DFE0546CDB194F89230032B3ED094F8F4
:10466C009030002B47D0A560E560002003B030BD32
:10467C0094F88530013B03FB00F0A369984228BFF6
:10468C001846FFF763FE0546E4E704F1300000220C
:10469C000023CDE9002342F22832002307F0E8F989
:1046AC0094F89430FF2B10D1002284F8942004F15C
:1046BC0014036261124A52681AB11360104A5360B3
:1046CC0009E00F4A5360136005E0062384F892302A
:1046DC002046FFF77DFE4FF0FF30C7E704F13000B6
:1046EC000CF075F8FF2384F8943004F1140104489D
:1046FC0009F024FCB3E72946A06809F0B5FBB3E741
:10470C00240B002410B584B0044690F8863013F0C6
:10471C00020F05D113F0040F19D06FF0604100E0C7
:10472C001149D4F88020C2F31C0201920291C3F308
:10473C0080038DF80C3001AB22460C49606800F008
:10474C0021FD2060002805DB002004B010BD40F2E4
:10475C00FF71E6E70346064A0121064809F0B9F85D
:10476C006FF00900F1E700BF00FFFF03BD4A00082E
:10477C00A06701080459010810B5044690F862308E
:10478C00032B12D0052B0BD10A4A01210A4809F040
:10479C0096F8072384F862306FF0020344F8143C57
:1047AC00A4F1100006F092F910BD062380F86230D7
:1047BC00F6E700BFBC6701080459010838B50B794E
:1047CC000F2B28BF0F23454A12F803E090F886C040
:1047DC001CF0010F06D00A7A90F884309A4249D125
:1047EC00012200E000221CF0020F24D00C68D0F84B
:1047FC00803064F31C03C0F880300D68D0F888302A
:10480C00374C1C4064F31C03C0F888302D02ADB249
:10481C002C4364F31C03C0F8883024F07C4464F30C
:10482C001C03C0F888300D6805F0E0552C4364F388
:10483C001C03C0F888308B181B7A13F0F00420D0BE
:10484C00102C45D1BEF1070F15D9022380F89230F8
:10485C0080F885E090F89530012464F3030380F828
:10486C009530806802F10803AEEB020219440C305B
:10487C0009F017FB38BD1B4A03211B4809F01FF830
:10488C00F8E703F00F031CF0080F11D0BEF1080F6E
:10489C000ED93BB9531C0B441B7A1344DBB20233C5
:1048AC00DBB208E0114A03210F4809F008F8E1E7F0
:1048BC0013440133DBB29E4504D3012480F89240AB
:1048CC009E46CEE70A4A0321074808F0F8FFD1E7D5
:1048DC00084A0321044808F0F2FFCBE7A869010855
:1048EC00FF00FF1FDC67010804590108F467010889
:1048FC000C68010828680108F8B504460F461646EE
:10490C00C0680C3009F0FEFA864210D90546E06802
:10491C002A4639460C3009F0C4FAE3685868E0605E
:10492C0060B1721B79190C3009F0BBFAF8BDE06864
:10493C00324639460C3009F0B4FAF7E7054A012142
:10494C00054808F0BCFF072384F892306FF007038A
:10495C00E361EBE748680108045901082DE9F041CF
:10496C0082B004460D4687680B790F2B28BF0F23A6
:10497C004B4A12F8038090F8863013F0010F06D0E2
:10498C000A7A90F884309A4212D1012600E000266F
:10499C00AB191B7A03F0F003202B0CD0072384F8FF
:1049AC0092306FF00503E36104F1200006F08EF8FD
:1049BC0002B0BDE8F08104F1300000220023CDE903
:1049CC00002342F21072002307F052F8711C2E449F
:1049DC00327A94F8953003F00F00461C66F303030B
:1049EC0084F8953002F00F03834232D194F885306D
:1049FC00434504D0A269A8EB01039A4239D8A8EB2D
:104A0C000108A369984528BF9846083142462944B5
:104A1C002046FFF771FFA369A3EB0803A361002BEA
:104A2C0033D094F890100029C2D094F89320013A16
:104A3C00D2B284F89320002ABAD184F89310BB61C7
:104A4C00A16804F168000BF089FB032384F8923011
:104A5C00AEE7144A0121144808F031FF072384F80B
:104A6C0092306FF00303E36104F1200006F02EF89E
:104A7C009EE70E4A01210C4808F021FF072384F819
:104A8C0092306FF00803E36192E7082384F89230C8
:104A9C000023BB61A16804F168000BF05FFB87E7A2
:104AAC00A8690108686801080459010884680108AC
:104ABC0010B5144692F89230052B10D0082B16D056
:104ACC002BB1114A0321114808F0F9FE02E01046FF
:104ADC00FFF774FE04F1200005F0F8FF10BD10463E
:104AEC00FFF73CFF94F89230052BF3D1F6E7084A18
:104AFC000121064808F0E3FE072384F892306FF09A
:104B0C000703E361E6E700BFC46801080459010824
:104B1C0094680108F0B583B004460E4615461F464E
:104B2C00416000F18003D2E9000183E8030004F145
:104B3C00880397E8030083E8030004F168000BF096
:104B4C00C6FA089B1B88A4F89030002384F8923096
:104B5C00AB7913F0080F03D1BB7913F0080F09D010
:104B6C00B3681B6801A930469847E8B9019B13F05C
:104B7C00040F19D0DDE90A23194809F04EF9A06099
:104B8C00D0B12046FFF7BEFD0546E8B9154904F142
:104B9C0020000BF073FB0022134904F130000BF0E2
:104BAC000AFE284603B0F0BD104A0121104808F057
:104BBC0086FE6FF00805F4E70E4A01210C4808F058
:104BCC007EFE6FF00A05ECE70B4A0121084808F05D
:104BDC0076FEA06809F027F90023A360E1E700BF87
:104BEC00300200241DE0000885470008F468010825
:104BFC000459010870690108886901080023994269
:104C0C000ADD10B400EB030C044C24F81C20013317
:104C1C009942F7DC10BC7047704700BF3800002485
:104C2C00F8B50746002401E00134E4B27B78A342D6
:104C3C0017D93D786619304600F0CAF80028F3D031
:104C4C00304600F0FBF8074B53F83620002AEBD027
:104C5C0006F01F0503EBC60359680120A8409047D6
:104C6C00E2E7F8BD340B002401F0030C0CF1020256
:104C7C000B4B53F822200B0C22EA114193FAA3F3AD
:104C8C005BB1B3FA83F303F01F03984001430CF1BB
:104C9C00020C034A42F82C1070472023F3E700BFA4
:104CAC000004005800F003030233084A52F8232092
:104CBC00030C02EA104093FAA3F32BB1B3FA83F37B
:104CCC0003F01F03D84070472023F9E70004005875
:104CDC0008B5034688B1B0FA80F2C2F11F02D2B215
:104CEC00074931F912004FF0B042D2F880100B4353
:104CFC00C2F8803008F08EFF08BDFF22F0E700BF3D
:104D0C003800002410B498B1B0FA80F3C3F11F033B
:104D1C00DBB29C460D4850F8330088420AD088B963
:104D2C000A4B43F83C1003EBCC035A6010BC7047A1
:104D3C00FF23EEE7054C04EBC3035B689342EED113
:104D4C000020F3E76FF00F00F0E700BF340B0024F6
:104D5C0060B1B0FA80F3C3F11F03DBB2044A002147
:104D6C0042F8331002EBC30251607047FF23F5E7A2
:104D7C00340B002400B583B012480BF075F8A8B1C1
:104D8C00002300930193BDF80030F42262F30B036F
:104D9C00ADF80030022301930A4B9B681B686BB182
:104DAC0069460848984703B05DF804FB064A0121A0
:104DBC00064808F084FD6FF01200F4E76FF057001E
:104DCC00F1E700BFE44F01085C6A0108DC580108F8
:104DDC0008B500F01F02012393405F2809D81F2853
:104DEC0011D84FF0B042D2F88820934309D000205C
:104DFC0008BD03460F4A01210F4808F06AFD002048
:104E0C00F6E70120F4E73F2809D84FF0B042D2F87A
:104E1C009820934301D00020EAE70120E8E74FF007
:104E2C00B042D2F8A820934301D00020E0E7012043
:104E3C00DEE700BF446A0108DC58010808B500F041
:104E4C001F02012393405F2807D81F280ED84FF06C
:104E5C00B042C2F88830002008BD03460A4A01213E
:104E6C000A4808F036FD6FF01500F5E73F2805D825
:104E7C004FF0B042C2F898300020EDE74FF0B0424E
:104E8C00C2F8A8300020E7E7446A0108DC580108A2
:104E9C002DE9F041069CB4F804C06588AC441FFAB7
:104EAC008CFC9D885E883544ADB286B201FB00FE59
:104EBC00364FA7FB0E7ECEF38F1EA6EB0E0E1FFAFF
:104ECC008EFEDF88774541D2B4F80680F04528BFC6
:104EDC00F046A6EB080E1FFA8EFE0EF1FF3E1FFAEF
:104EEC008EFEF44534D2A6EB0C081FFA88F808F1B4
:104EFC00FF381FFA88F8E588454540D3A2F80680AC
:104F0C004FEA5C05B3F802E0BEEB5C0F04D2B4F8D8
:104F1C0002E0AE4528BFAE46A2F802E0ACEB0E0EA6
:104F2C001FFA8EFEA2F804E0A488A6451DD9948031
:104F3C00ACEB040454804FF47A730CFB0333B3FBD7
:104F4C00F0F0814219D2401ABDE8F081B846C0E7B2
:104F5C00754508D9761BB6B2013E1FFA86F847454F
:104F6C0010D8AC46CAE7F446C8E79B889E45E2D207
:104F7C009380ACEB03035380DDE7081AE4E76FF092
:104F8C008500E1E76FF08500DEE700BFD34D6210CE
:104F9C00074B984205D8074B984205D94FF44870F7
:104FAC00704740F2EE20704740F26B30704700BF04
:104FBC0000350C0020A107002DE9F0478AB002AFA4
:104FCC0016463A6CD0F80890002900F0CE800446C2
:104FDC001D468846497911F0010117D06FF06043E6
:104FEC00D8F8000030EA030313D1002A00F09F80A8
:104FFC00D9F814907B6C0193009232462B464146B3
:10500C002046C8472037BD46BDE8F08740F2FF7305
:10501C00E6E700294BD0DFF8588100294AD04FF041
:10502C001D0E002949D04FF0080C6C4600233B7133
:10503C0002237B718CB002AD15F1100240D01A2105
:10504C00131E18BF01230E460429D4BF4FF00009CC
:10505C0003F00109B9F1000F01D046496961002143
:10506C00397002217970082ED4BF002103F00101A0
:10507C0009B1C5F818800C2ED4BF002103F0010132
:10508C0009B1C5F81CE0102ED4BF002103F00101BA
:10509C0009B1C5F820C0142ED4BF002303F00103BE
:1050AC0003B16862CAB105F12803002113E0DFF8EF
:1050BC00C880B2E74FF00B0EB3E74FF0030CB4E728
:1050CC006FF00041BCE701F12000384410F8200CCF
:1050DC0003F8010B01310129F5D9192E24DD1A230E
:1050EC0042B10621397100217971B9710121F9712F
:1050FC007868286100216FF300016FF341016FF3B1
:10510C0082016FF3C501012060F38811C3F30A0318
:10511C0063F353216FF31F5100231848FDF7E8FE8A
:10512C00A5466FF015006DE76FF01B03D8E707F18C
:10513C00040A0122002150460BF027F8D9F81490EC
:10514C00CDF804A00E4B009332462B464146204628
:10515C00C84700287FF456AF4FF0FF324FF0FF33B3
:10516C00504605F051FBF8694CE76FF0150049E724
:10517C00A86A0108C06A0108B46A0108AC580108A1
:10518C0047E300082DE9F04782B000AF8668002B9A
:10519C0018BF002900F0BF800D469C461B7A13F007
:1051AC00010315D06FF0604EDCF800406FEA0E087A
:1051BC0034EA0E0E0FD1DCF8041018EA010F0AD1F4
:1051CC00B46963462946A0470837BD46BDE8F08759
:1051DC0040F2FF7EE8E7002B5DD0DFF84091002B1A
:1051EC005CD04FF01D08002B5BD04FF0080EDCF8A4
:1051FC0004C06D4600233B7102237B718EB06E465A
:10520C0016F1100250D02220131E18BF01230146A4
:10521C000428D4BF4FF0000A03F0010ABAF1000FC2
:10522C0001D03F4870610020387002207870082946
:10523C00D4BF002003F0010008B1C6F818900C2967
:10524C00D4BF002003F0010008B1C6F81C8010295F
:10525C00D4BF002003F0010008B1C6F820E01429E7
:10526C00D4BF002003F0010000B174621829D4BF30
:10527C00002003F0010008B1C6F828E01C29D4BFB7
:10528C00002303F001030BB1C6F82CC0CAB106F120
:10529C003003002013E0DFF88C90A0E74FF00B08F0
:1052AC00A1E74FF0030EA2E76FF00040ACE700F16E
:1052BC0008043C4414F8084C03F8014B0130012855
:1052CC00F5D9212924DD222342B10821397100218D
:1052DC007971B9710121F9717868306100216FF32E
:1052EC0000016FF341016FF382016FF3C5010120DF
:1052FC0060F38811C3F30A0363F353216FF31F5157
:10530C0000230948FDF7F4FDAD466FF015005BE78F
:10531C006FF01B03D8E76FF0150055E7A86A01087A
:10532C00F06A0108B46A0108AC58010870B582B083
:10533C0014461D4682688368064EB44207D8303244
:10534C003A330195009408F01DFF02B070BD6FF068
:10535C001500FAE740420F0070B582B014461D46A6
:10536C0082688368064EB44207D84832523301959E
:10537C00009408F007FF02B070BD6FF01500FAE75B
:10538C0000127A002DE9F04782B006468946904615
:10539C00D0F804A0DAF81C5007690024009401949A
:1053AC001968224661F31C0200925A68234662F384
:1053BC001C0301939DF80730022262F387138DF8CA
:1053CC00073010374FF0FF324FF0FF33384605F0FF
:1053DC00C5F800E00134AB7BA34205DDAB6853F8A4
:1053EC003430002BF6D101E06FF01B0414F11C0FCC
:1053FC0027D014F0010F2DD002229DF8033062F358
:10540C0047138DF80330BAF8341001EBC4017368FC
:10541C009B69D3F80CA008236A4689B23046D04762
:10542C000646C8B9384605F019F9AB6843F834900C
:10543C00AB6803EBC403C3F80480204602B0BDE89C
:10544C00F087094A0221094808F039FA384605F074
:10545C0005F9F2E70122D0E70346054A012103488A
:10546C0008F037FA3446E8E7406B0108B4580108F5
:10547C00606B010830B583B00C4643689B691B68B0
:10548C009847054610B9284603B030BD0090234616
:10549C00024A0121024808F027FAF4E78C6B010854
:1054AC00B458010830B583B00C4643689B695B68FF
:1054BC009847054610B9284603B030BD00902346E6
:1054CC00024A0121024808F00FFAF4E7B06B010818
:1054DC00B45801082DE9F04F85B005464668D6F85A
:1054EC001C80076901AAF421FFF7C4FF00283CD1F6
:1054FC00019C14F03F0F38D0C4F30424B18F01EB9E
:10550C00C4016B689B69D3F8089008230DEB030268
:10551C0089B22846C847034610BB9DF80F90224617
:10552C00F8212846FFF7BEFFF8B9D8F8003003EB96
:10553C00C90253F839A0D2F804B0002443F839401A
:10554C0007F1240005F01AF95A4621462846D0479F
:10555C0001AAF4212846FFF78DFF0028C8D004E0EB
:10556C00034A0121034808F0B4F905B0BDE8F08FF7
:10557C00D46B0108B45801082DE9F04F97B00646DA
:10558C008846174699464368D3F81CA04822002148
:10559C0002A80DF022F901AA39463046FFF76AFF3E
:1055AC00002834D017B0BDE8F08F5B4A01215B486E
:1055BC0008F08FF9F6E79DF80D1041F010018DF809
:1055CC000D1065E0BDF85220C2F38A02029270E021
:1055DC009DF80D3013F0010F00F08F80DAF80830D1
:1055EC0003EBCB0253F83B30526813B102A930469F
:1055FC009847224649463046FFF754FF0028D1D140
:10560C0001AA39463046FFF735FF0028CAD1019C64
:10561C0014F07F0FC6D0C4F3052404EBC40508EBCB
:10562C00C505ADB273689B69D3F808B0082314AAFA
:10563C0029463046D84703460028B6D19DF8563047
:10564C00C3F3030203F00F038DF80C209DF85320D5
:10565C0012F0200F05D09DF80D1041F002018DF8CD
:10566C000D109DF8561011F0200F05D09DF80D006F
:10567C0040F004008DF80D0011F0100F05D09DF8CE
:10568C000D1041F008018DF80D1012F0800F92D121
:10569C009DF857B00BF07F0B12F0400F92D0149A7C
:1056AC00C2F31C0202929DF80D2042F001028DF80B
:1056BC000D200F2B28BF0F23194AD35C402B24D865
:1056CC009DF80D2012F0020F82D1002B80D005F135
:1056DC000801033372689269956803F4FE7304AA97
:1056EC0089B23046A847034600283FF471AF0D4AF3
:1056FC0001210A4808F0EDF854E7DAF8043003EB1E
:10570C00CB0253F83B3052686FE7074A012103483C
:10571C0008F0D5F86DE700BFFC6B0108B458010820
:10572C003C700108246C01084C6C0108F0B583B086
:10573C000446056910354FF0FF324FF0FF33284611
:10574C0004F00CFF01AA18212046FFF793FE064631
:10575C0028B1284604F082FF304603B0F0BD019A10
:10576C0022F01002019218212046FFF79BFE0646FC
:10577C000028EED103F010FE074601AA182120469E
:10578C00FFF778FE06460028E3D1019B13F0080FC3
:10579C00DFD003F001FEC01B0C4B984208D801AAC5
:1057AC0018212046FFF766FE06460028EDD0D0E70C
:1057BC00019A42F01002019218212046FFF772FE66
:1057CC0006460028C5D16FF00A06C2E7C03B470366
:1057DC0070B505692B793BBB06460C4610354FF06E
:1057EC00FF324FF0FF33284604F0B8FE2288013A0E
:1057FC00A388013B1B0203F47F4343EA4263E28824
:10580C00013A02F07F02134321890139084A02EA66
:10581C0001421A431C213046FFF744FE0446284639
:10582C0004F01CFF204670BD6FF00F04FAE700BFB8
:10583C000000FF01F8B547680669337943BB04469D
:10584C00386828B183681B6831689847054658B991
:10585C004FF47A720023204608F0A1FD054650B99A
:10586C00012333712846F8BD03460B4A01210B482E
:10587C0008F02FF8F6E70346094A0121074808F01B
:10588C0028F838680028EDD083685B689847E9E70A
:10589C006FF07705E6E700BF606C0108B4580108AB
:1058AC008C6C01082DE9F04182B00D460669072980
:1058BC001AD804463379002B61D106F110084FF049
:1058CC00FF324FF0FF33404604F048FE01AA182186
:1058DC002046FFF7CFFD074678B1404604F0BEFEE8
:1058EC00384602B0BDE8F0810B46264A0121264815
:1058FC0007F0EFFF6FF08507F2E76A4610212046AC
:10590C00FFF7B8FD07460028E7D115F0010F27D0A7
:10591C00019B43F080030193009B43F01003009321
:10592C0015F0020F21D0019B43F02003019315F0D9
:10593C00040F1FD0019B43F440730193019A18216B
:10594C002046FFF7AFFD07460028C6D1009A10216C
:10595C002046FFF7A7FD07460028BED13560BCE7FF
:10596C00019B23F080030193DAE7019B23F02003D2
:10597C000193DCE7019B23F440730193DEE76FF0A6
:10598C000F07ADE7B06C0108B458010830B583B00F
:10599C000446456801AA5021FFF76CFDE0B103B045
:1059AC0030BDA823A422E98E2046FFF7E5FD21E0B7
:1059BC00B823B422298F2046FFF7DEFD1EE0164ADD
:1059CC000121164807F07BFF1CE001AA502120465C
:1059DC00FFF750FD0028E2D1019A12F09902DED0B7
:1059EC0050212046FFF75EFD0028D8D1019B13F013
:1059FC00010FD6D1019B13F0100FD9D1019B13F0DD
:105A0C00080FDCD1019B13F0800FDED0044A01217A
:105A1C00024807F054FFD8E7CC6C0108B4580108D1
:105A2C00E46C010830B583B00446056901AA502125
:105A3C00FFF720FD00B303B030BD204608F0DDFDBC
:105A4C0028E02046FFF746FD28E01D4A01211D48AD
:105A5C0007F035FF05F1240004F090FE22E01A4A0D
:105A6C000121184807F02BFF20E001AA5021204605
:105A7C00FFF700FD0028DED1144A019B1A40DAD052
:105A8C0050212046FFF70EFD0028D4D1019B13F0C6
:105A9C00607FD2D1019B13F4805FD2D1019B13F4B0
:105AAC00004FD2D1019B13F0005FD8D1019B13F4AE
:105ABC00003FDAD0064A0121024807F000FFD4E784
:105ACC00FC6C0108B4580108146D01080090823B6D
:105ADC00306D01082DE9F04F89B007468846914694
:105AEC000293D0F804B0DBF81C50066909790B4618
:105AFC000F2928BF0F23914A12F803A00023069305
:105B0C00079398F80530C3F340009DF81B2060F311
:105B1C0045128DF81B20D2B263F386128DF81B2030
:105B2C009DF81E2061F303028DF81E20C3F3C00103
:105B3C00D2B261F304128DF81E20C3F38001D2B2ED
:105B4C0061F345128DF81E20D2B242F080028DF81E
:105B5C001E200F2B37D8326812F0040F02D113F02D
:105B6C000C0F38D1BAF1400F3DD813F0040F4DD0C3
:105B7C0098F804300F2B41D83379002B00F0D580E6
:105B8C0005A9384608F005FC0446002840F0AE8014
:105B9C00059B13F0800F40F0CB8006F124031846D0
:105BAC0003934A46029B04F02FFE0446002840F063
:105BBC00C28006F13C094FF0FF324FF0FF334846EC
:105BCC0004F0CCFC2FE05E4A01215E4807F081FE18
:105BDC006FF085048AE05C4A01215A4807F06FFE99
:105BEC006FF0850482E0402300935346574A01210D
:105BFC00544807F079FE6FF0150477E0544A012100
:105C0C00504807F066FE6FF015046FE098F804300A
:105C1C00082BB1D94F4A01214A4807F05AFE6FF0C0
:105C2C00150463E001342B7BA34206DD2B6826466A
:105C3C0053F83430002BF5D101E04FF0FF368DF8DE
:105C4C001F6098F8053013F0010F53D0D8F80020DE
:105C5C00069B62F31C030693BBF83E1006EBC603CF
:105C6C00DB009BB2029319447B689B69DC680823B8
:105C7C0006AA89B23846A0470446002843D198F8B2
:105C8C00053013F0020F16D1BAF1000F13D0BBF888
:105C9C003E300299194489B208310AF103037A683B
:105CAC009269D46803F4FE7308F1080289B238468D
:105CBC00A047044670BB2B68129A43F836202B6819
:105CCC0003EBC603139A5A600122B240D021384626
:105CDC00FFF7E8FB044620B32B68002243F836207C
:105CEC00484604F0BBFC039804F048FD204609B07C
:105CFC00BDE8F08FD8F80020BDF81A3062F38C03A1
:105D0C00ADF81A30A8E70346134A01210D4807F0F5
:105D1C00E0FDE5E70346114A01210A4807F0D9FDE9
