:020000040800F2
:10000000903C0024E53C00082FCD0008D13C0008BE
:10001000D13C0008D13C0008D13C000800000000A1
:10002000000000000000000000000000A53D0008E6
:10003000D13C000800000000513D0008FD8300088D
:10004000193F0008193F0008193F0008193F000830
:10005000193F0008193F0008193F0008193F000820
:10006000193F0008193F0008193F0008193F000810
:10007000193F0008193F0008193F0008193F000800
:1002CC0003685A004CBF43F0004323F0004318442A
:1002DC0070472DE9F0470646174641B30139884669
:1002EC004FF0000909EB080404EBD474641006EB1E
:1002FC00C4052846FFF7E4FFA1424FEAC40A04D123
:10030C00B84204D82846BDE8F087B84204D9A145C4
:10031C000DD004F1FF38E5E70AF108003044FFF78F
:10032C00CFFF0138B842EDD204F10109DAE700251C
:10033C00E8E7012806D0022806D00028034818BF99
:10034C00002070470248704702487047590900085E
:10035C005D090008610900081F4B37B504468D1E66
:10036C004BB101A92846AFF3008048B900230920FE
:10037C00236103B030BD1948194B1B1ADB100193D4
:10038C0001992A46FFF7A5FF01460028EED0FFF79A
:10039C0097FF4B68A064012B1AD0002B01F10400CD
:1003AC0010DBFFF78DFF0023C4E913030368002B58
:1003BC000ADAC3F30360FFF7BCFF03460028D5D06D
:1003CC000020D5E70123EFE7FFF77AFF0346F7E7B5
:1003DC0000230520CCE700BF0000000038300108E6
:1003EC00003101080368DA0710B5044605D49B07F1
:1003FC0000F1480018D500F0F9FB2368590703D425
:10040C0004F1D00000F0FAFB23681A0703D404F5BA
:10041C00A87000F0FBFB2368DB0608D404F5E87039
:10042C00BDE8104000F036BC00F0D8FBE5E710BD8D
:10043C00092070470346006800B1184470477047A4
:10044C0070B505460C46216C2846FFF785FF06461D
:10045C0008B103F019FE236C6B6122462B69294607
:10046C00012098470828EED00728F2D13046216C9D
:10047C00FFF7E5FF201D00F0A5FB2DE9F0470C1D53
:10048C00D0F80C90D0F818A0074616460FCCADF556
:10049C00727D03AD0FC50FCC0FC50FCC0FC594E803
:1004AC000F000DF1080885E80F000025C8F8005072
:1004BC00D8F840103846FFF74FFF0936F6B204461D
:1004CC0068BBD8F840307B614FF4F07241467AA893
:1004DC0010F092FB3B697AAA394630469847889BC4
:1004EC000546C8F844303A46CDE9008A3B463146C9
:1004FC000120C847C0B9C4B94FF4F0727AA940467C
:10050C0010F07AFB082D2646D2D0072D0CD12046B0
:10051C00D8F84010FFF793FF03A800F053FBD8F86E
:10052C00383046F01006DCE7092420460DF5727DC4
:10053C00BDE8F087406C7047F0B5CB6B0B640D1DBC
:10054C0006460F460FCDF9B001AC0FC40FCD0FC44A
:10055C000FCD0FC495E80F0084E80F004FF0FF3368
:10056C00009310993046FFF7F7FE78B933696A4665
:10057C003146984708280446F3D06846FFF732FF07
:10058C00062C03D139463046FFF75AFF092079B0C3
:10059C00F0BD10B48261DA6BC16010BC1A641946EC
:1005AC0000226AE770B5C66843690B6404460D46C1
:1005BC0026B10122FFF761FF03F066FD03690A46CD
:1005CC00014602209847072805D00828F4D129466F
:1005DC002046FFF735FF3046296CFFF730FF281D0A
:1005EC0000F0F0FAC26802B9A6E7CA6B0A640022EE
:1005FC0043E77047836801460BB1012018477047E9
:10060C00012910B50446084605D005D9C81E012895
:10061C008CBF0220012010BD43B90F2A06D804EB71
:10062C008204029A616811601846F4E70220F2E72E
:10063C001FB503AB009300230A461946FFF7E0FFF2
:10064C00039805B05DF804FB012910B50446084673
:10065C0005D005D9C81E01288CBF0220012010BD71
:10066C0043B90F2A06D8029904EB82040968616029
:10067C001846F4E70220F2E71FB503AB0093002302
:10068C0003920A461946FFF7DFFF05B05DF804FB3D
:10069C00F0B5D36B1364141D06460F460FCCADF5A5
:1006AC000F7D17AD0FC50FCC0FC50FCC0FC594E840
:1006BC000F0085E80F004FF0FF331693269968461C
:1006CC00FFF74AFE90B90C2116A86A46FFF7D4FF33
:1006DC00394616A8B04748B9049B16AA69460820A3
:1006EC0098470528044602D00928E7D1092416A802
:1006FC00FFF778FE20460DF50F7DF0BD2DE9F04F8C
:10070C00CD6C87B0174655F8042B04950C4600F0B9
:10071C0003099A463BBB12028DF815300392032352
:10072C008DF81430236DB9F1020F08BFA56B13F0CF
:10073C00010322D100F0080800932B6843BB03A9E6
:10074C00384600F03AFB002840F0FB80009BDBB100
:10075C000F213846FFF76CFF0E2102463846FFF793
:10076C008BFF794A55E0130C8DF815301204DBB26F
:10077C0005EB830503920223D2E703A9384600F068
:10078C001CFB002840F0DD80082007B0BDE8F08F8E
:10079C00BAF1020F0CBFD5F804B0B5F802B0A26CD8
:1007AC0018BF2B8801930CBF05F108062E1D0F21D5
:1007BC002BF0010538461544FFF73AFF8542019BA3
:1007CC0029D823F001022A44824294BF002201223C
:1007DC004FEA4B0000F0020003F0010340EA03056E
:1007EC00012D1AD0022D5ED0002D40F0AA80351DAF
:1007FC00B9F1000FA1D0002A9FD03046FFF760FD61
:10080C00A56306462046AFF30080002800F09980CF
:10081C0032460F213FE00022DAE7B9F1000F26D172
:10082C00002A3DD073683268991C4FEAD27200F0EE
:10083C00888004F158010133029109D0301DFFF773
:10084C00F9FD02AB01462046AFF30080054638B3F4
:10085C000D213846FFF7ECFE022D029B206202D1DF
:10086C00E36204F12C03C4E9093606208DE70D215F
:10087C003846FFF7DDFE256A854211D1A36A9E42F8
:10088C000ED13046FFF71CFD0F2102463846FFF70C
:10089C00F3FE224600213846FFF7EEFE072074E7F0
:1008AC0006F1080549E7356825F00045B9F1000F58
:1008BC002AD1A2B1B8F1000F19D085B9CB4617E0F7
:1008CC000BF1010B019B029306EB8B00FFF7B2FDC2
:1008DC000022014602AB2046AFF3008058B13368CA
:1008EC00002B00DA0436013506EB850525E7C346F7
:1008FC0004F158030193AB45E2D10D213846FFF7C3
:10090C0097FE029B2062AEE70D213846FFF790FE62
:10091C00D4F820B08345E2D1A36A9E42DFD14FF0D8
:10092C00000B0423C4E90BB3F318A56263633368AB
:10093C005B4503DA681C06EB8000A3E701230093F8
:10094C00D1E7092021E700BF000000000023D5E615
:10095C000123D3E60223D1E62DE9F0410546C2B0CE
:10096C0014461E46042925D8DFE811F005001C00AA
:10097C002400D6000401EEB9836B92B2012104303D
:10098C0001FA06F717421CBF53F8047B40F8267097
:10099C000136102EF4D1A60400D4AB63002042B073
:1009AC00BDE8F081012E4FEA124794B204D13B19F5
:1009BC00102B41D90220F2E7052EFBD107EB0408DE
:1009CC00B8F1200FF6D80F2F4DD9002CE6D00368C4
:1009DC005807A04608D5284623F0040340F8D03B1E
:1009EC0000F010F90F2F48D9684600F00BF9AB6BEB
:1009FC00102F3A4642A938BF102201EBC2024FEA2F
:100A0C004808A2F5C47208F1FF38101F4FEA88019C
:100A1C0002EB88021C4654F804CB40F804CF824207
:100A2C00F9D10A1D012E134417D00F2FAB636FD9C8
:100A3C00684600F0E3F8B1E7102FBBD00368DA0783
:100A4C0005D523F0030340F8483B00F0CBF820A871
:100A5C0000F0C8F8AB6B002C3FD10433AB6320A87B
:100A6C0000F0BCF89AE7B8F1100F03682DD9DC0739
:100A7C00A8F1100842D45807ADD420A800F0BAF859
:100A8C00C7F11004684600F0BDF8640020AAAB6BF7
:100A9C0002EBC702013C101FA10002EB84021C46B2
:100AAC0054F804CB40F804CF9042F9D10A1D1344FA
:100ABC00B8F1000F9CD1012ECFD00F2FAB633FF6B6
:100ACC006DAF20A800F092F868E7D9070DD420A8E4
:100ADC0000F090F8AB6B002CF3D0640020AA02EB72
:100AEC00C702013C4FF00008D5E723F0010343F0A7
:100AFC00020340F8483B00F07DF8E8E723F00103DF
:100B0C0043F0020340F8483B00F074F82B68B2E75E
:100B1C0020A800F06BF88BE7032E7FF44BAF97B255
:100B2C0007EB1244102C4FEA12463FF643AF036812
:100B3C00190706D523F00803036000F5A87000F030
:100B4C0087F820A800F084F8AA6B20AB03EBC6034F
:100B5C00F900D41A03EBC707BB4203EB040005D121
:100B6C000A44AA6320A800F051F817E7006843F87C
:100B7C00040BF1E7002E7FF41DAF102A3FF61AAFDD
:100B8C000368DA0606D523F01003036000F5E8705D
:100B9C0000F08AF820AE304600F086F8AB6B0022ED
:100BAC00012101FA02F020421CBF53F8040B46F855
:100BBC0022000132042AF4D1AB63304600F06AF80B
:100BCC00ECE600BF00F1340191E838009C46A646E3
:100BDC004CF8045D90E8FF0FE54600BD90EC210B4E
:100BEC00704700BF80EC210B704700BF90EC200BCE
:100BFC00704700BF80EC200B704700BFD0EC200B7F
:100C0C00704700BFC0EC200B704700BFF0EC020136
:100C1C00F0EC0211F0EC0221F0EC0231F0EC0241AC
:100C2C00F0EC0251F0EC0261F0EC0271F0EC02819C
:100C3C00F0EC0291F0EC02A1F0EC02B1F0EC02C18C
:100C4C00F0EC02D1F0EC02E1F0EC02F1704700BFE5
:100C5C00E0EC0201E0EC0211E0EC0221E0EC0231EC
:100C6C00E0EC0241E0EC0251E0EC0261E0EC0271DC
:100C7C00E0EC0281E0EC0291E0EC02A1E0EC02B1CC
:100C8C00E0EC02C1E0EC02D1E0EC02E1E0EC02F1BC
:100C9C00704700BFB0FC0181B0FC0191B0FC01A118
:100CAC00B0FC01B1704700BFA0FC0181A0FC019118
:100CBC00A0FC01A1A0FC01B1704700BFEC4600B53F
:100CCC002DE900502DE9FF1F4FF000032DE90C001A
:100CDC0001A9FFF731FCDDF840E012B0704700BF0E
:100CEC00EC4600B52DE900502DE9FF1F4FF0000335
:100CFC002DE90C0001A9FFF755FCDDF840E012B01E
:100D0C00704700BFEC4600B52DE900502DE9FF1FE0
:100D1C004FF000032DE90C0001A9FFF763FCDDF88F
:100D2C0040E012B0704700BFEC4600B52DE9005012
:100D3C002DE9FF1F4FF000032DE90C0001ABFFF76D
:100D4C0028FCDDF840E012B0704700BFEC4600B55F
:100D5C002DE900502DE9FF1F4FF000032DE90C0089
:100D6C0001AAFFF795FCDDF840E012B0704700BF18
:100D7C00027A03467AB9427A82B1013A42724268E7
:100D8C00111D12680260416003221A721A68100E5B
:100D9C0012021A607047013AD2B2F6E7B0207047DF
:100DAC001FB503AB009300230C221946FFF728FC58
:100DBC00039805B05DF804FBF2E72DE9F043054616
:100DCC0085B00E464FF000083046FFF7D1FFB02833
:100DDC00044615D1B8F1000F0ED103AC43460E22D8
:100DEC00414600942846FFF70BFC009443460F2223
:100DFC0041462846FFF728FC002005B0BDE8F083EB
:100E0C0002061DD4002303AF4FEA80091946009750
:100E1C000D222846FFF7F4FB5FFA89F9039B09F1D1
:100E2C00040914F0400F14BFA3EB09034B440393C4
:100E3C00009700230D2219462846FFF705FCC3E74F
:100E4C0000F0F003802B18D104023046FFF790FF1E
:100E5C000443B4F5004F01D10920CEE7240100234F
:100E6C00A2B219462846FFF777FD0028F4D114F4F6
:100E7C00004F18BF4FF00108A6E7902B0DD100F0E2
:100E8C000D030D2BE8D003AF002300F00F020097E9
:100E9C0019462846FFF7B4FBCAE7A02B13D1C3436E
:100EAC0003F007034FF47F621A41030702F47F62D9
:100EBC0001D542F48042002319462846FFF74CFD29
:100ECC00002881D0C8E7B02B46D1B12808D13046D4
:100EDC00FFF74EFF431EDBB20E2B0246EBD9BBE7EE
:100EEC00B22820D1002303AC0D22194600942846C9
:100EFC00FFF786FB3046FFF73BFF022700F07F0130
:100F0C0010F08003039A01FA07F105D102F5017282
:100F1C000A44039200948DE70A4430460392073743
:100F2C00FFF726FFEAE7B3280BD13046FFF720FF87
:100F3C00020300F00F0002F470220130012302437F
:100F4C00BAE700F0FC03B42B86D000F007020132A4
:100F5C00012342F40022AFE7C02B44D1C6280AD1AA
:100F6C003046FFF705FF020300F00F0002F4702279
:100F7C0001300323E3E7C7280BD13046FFF7F8FE17
:100F8C00431EDBB20E2B02463FF666AF0023042154
:100F9C0093E700F0F803C02B06D100F00F020132EA
:100FAC00032342F4202287E7C8280DD13046FFF7EF
:100FBC00DFFE00F0F00200F00F00103201300523CC
:100FCC0040EA0232012178E7C9287FF445AF304668
:100FDC00FFF7CEFE020300F00F0002F47022013086
:100FEC0005230243EEE700F0F803D02B7FF434AF77
:100FFC0000F007020132052342F40022E2E71FB59C
:10100C0003460846DA6C53680832190201910292C1
:10101C001B0E032201A98DF80C208DF80D30FFF763
:10102C00CCFE05B05DF804FB08B5FFF7C5FE806C7F
:10103C0008BD08B5FFF7C0FEC06CC379023300EBE6
:10104C00830008BD08B5034883685B68792198471D
:10105C0008BD00BFA83301082DE9F04106460D4636
:10106C000EF0A8F90022431868D21344394AA2FBA7
:10107C00034727F0030404EB97041B1BC01A61F110
:10108C0000014FF0CC3300FB03F302FB0133A0FB58
:10109C000202134444085F0844EAC3740EF08AF950
:1010AC00002243184ED21344DFF8A8C0ACFB03E275
:1010BC0022F0030E0EEB920EA3EB0E03C01A61F19D
:1010CC0000024FF0CC3100FB01F10CFB0211A0FB34
:1010DC000C031944430843EAC17349081B1B61EB19
:1010EC000701EA17AB4291412EDA31461A480AF051
:1010FC00B0FB80460028D1D10EF05CF900224318D9
:10110C001ED21344134CA4FB032525F0030202EB5F
:10111C0095029B1AC01A61F100014FF0CC3200FB12
:10112C0002F204FB0122A0FB04042244400840EA22
:10113C00C2705208094908604A6007E0012294E72E
:10114C000122DEE70122AEE76FF073084046BDE8EE
:10115C00F08100BFCDCCCCCCA833010860020024B8
:10116C0010B582B00446154A032115480BF05BFC00
:10117C0021460DF10700FFF76FFF00280DDB9DF8EE
:10118C0007307F2B11D10F4A03210D480BF04BFC7C
:10119C00FFF758FF002002B010BD0B4A0121084890
:1011AC000BF041FC6FF07300F5E7084A012104488D
:1011BC000BF043FC6FF00400EDE700BFAC3B010803
:1011CC00D83A0108083C0108CC3B0108DC3B01087B
:1011DC0008B5054883685B681F219847034A0221BC
:1011EC0003480BF020FC08BDA8330108183C01088B
:1011FC00D83A010810B582B00024384A0321384887
:10120C000BF011FC4FF4FA62032101A80AF04FFB1A
:10121C00A04225DB9DF804209DF8051041EA02232D
:10122C009DF806004A40824224D14FF6FF72934249
:10123C003FD12C4A03212A480BF0F5FB2A4B1868A6
:10124C0010B3826800210BF044FD044630B3034612
:10125C00264A012122480BF0F0FBFFF7B9FF3AE0D8
:10126C00234A01211E480BF0DEFBFFF7B1FF6FF0A4
:10127C00730430E01F4A012119480BF0D4FBFFF72F
:10128C00A7FF6FF0040426E01B4A012114480BF061
:10129C00CAFBFFF79DFF6FF004041CE0124B1B68A8
:1012AC009B68164A03210E480BF0C7FBFFF7CAFEDA
:1012BC0011E0134A02210A480BF0BFFB41F28830BF
:1012CC0009F002F921460F480AF0C3FA0028F9D0B8
:1012DC00FFF7B8FE0024204602B010BD243C0108E4
:1012EC00D83A0108783C0108A0090024B83C010850
:1012FC00443C0108603C01089C3C0108D03C0108BE
:10130C00F83C0108A833010830B5C7B04FF4FA62B5
:10131C00052144A80AF0CBFA002833DB9DF81031E4
:10132C009DF81141240444EA03649DF8123144EA07
:10133C0003249DF813311C43042144A80AF09BFAA2
:10134C009DF81431834227D1B4F1104F2ED304F100
:10135C00E045FFF777FE4FF4FA610DF20F10FFF73F
:10136C007BFE00282CDB9DF80F114C1C4FF4FA620D
:10137C00023103A80AF09BFA00282BDB9DF80F2101
:10138C00002335E02E4A01212E480BF04CFBFFF7D1
:10139C001FFF6FF073043CE02B4A012129480BF02E
:1013AC0042FBFFF715FF6FF0040432E0274A0121DE
:1013BC0024480BF038FBFFF70BFF6FF0730428E0A9
:1013CC00234A01211F480BF02EFBFFF701FF6FF0A2
:1013DC0073041EE01F4A01211A480BF024FBFFF78F
:1013EC00F7FE6FF0730414E003A9C95C4A400133A3
:1013FC009C42F9D803AB1B5D93420DD1234603AA43
:10140C002946154800680BF046FC044670B9FFF7F6
:10141C0019FE204647B030BD104A012109480BF097
:10142C0002FBFFF7D5FE6FF00404F2E700902B46A9
:10143C000B4A012103480BF00BFBFFF7C9FEE8E751
:10144C00243D0108D83A01083C3D0108543D0108EF
:10145C00743D0108883D0108A0090024A03D010845
:10146C00B83D010870B5C6B04FF4FA62052144A826
:10147C000AF01DFA00283ADB9DF810319DF8114155
:10148C00240444EA03649DF8123144EA03249DF8D1
:10149C0013311C43042144A80AF0EDF99DF81431D2
:1014AC0083422ED1B4F1104F35D304F1E044FFF751
:1014BC00C9FD4FF4FA62022143A80AF0F8F900289A
:1014CC0033DB9DF80C519DF80D31DB43DBB2AB42A5
:1014DC0035D10135FFF7B6FD2B4603AA2146284826
:1014EC0000680BF0BAFB064698BB002442E0254A84
:1014FC00012125480BF097FAFFF76AFE6FF073068F
:10150C003AE0224A012120480BF08DFAFFF760FEE9
:10151C006FF0040630E01E4A01211B480BF083FAE1
:10152C00FFF756FE6FF0730626E01A4A01211648A3
:10153C000BF079FAFFF74CFE6FF073061CE0164ABD
:10154C00012111480BF06FFAFFF742FE6FF0040611
:10155C0012E000902346114A01210B480BF078FA57
:10156C00FFF736FE08E003AB195D0D4883685B6836
:10157C0098470134A542F6D8304646B070BD00BF3E
:10158C00A0090024243D0108D83A01083C3D01087B
:10159C00543D0108DC3D0108F43D0108143E0108EE
:1015AC00A833010870B586B004469E4E9E4D324657
:1015BC00032128460BF037FA9C4A032128460BF0EE
:1015CC0032FA9B4A032128460BF02DFA2346994AFE
:1015DC00032128460BF031FA3246032128460BF042
:1015EC0022FA64200AF053F9934A04AB92E8030000
:1015FC0083E80300194691480AF034F9002841D1D8
:10160C008F49002001F0EAFE0546002841D18C4BA1
:10161C001A685368926800928A4A032182480BF038
:10162C0017FA894B01221A700DF0C4FE02460020F5
:10163C00531835D203448548A0FB035626F0030506
:10164C0005EB96055B1BD21A61F100034FF0CC3110
:10165C0002FB01F100FB0311A2FB00200144520824
:10166C0042EAC17249087A4B1A60596041F28830DB
:10167C00FFF776FD051E1CDB4FF47A7303FB04F4B5
:10168C0000254BE00346734A012128460BF0D5F99F
:10169C00B6E70346704A012163480BF0CEF924E00B
:1016AC000120C7E76D4A02215F480BF0BCF96FF0CF
:1016BC007305634B186808B10BF0CEFA594A032135
:1016CC0059480BF0B0F9002D00F09F8015F1740F04
:1016DC0000F0A1802B46624A012153480BF0ADF972
:1016EC00504A032150480BF09EF9284606B070BDB5
:1016FC005C4A02214C480BF096F9D8E75A4A012172
:10170C0049480BF090F9FFF763FD07E00091574A49
:10171C00012145480BF09CF9FFF75AFD0DF04AFEEC
:10172C00002243186FD21344484EA6FB032C2CF016
:10173C00030202EB9C029B1AC01A61F100024FF0EB
:10174C00CC3100FB01F106FB0211A0FB060319448E
:10175C00420842EAC17249083D4803684068D21AFF
:10176C0061EB0001944275EB01019BD342F21071C5
:10177C000DF10E00FFF770FC0028B9DB4FF47A7105
:10178C000DF10F00FFF768FC0028B7DB9DF80F1078
:10179C00CA43D2B29DF80E309A42B7D1FFF752FC31
:1017AC009DF80E30312B1AD0442B09D0112B20D0A0
:1017BC002F4A02211C480BF040F9FFF709FDADE759
:1017CC002C4A032118480BF02EF9FFF713FD031ECA
:1017DC00A4DA294A012114480BF02FF99EE7FFF7F0
:1017EC0093FD031E9ADA254A01210F480BF025F9C7
:1017FC0094E7FFF737FE031E90DA214A01210A48CD
:10180C000BF01BF98AE701228DE71E4A03210648DB
:10181C000BF009F964E71C4A022103480BF003F9A9
:10182C005EE700BF343E0108D83A0108603E01086B
:10183C00883E0108AC3E0108983B0108A83301081A
:10184C00A0090024F83E010844200024CDCCCCCCC7
:10185C0060020024C03E0108DC3E0108243F010860
:10186C00844001084C3F01086C3F0108883F010887
:10187C002C400108B83F0108DC3F0108F83F010883
:10188C00144001084440010864400108B0B582B01E
:10189C0000AF022869D0032800F0C980012802D0CB
:1018AC000837BD46B0BD6C4600233B7102237B71EB
:1018BC0088B0EC461CF110022BD04FF00E0E131E0C
:1018CC0018BF01237046BEF1040FD4BF002503F0EE
:1018DC00010515B1894DCCF8145000253D70022539
:1018EC007D700828D4BF002303F001030BB1CCF8A2
:1018FC0018108AB10CF11C03002101290CD801F13C
:10190C00080505EB070E1EF808EC03F801EB013196
:10191C00F3E76FF0004ED2E70D2823DD0E234AB11A
:10192C000321397100217971B9710121F97178683C
:10193C00CCF8100000216FF300016FF341016FF33D
:10194C0082016FF3C501012060F38811C3F30A0310
:10195C0063F353216FF31F510023694801F0F8F929
:10196C00A5469DE76FF01B03D9E76C4600233B713E
:10197C0002237B7188B0EC461CF110022BD04FF087
:10198C000E0E131E18BF01237046BEF1040FD4BFF8
:10199C00002503F0010515B1584DCCF81450002565
:1019AC003D7002257D700828D4BF002303F001038D
:1019BC000BB1CCF818108AB10CF11C0300210129D1
:1019CC000CD801F1080505EB070E1EF808EC03F81E
:1019DC0001EB0131F3E76FF0004ED2E70D2823DD68
:1019EC000E234AB10321397100217971B97101219A
:1019FC00F9717868CCF8100000216FF300016FF3D7
:101A0C0041016FF382016FF3C501022060F388116D
:101A1C00C3F30A0363F353216FF31F5100233848B8
:101A2C0001F096F9A5463BE76FF01B03D9E76C462E
:101A3C0000233B7102237B7188B0EC461CF1100231
:101A4C002FD04FF00E0E131E18BF01237046BEF19F
:101A5C00040FD4BF002503F0010515B1274DCCF8B8
:101A6C0014504FF0000E87F800E04FF0020E87F88C
:101A7C0001E00828D4BF002303F001030BB1CCF81C
:101A8C0018108AB10CF11C03002101290CD801F1AA
:101A9C00080505EB070E1EF808EC03F801EB013105
:101AAC00F3E76FF0004ECEE70D2823DD0E234AB18D
:101ABC000321397100217971B9710121F9717868AB
:101ACC00CCF8100000216FF300016FF341016FF3AC
:101ADC0082016FF3C501032060F38811C3F30A037D
:101AEC0063F353216FF31F510023054801F030F9C4
:101AFC00A546D5E66FF01B03D9E700BFCC40010823
:101B0C00683B010838B5836805699C697CB112F49F
:101B1C00000F06D02D6801238B401D4201D082F0AE
:101B2C00C062044B134002F01662A04738BD6FF040
:101B3C005700FBE7400000062DE9F04F91B00592ED
:101B4C000293134602F004020092C3F3C20210F097
:101B5C000303019340F0328280468A460132041D11
:101B6C00002858D0B8F1000F05D0A4EB08030433BB
:101B7C00534500F22682029B5D1E019B0493069343
:101B8C00039300264FF0FF3B0427B946B8F1000F32
:101B9C0001D0029B2360531E0793002A40F36781F8
:101BAC000122059B03F00203002B14BF0123002329
:101BBC0002F0010118BF002141BBA4EB0800810811
:101BCC00B0F5007F34BF002303F00103002B40F07D
:101BDC00FE8103980F2800F2FD81B8F1000F00F090
:101BEC005B81CBB200F14001694401F8103C01F873
:101BFC0020BC002A00F04C8163F07F0301F8103CFC
:101C0C00049B01330493039B01330393043400229C
:101C1C00CC4640463DE001F0070A5444CAF1080A9C
:101C2C00A0E7002634E0002632E0002630E008274A
:101C3C00BC462DE025292BD10BF1010B01260427E5
:101C4C00BC4625E04729EED82A2914D32A39C9B233
:101C5C004FF0010E0EFA01F14FF6DA7E11EA0E0F7B
:101C6C0016D111F0625F40F0C18011F0010F40F00D
:101C7C008D8000260CE0252903D10BF1FF3B0026BB
:101C8C0006E001D9002603E0202901D02329CCD17C
:101C9C001D466B1C6978002900F01781002EC9D0F5
:101CAC007A29BED84C29CDD34C392E2962D80FF2C3
:101CBC00080E5EF821F000BF9D1C0008811D000875
:101CCC00811D0008811D0008811D0008811D000870
:101CDC00811D0008811D0008811D0008811D000860
:101CEC00811D0008811D0008911D0008811D000840
:101CFC00811D0008811D0008811D0008811D000840
:101D0C00811D0008811D0008811D0008F91D0008B7
:101D1C00811D0008911D0008911D0008F91D000887
:101D2C00F91D0008F91D00089D1C0008911D0008F4
:101D3C003B1C0008811D00089D1C0008811D00082B
:101D4C00551E0008911D0008551E0008811D000835
:101D5C00811D00085D1E00088B1D0008911D0008E8
:101D6C00811D0008811D0008911D0008811D0008BF
:101D7C00851D000800268BE70427BC4688E704274E
:101D8C00BC4685E729786C2924D000263C44013CCC
:101D9C00B4FBF7F407FB04F420B1211A614451455C
:101DAC0000F21281002A58D1BCF1040F00F085809A
:101DBC00BCF1080F40F011811A99073121F007018D
:101DCC0001F108051A95D1E9008908B1C4E9008927
:101DDC0008345DE713F8021C6C2903D00026042795
:101DEC00BC46D3E700260827BC46CFE729784C2908
:101DFC001AD01A99073121F0070101F108061A9639
:101E0C00D1E90067073424F0070440B1211A0831E6
:101E1C00514513D829784C2913D0C4E900670834EC
:101E2C0000260827BC4633E71A99073121F0070131
:101E3C0001F108061A96D1E90067E3E76FF01B0081
:101E4C00B9E0C4E90067EAE700260427BC469DE731
:101E5C00324600260427BC4698E7E14680461A9A8B
:101E6C00111D1A9112680292079A1D468EE6614B5B
:101E7C00029A9A4204D3604B9A4205D3002300E0A5
:101E8C0000231BB900228CE60123FAE7012288E625
:101E9C00069B01330693B6E612B10AF1010AB2E6CB
:101EAC00009B13B10AF1020AADE602980EF0BDFDDB
:101EBC000AEB000303F1020AA5E61A990D1D1A9507
:101ECC00096800B121600434E2E68046231AB3F5B8
:101EDC00806F80F0858090B1002202609B080370B7
:101EEC00009B83B1069BC370049B88F802301BBB1C
:101EFC00019DDDF80C90DDF810B0029F3DE05344DD
:101F0C00A3F1080057E0069B4370EDE701339842BC
:101F1C00EED903F140026A4412F8101C12F9102C8D
:101F2C00002AF3DA01F07F01A4EB080201325245DA
:101F3C0059D804F8011BE9E7019B0398E7E7009BDC
:101F4C0043B305F140036B4413F8203C04F8013B08
:101F5C00019EA4EB080333440133534546D805F1E5
:101F6C0040036B4413F8103C04F8013B32463946ED
:101F7C0020460EF041FE34440135A94519D9BBF178
:101F8C00000FDCD005F140036B4413F9103C002B1F
:101F9C00D5DAF1E705F140036B4413F8103C58F81F
:101FAC002370002248F8232038460EF03EFD461CD4
:101FBC00CFE7A4EB080011B0BDE8F08F6FF00D0077
:101FCC00F9E76FF01B00F6E76FF01B00F3E76FF01B
:101FDC001500F0E76FF01500EDE76FF01500EAE77C
:101FEC006FF01500E7E76FF01B00E4E76FF01B00E4
:101FFC00E1E700BF00310108188301082DE9F04F1B
:10200C0097B000AF8346BA617B61D7F88030C3F3D9
:10201C00C0033B62396111B90AF0ABF838619BF827
:10202C000260B14636B1D7F8803013F0010F0ED1F3
:10203C00002300E0002319469BF803207A6242B18A
:10204C00D7F8802012F0020F22D1002202E00123E7
:10205C00F1E7002213431DD09BF80050AB00BB608E
:10206C00DBF80430FB600BEB8505BB69F3B1002991
:10207C0040F01781B9F1000F00F02281D7F88030C1
:10208C0013F0040F40F020810020F86106460CE1AB
:10209C000122DFE7BB691BB17A6939695846984759
:1020AC003C6920465C37BD46BDE8F08F3C69E1B920
:1020BC004D4400237B6123E00444013501364E4539
:1020CC001AD22A7800235BF822201946B8690AF044
:1020DC0065F8D7F88830BAF1000F18BF9845EBD2E5
:1020EC002AF8180008F10108E6E70026C7F81C805A
:1020FC00B046D7F884A0E2E7C7F81480D7F81C8064
:10210C00D7F8803003F005033B614FF0000AA1467D
:10211C00C7F81CB0AFE000253B6A93B9002D00F066
:10212C008D80D7F8803013F0010F40F08C803B6924
:10213C00002B40F081800223A9EB030998E00125D4
:10214C00EAE75946F8680AF06FF80028E6D06C46C2
:10215C00002387F82C30022387F82D308AB069468B
:10216C0011F1100251D01225131E18BF012328465D
:10217C00042DD4BF4FF0000C03F0010CBCF1000F88
:10218C0001D0B44D4D61002587F82850022587F801
:10219C0029500828D4BF002503F001050DB1FD68B6
:1021AC008D610C28D4BF002303F001030BB1C1F8DF
:1021BC001CB06ABB11283CDD122362B1042087F8E5
:1021CC002C00002087F82D0087F82E00012087F8BE
:1021DC002F00F86A08616FF300086FF341086FF382
:1021EC0082086FF3C508022161F38818C3F30A0350
:1021FC0063F353286FF31F5800234146964800F0B1
:10220C00A7FDA546A9F1020932E06FF00045ABE746
:10221C0001F12003002509E005F1300C07F1280E2F
:10222C00F4441CF830CC03F801CB0135012DF3D963
:10223C00C0E76FF01B03C0E701237DE7D7F88030C0
:10224C0013F0020F14D0002322461946B86909F086
:10225C00A5FFD7F884207B69D7F88810002A18BF0F
:10226C008B4203D222F8130001337B610138814485
:10227C000AF1010A35467B6A9A4510D22E4616F8A9
:10228C0002BB6B78FA6952F82340744B9C42FFF402
:10229C0042AF734B9C42FFF452AF00253CE74C46D7
:1022AC00FFE607F144000023FB6118B14A462946BA
:1022BC000EF0A2FC4D444FF00008C7F804901EE04D
:1022CC000020F8610646F0E7FE6107F134000026B5
:1022DC00EBE700253B6A33BB002D3BD0D7F88030B1
:1022EC0013F0010F26D0731C06F1300207F1280100
:1022FC00561806F8149CDEB208F1010825467B6AD4
:10230C0098454AD22C4614F802AB95F801905BF82C
:10231C002930524A9342DCD3514A934201D30025CF
:10232C00D8E70125D6E75146F86809F07DFF00286B
:10233C00D2D0E1E7D7F8803013F0040FDCD0FA6983
:10234C00531C303207F128010A4402F8249CDBB2FA
:10235C00FB61D1E7D7F8803013F0020F09D0731C62
:10236C0006F1300207F12801561806F8149CDEB26B
:10237C00C2E7F869431C00F1300107F128028A1802
:10238C0002F824AC02460232D2B2FA6107F15802CA
:10239C0052FA83F303F8249CAEE7D7F804909BF829
:1023AC00003087F854309BF80130334487F85530AF
:1023BC00D7F8803013F0020F0ED1FB69C3F347033B
:1023CC0087F85730D7F8803013F0010F06D113F08F
:1023DC00040F3DD1002302E00023F1E7002387F82E
:1023EC005630DBF800003863786DCBF80000D7F876
:1023FC0014804246B9685846D7F818A0D047041E36
:10240C00FFF64FAE386BCBF80000C7F8148042468D
:10241C00F96907F13400D047B0F1000856DBA0444D
:10242C00B96849447B6A01EB4301D7F814904A46DA
:10243C003B69591A2846D047041EFFF632AEA04419
:10244C0000257E62C7F820B05646D7F884B01DE050
:10245C00FB69C4E7D8400108D03A010800310108F3
:10246C00188301084FF0000A4A46012107F12C009D
:10247C00B04700282CDB8044534622464946304660
:10248C0009F08CFE002825DB804401357B6A9D42D7
:10249C0015D205F1300307F12802134413F8143C4C
:1024AC0087F82C303A6A52F82340D7F88830BBF1C1
:1024BC00000F18BF9D42D5D23BF815A0D4E77A691E
:1024CC0000210846BB6998474446EAE54446E8E5DE
:1024DC000446E6E50446E4E5014B1860704700BF8E
:1024EC000000002470B506460D46002404E0044BA1
:1024FC001B68305D98470134AC42F8D370BD00BF07
:10250C000000002480B505460E461746984608F094
:10251C0035F8034610F078FD0446DFF8189049F8BA
:10252C000030424639463046A84754F8090001F0BD
:10253C00EFFB00BF0800000008B50CF03BFF0022C9
:10254C00431819D213440D4AA2FB03CE2EF0030CF0
:10255C000CEB9E0CA3EB0C03C01A61F100014FF0C5
:10256C00CC3300FB03F302FB0133A0FB0202134448
:10257C00400840EAC37008BD0122E3E7CDCCCCCCC7
:10258C00054B5A6842F002025A605A6842F0010246
:10259C005A600020704700BF0010005CEFF31182FE
:1025AC00102383F31288BFF36F8F0D4B1B686BB92D
:1025BC000C490B6843F480730B6000E033B9094B92
:1025CC001B6813F48073F9D00123F7E704490B68F7
:1025DC0001330B6082F31188BFF36F8F704700BF1C
:1025EC00A80900240048025810B5EFF311841023F9
:1025FC0083F31288BFF36F8F144B1B68A3B9144B72
:10260C000122BFF35B8F53E8001F002903D143E87D
:10261C0000200028F7D1BFF35B8F0BD10D4A0221AC
:10262C000D480AF000FA05E0012B08D0074A1368A0
:10263C00013B136084F31188BFF36F8F10BD074A01
:10264C00136823F480731360F0E700BFA80900241B
:10265C00A409002490410108783B01080048025865
:10266C0008B501F0C7FC01F061FC0D4B0D4A1A6076
:10267C000D4AD36823F03F0343F00403D3600B4BA4
:10268C001A6841F20303B3EB124F00D008BD084A9D
:10269C00D2F8083143F00103C2F80831F6E700BF65
:1026AC00540100240090D003004802580010005C34
:1026BC000080005138B505460B4C00E010340B4B34
:1026CC009C420FD263685B79002BF7D029462046D9
:1026DC000AF0FDF80028F1D023681B682946204633
:1026EC009847EBE738BD00BF883B0108983B0108D1
:1026FC0070B506460D46084C04E02A463146204685
:10270C0098471034054B9C4204D223689B69002BDC
:10271C00F3D1F6E770BD00BF883B0108983B010878
:10272C0008B50CF047FE0022431819D213440D4A89
:10273C00A2FB03CE2EF0030C0CEB9E0CA3EB0C03B4
:10274C00C01A61F100014FF0CC3300FB03F302FB24
:10275C000133A0FB02021344400840EAC37008BDD9
:10276C000122E3E7CDCCCCCC2DE9F0410746054660
:10277C000AE007EA0807144B03EB06135B68042214
:10278C00196820460AF0E3F8D5B195FAA5F6B6FA21
:10279C0086F60D4C04EB06140123B3406FEA0308D4
:1027AC0025EA0305237B002BEED03301064AD358D0
:1027BC001B69002BDDD0204698470028E4D1D8E7D0
:1027CC003846BDE8F08100BF883B01082DE9F04197
:1027DC0080460F461F4BBFF35B8F53E8005F6A1CAC
:1027EC0043E800210029F8D1BFF35B8F6DBB1A4C75
:1027FC00002607E063680422196820460AF0A7F84F
:10280C0001361034154B9C4211D2237B002BF7D090
:10281C0020460AF050F823681B69002BEAD02046AA
:10282C0098470028E6D00123B3401D43E8E7B8F1F0
:10283C00000F0BD055B12846FFF796FF0546002F29
:10284C00F8D00A200AF045F8F4E700252846BDE840
:10285C00F08100BFC0090024883B0108983B0108A7
:10286C0008B5064B186018B1054B1B68092B00DC2A
:10287C0008BD044807F036F8FAE700BFB409002495
:10288C00BC090024EC01002408B5024807F02AF822
:10289C0008BD00BFEC01002430B589B000220F49FF
:1028AC000F480CF0F6FD0F4D00220023CDE9062356
:1028BC00002404940E2303930294019400940A4B75
:1028CC004FF44072094928460CF0A5FB08492846EC
:1028DC000CF091FB204609B030BD00BF95280008D4
:1028EC00E806002468020024852C000850200024EF
:1028FC00D0410108014B53F820007047EC4101080E
:10290C0048B108B5054A1060054B1960084600F03F
:10291C0025FD002008BD6FF0150070470400002451
:10292C00B009002408B5054B1B781BB1034B0122E1
:10293C001A7008BD024806F0D5FFF7E745200024C1
:10294C00EC01002408B5104BBFF35B8F53E8001F5C
:10295C00013143E80012002AF8D1BFF35B8F30B984
:10296C000A480CF0A2FD0A4806F0BCFF08BD094B52
:10297C00BFF35B8F53E8001F013943E80012002AB4
:10298C00F8D1BFF35B8FEBE7B8090024E80600240D
:10299C00EC010024BC090024064B00200146BFF3C7
:1029AC005B8F53E8000F43E80012002AF9D1BFF304
:1029BC005B8F7047B809002438B5FFF7EDFF05466B
:1029CC00094C00E01034094B9C420BD263685B79D4
:1029DC00002BF7D023685B68002BF3D029462046E8
:1029EC009847EFE738BD00BF883B0108983B0108CA
:1029FC00034B18680028D4BF00200120704700BF8B
:102A0C00B809002410B5044C0449204609F09CFD7B
:102A1C00034B1C6010BD00BF94010024D841010879
:102A2C00AC09002408B500230C4A13700C4A13603F
:102A3C000C4A13604FF47A710B48FFF761FFFFF7F4
:102A4C00E1FF0A4A06E0094BD31A1B110133516806
:102A5C000B711032064B9A42F5D308BD4620002468
:102A6C00B8090024BC0900242D270008883B010864
:102A7C00983B010808B50146014809F03AFF08BD2A
:102A8C009401002408B5024809F041FE08BD00BFBE
:102A9C009401002408B50146024B186809F02FFF79
:102AAC0008BD00BFAC09002408B5024809F02BFF93
:102ABC0008BD00BF9401002410B582B00022002391
:102ACC00CDE900232C4B187808B902B010BD68462C
:102ADC0009F031FF044680B1FFF7ECFD2046FFF70B
:102AEC00D9FF264BBFF35B8F53E8001F013943E836
:102AFC000012002AF8D1BFF35B8FFFF779FF58B9AA
:102B0C001F4A1368516813F57A7341F10001136081
:102B1C005160FFF7C9FFD8E70CF04CFC00224318BA
:102B2C0027D21344174AA2FB034C2CF0030404EBEA
:102B3C009C041B1BC01A61F100014FF0CC3300FB4D
:102B4C0003F302FB0133A0FB02021344400840EAEA
:102B5C00C3705B080A490A684968801A63EB010371
:102B6C0040F2E932904273F10003C9D3FFF724FF1E
:102B7C00C6E70122D5E700BF45200024BC0900248C
:102B8C00E0060024CDCCCCCC0F4B1B7803B17047A6
:102B9C0010B500210120FFF719FE0C4C00E0103499
:102BAC000B4B9C4208D263685B79002BF7D02368EF
:102BBC009B6820469847F2E7FFF77EFF0028FBD181
:102BCC00014B01221A7010BD46200024883B0108DD
:102BDC00983B010810B582B01A4BBFF35B8F53E8DA
:102BEC00002F511C43E800100028F8D1BFF35B8F75
:102BFC00154B1B7863B9154B1B68B3B1BAB1092AD5
:102C0C0013D113480CF051FC124806F06BFE0CE08B
:102C1C00EFF31184102383F31288BFF36F8FFFF748
:102C2C004BFF84F31188BFF36F8F02B010BD0022ED
:102C3C000023CDE9002342F210720023044807F070
:102C4C00CBFFF2E7BC09002446200024B409002481
:102C5C00E8060024EC01002410B50446044B1B6864
:102C6C009847A0602146034809F069FE10BD00BFDB
:102C7C0004000024940100242DE9F04100210846B1
:102C8C00FFF7A4FD804650B14FF4FA76002710F000
:102C9C00BBF9154B1858FFF7E3FD002515E04FF075
:102CAC00FF364FF0FF37F2E74046FFF75DFD8046F9
:102CBC0070B94FF0FF364FF0FF3709E02C46324623
:102CCC003B460A4806F054FE2546B8F1000FEBD1FE
:102CDC00FFF7F2FE04460028F6D1002DEED00021BD
:102CEC000846FFF705FDEAE708000000EC010024A8
:102CFC000248034BC01AC008704700BF883B01084C
:102D0C00A83A010810B50C46FFF7F2FFA04203D910
:102D1C00024B53F8340010BD0020FCE7A83A010820
:102D2C0000B589B0059206930023079362B1074A58
:102D3C000C9B02930B9B01930A9B009305ABFFF733
:102D4C005DF909B05DF804FB0022F1E771C90008D8
:102D5C002DE9F04F8BB004AF05461E468846C1F3F3
:102D6C004A24002C00F0988091460022FA603A61C7
:102D7C007A6104230293FB1801930A23009307F151
:102D8C000C0321464846FFF739F9B0F5006F67D3BD
:102D9C00D9F804C06C4600233B7302237B738AB0C2
:102DAC0004AD15F1100226D01221131E18BF0123F9
:102DBC0008460429D4BF002603F001060EB1404991
:102DCC00696100213970022179700828D4BF002173
:102DDC0003F0010109B1C5F818C00C28D4BF0023B9
:102DEC0003F0010313B140F2FF73EB6182B105F103
:102DFC00200300210AE06FF00041D6E701F118062C
:102E0C003E4416F8186C03F8016B01310129F5D911
:102E1C00112822DD122342B1042139730021797368
:102E2C00B9730121F973F868286100216FF300016F
:102E3C006FF341016FF382016FF3C501022060F360
:102E4C008811C3F30A0363F353210023C1F3130165
:102E5C001C4809F00AFEA5462DE06FF01B03DAE7CB
:102E6C0060F35328C0F30A0A0AEB1850173020F00D
:102E7C0007008008FFF7FEFD8346B0B104230293E0
:102E8C00FB1801930A230093534600F110022146CC
:102E9C004846FFF745FF08E004EB1154173424F0C3
:102EAC000704A008FFF7E6FD834633464246294651
:102EBC00584609F070FD1C37BD46BDE8F08F00BFC9
:102ECC000C420108103B01082DE9F04F85B08046FB
:102EDC000D4617461E46DDF838A0DDF84090B9F1D6
:102EEC00000F3CD0119B039300934B460F9A10217B
:102EFC000020FEF721FEB0F5006F28D283460AEBC6
:102F0C000003173323F0070300246FF300046FF35F
:102F1C0041046FF3820468F3C50467F3881460F30B
:102F2C0053246AF31F549808FFF7A4FD074600B119
:102F3C001030002818BFB9F1000F12D133462246C9
:102F4C002946384609F027FD05B0BDE8F08F40F260
:102F5C00FF73084A0221084809F06FFDF4E70020CE
:102F6C00CCE7119B00934B460F9A5946FEF7E4FDB4
:102F7C00E4E700BF4C420108103B0108406820B157
:102F8C00034BC01A40F3CF0070474FF0FF3070472F
:102F9C00A83A01080EB400B582B0014603AB53F851
:102FAC00042B0193034801F041F802B05DF804EBE7
:102FBC0003B07047ADCA000810B584B011F0440FCF
:102FCC0005D01A4B1B6833B9002004B010BD18494A
:102FDC00FFF7E0FFF9E717490968B2FBF1F2B2FB22
:102FEC00F3FC03FB1C224FF47A7E0EFB02F2B2FBC5
:102FFC00F3F403FB14210EFB01F1B1FBF3F10E4AC8
:10300C00A2FB0C32D20A4FF4616303FB12CC0B4BC4
:10301C00A3FB0CE35B0902910194C3EB0311ACEB32
:10302C00810100910649FFF7B5FFCEE7C8090024DE
:10303C0084420108C4090024C5B3A29189888888F8
:10304C009042010861B108B52AB1064A52F8232012
:10305C0012B9054A00E0044A0449FFF79BFF08BD7A
:10306C00704700BF30430108AC420108CC40010856
:10307C002DE9F04180461746069D079EC1B90024F4
:10308C002DB12A4610494046FFF784FF044466B12F
:10309C00099B042B14BF002707F001078FB10B49C4
:1030AC0032464046FFF776FF04442046BDE8F081E7
:1030BC00074B099A53F822200649FFF76BFF044689
:1030CC00DEE70549ECE700BFC8420108B44201083D
:1030DC0044430108C0420108B84201082DE9F04FF1
:1030EC0087B005460C46049205939DF84C7001F090
:1030FC00020B01F0010AC1F3C00801F4807909F058
:10310C0024FC18B3024616492846FFF743FF06462F
:10311C00BBF1000F1CD13A465146284609F0EBFC96
:10312C00B9F1000F01D0002311930397129B029366
:10313C00119B0193109B00930023049A414628464F
:10314C00FFF796FF304407B0BDE8F08F0026DFE7AD
:10315C00059A21462846FFF72FFF0644DBE700BF00
:10316C00CC42010811F0100F0BD108B511F0200F53
:10317C0003D00449FFF70EFF08BD0349FFF70AFF10
:10318C00FAE77047D83E0108D04201082DE9F0411A
:10319C0005460F46164698460699FFF7E3FF0024AE
:1031AC00444505DA24492846FFF7F4FE0134F7E7D5
:1031BC00002409E020492846FFF7ECFE0BE01F49EC
:1031CC002846FFF7E7FE01340F2C0CDC002C02DD47
:1031DC0014F0070FEED0B442F1D23A5D18492846EC
:1031EC00FFF7D8FEEFE717492846FFF7D3FE002478
:1031FC0009E011492846FFF7CDFE0BE0124928469D
:10320C00FFF7C8FE01340F2C13DC002C02DD14F088
:10321C00070FEED0B44207D23A5D0C4B9B5C13F017
:10322C00970FEBD12E22E9E703492846FFF7B2FEB0
:10323C00E8E7BDE8F08100BFC4420108DC420108A8
:10324C00D4420108E0420108E44201080982010865
:10325C002DE9F04184B004469DF82C500C9F0E9E35
:10326C0095B9012B1ED019484FF0000827B13B46E9
:10327C002246174908F0A8FFC6B905BB204609F03D
:10328C00F8FB04B0BDE8F08103950A980290019315
:10329C0000920B4600220F992046FFF71FFF804635
:1032AC000C48E3E70B484FF00008DFE70F9B009357
:1032BC00434632460D99204609F035FCDDE72A4697
:1032CC000F99204609F023FCD8E700BFE5CA000897
:1032DC0039400008ADCA00082DE9F04383B006461A
:1032EC00056842F20F738B4228BF0B46184A052122
:1032FC00684608F027F804467368D3F804900B2747
:10330C00DFF8508005E04A4639464046A8473F1A48
:10331C008044002FF7D17368D3F804806F4605E022
:10332C00424621463846A847241A0744002CF7D1B8
:10333C0073685F681B24084E05E03A462146304608
:10334C00A847241A0644002CF7D103B0BDE8F0833B
:10335C00CC3C010804430108E8420108074B012258
:10336C001A6004E04008054A13685B001360044BC4
:10337C009842F7D8034B1860704700BFC40900246B
:10338C0040420F00C809002470B506460D460024C3
:10339C0005E0315D044883685B6898470134AC42B2
:1033AC00F7D3284670BD00BFC833010884460023FC
:1033BC0000E00133074A12689A4208DD1A010649F7
:1033CC00096801EB03108A5C6245F2D100E0002031
:1033DC00704700BFAC4301081000002438B50C4BFB
:1033EC001B685BB10C46FFF7E1FF054648B1C068AE
:1033FC000BF044FC40B12560002038BD6FF00C0090
:10340C00FBE76FF00100F8E76FF01200F5E700BF83
:10341C001000002408B50348034A121A002109F0D1
:10342C0072FC08BD600200244C20002408B506483C
:10343C00064A121A064909F06AFC0648064A121A8C
:10344C00064909F064FC08BD000000245C0200245D
:10345C0018830108000000240000002418830108D0
:10346C002DE9F04383B000AF0446D0F80090D0F8BB
:10347C000480D0F808E06D468AB0694611F110025C
:10348C0000F0B5801426131E18BF01233046042EFD
:10349C00D4BF4FF0000C03F0010CBCF1000F01D0B5
:1034AC00594E4E610828D4BF002603F001060EB118
:1034BC00C1F818900C28D4BF002603F001060EB1F9
:1034CC00C1F81C801028D4BF002303F001030BB1FA
:1034DC00C1F820E0132840F38D8014233AB1052065
:1034EC00387100207871B871F87178680861002122
:1034FC006FF300016FF341016FF382016FF3C501AC
:10350C00012060F38811C3F30A0363F353216FF3B3
:10351C001F5100233D48FFF71BFCAD46D4F80C901F
:10352C00D4F81080D4F814E06D468AB0694611F1D5
:10353C00100262D01426131E18BF01233046042E2D
:10354C00D4BF4FF0000C03F0010CBCF1000F01D004
:10355C002F4E4E610828D4BF002603F001060EB191
:10356C00C1F818900C28D4BF002603F001060EB148
:10357C00C1F81C801028D4BF002303F001030BB149
:10358C00C1F820E013283BDD14233AB10520387133
:10359C0000207871B871F8717868086100216FF3B8
:1035AC0000016FF341016FF382016FF3C5014FF01E
:1035BC00010868F38811C3F30A0363F353216FF313
:1035CC001F51124E00233046FFF7C2FBAD46E36994
:1035DC00104A4146304609F030FAA3690E4A41467A
:1035EC00304609F02AFA0C37BD46BDE8F0836FF07F
:1035FC00004648E76FF01B0370E76FF000469AE750
:10360C006FF01B03C1E700BFD8430108603B010802
:10361C0008440108384401084844010838B50446F8
:10362C000D4611B10846FFF71BFF012C04D02946AB
:10363C00204605F005FE38BDEFF30583103B034A29
:10364C000121034809F0F9F9F1E700BF78440108BA
:10365C00603B010830BFFFF7FDBF00BF38B5044623
:10366C00054D2A4605490DF0C7FA054A0021601997
:10367C000DF0F5F938BD00BF00000000983B0108C3
:10368C000800000070B50646054D064B1D444C1B4A
:10369C002046FFF7E3FF083CB46605F1080070BD57
:1036AC000000000008000000054B5A699B689A4214
:1036BC0004D0044A536843F080535360704700BFF2
:1036CC00A40E002400ED00E081690D4B5A6942F410
:1036DC0080725A61BFF34F8FBFF36F8F31F8021CAA
:1036EC005A6922F480725A61BFF34F8FBFF36F8F08
:1036FC004DF60273994201D00020704701207047AB
:10370C0000ED00E04FF0000C83F800C002F07F4C9D
:10371C00BCF17F4F14D102F00C0CBCF1080F04D09B
:10372C0012F0080F09D00846704708B5054A012168
:10373C00054809F078F9002008BD01221A7070477D
:10374C00002070478C440108603B010808B52A4AE8
:10375C0001212A4809F067F9294B9B6A13F0007F75
:10376C001FD11D20264B9B6A13F0807F20D1244B48
:10377C009B6A13F4002F22D1214B9B6A13F4802FE8
:10378C0024D11F4B9B6A13F4003F26D11C4B9B6A20
:10379C0013F4803F28D11A4A916A1A4B0B43936257
:1037AC0008BD194A0121154809F03DF91E20D9E739
:1037BC00164A0121114809F036F91F20D7E7144A9F
:1037CC0001210E4809F02FF92120D5E7114A0121DA
:1037DC000A4809F028F92220D3E70F4A01210748AB
:1037EC0009F021F92320D1E70C4A0121034809F003
:1037FC001AF92420CFE700BFB8440108603B010848
:10380C0000ED00E00000FFFFD0440108E444010893
:10381C000045010820450108484501086445010898
:10382C0008B500230B70034A0121034809F0FBF88B
:10383C0008BD00BF90450108603B0108B0B582B0DF
:10384C0000AF0F2933DC374D103900233B710223B5
:10385C007B718AB0EC461CF110022AD04FF0120E8C
:10386C00131E18BF01237046BEF1040FD4BF0024F1
:10387C0003F0010414B12C4CCCF8144000243C701F
:10388C0002247C700828D4BF002403F001040CB17E
:10389C00CCF818500C28D4BF002303F001030BB153
:1038AC00CCF81C109AB10CF1200300210DE01F4D37
:1038BC00CAE76FF0004ED3E701F1080404EB070EE2
:1038CC001EF808EC03F801EB01310129F4D9112899
:1038DC0024DD12234AB10421397100217971B971A7
:1038EC000121F9717868CCF8100000216FF3000108
:1038FC006FF341016FF382016FF3C501012060F397
:10390C008811C3F30A0363F353216FF31F51002390
:10391C000748FFF71DFA0837BD46B0BD6FF01B0313
:10392C00D8E700BFB4450108E8450108CC450108BB
:10393C00603B0108F8B505460F461446394A01218B
:10394C00394809F070F8394B9B6A13F0100F31D1DC
:10395C001026364B9B6A13F0080F32D1334B9B6AFF
:10396C0013F0020F34D1314B9B6A13F0010F4BD182
:10397C002E4B9B6A13F0200F4DD12C4B9B6A13F0EE
:10398C00100F01D1294B9B6A284B9B6A13F0200F17
:10399C0004D0264A536A23F400535362234A936A91
:1039AC0043F0FF0393620121284609F0C0F920700F
:1039BC003046F8BD1E4A01211B4809F034F8112687
:1039CC00C7E71C4A0121184809F02DF81226C5E753
:1039DC00194A0121144809F026F8144A536B926ACB
:1039EC0012F0800F01D11326BDE7144A01210E48B5
:1039FC0009F023F837B10D4A936A23F080039362E0
:103A0C001326B0E71326AEE70D4A0121064809F04C
:103A1C000AF81426ACE70B4A0121034809F003F815
:103A2C001526AAE7FC450108603B010800ED00E003
:103A3C0014460108484601085C4601087446010812
:103A4C008C460108AC460108F8B505460F461446ED
:103A5C00374A0121374808F0E6FF374B9B6A13F4CD
:103A6C00805F25D11626344B9B6A13F4006F26D148
:103A7C00314B9B6A13F4007F28D12F4B9B6A13F4B4
:103A8C00806F3FD12C4B9B6A13F4807F41D12A4B22
:103A9C009B6A13F4005F43D1274A936A43F47F4334
:103AAC0093620121284609F042F920703046F8BD96
:103ABC00224A01211F4808F0B6FF1726D3E7204AF7
:103ACC0001211C4808F0AFFF1826D1E71D4A01213F
:103ADC00184808F0A8FF184A936B926A12F4004F2A
:103AEC0001D11926C9E7184A0121124808F0A5FF8F
:103AFC0037B1114A936A23F4004393621926BCE749
:103B0C001926BAE7114A01210A4808F08CFF1A2637
:103B1C00B8E70F4A0121074808F085FF1B26BBE7D1
:103B2C000C4A0121034808F07EFF1C26B4E700BFB5
:103B3C00DC460108603B010800ED00E0F44601089A
:103B4C004846010808470108244701083C4701087A
:103B5C0058470108AC46010870B506460D462B4A7D
:103B6C0001212B4808F05FFF00232B70294BDC6AE6
:103B7C0014F002040AD1274BDB6A002B0DDB254B1A
:103B8C00DC6A14F080440ED1204670BD224A01211B
:103B9C001F4808F048FF0024F6E7204A01211C4882
:103BAC0008F041FFF0E71E4A0121194808F03BFFDD
:103BBC003046FFF789FD98B9164B9B6A13F0FF0F3F
:103BCC0016D1144B9C6A14F47F4418D1114B9B6A88
:103BDC00B3F5803FD8D33046FFF7B8FD0446D3E7A2
:103BEC003368104A01210A4808F027FF3468CBE7F4
:103BFC002A4601213046FFF79DFE0446C4E72A46BB
:103C0C0001213046FFF720FF0446BDE7704701084D
:103C1C00603B010800ED00E088470108AC47010853
:103C2C00BC470108DC47010830B58BB01D4B5D6803
:103C3C00C5F30805002383F31188BFF36F8F0DF1D3
:103C4C002603FFF75FFD04460DF12702294609F014
:103C5C0070F89DF827300BB10BB030BD05460DF157
:103C6C00040C20686168A268E368ACE80F00206966
:103C7C006169A269E369ACE80F009DF8263043B195
:103C8C00089BC3F3080242B940F2FF121A43089290
:103C9C0003E0054B089A1340089301A92846FFF747
:103CAC00BDFCD9E700ED00E000FEFFFF044B5A69B4
:103CBC0042F010025A615A6922F008025A617047A8
:103CCC0000ED00E0EFF30880EFF3098101B57246D7
:103CDC00FFF7AAFF01BD00BF0B4880F3088808F06E
:103CEC00D9FD102080F3118808484FF4006140186A
:103CFC0080F30988EFF314800221084380F31488C1
:103D0C00BFF36F8F00F088F8903C00245023002400
:103D1C0008B50A4B9B68834202D006F035FC08BDFF
:103D2C00EFF30583002BF8D0054B5A6842F0805214
:103D3C005A605A6A22F400425A62EEE7A40E00243A
:103D4C0000ED00E011498A684FF030001044EFF3A9
:103D5C00098C80E8F01F102080F31288BFF36F8F5E
:103D6C000B4F4FF000664A698A603E60906E094CBA
:103D7C002060D06E0023D36680F3118802F13000EE
:103D8C0090E8F01F8CF3098870470000A40E002403
:103D9C0004ED00E0FC0900241EF0040F0CBFEFF34F
:103DAC000880EFF30980816911F8021C0229FFD009
:103DBC0001B5724608F0AFFF01BD00BF002807DB5C
:103DCC0000F01F02400901239340024A42F82030C0
:103DDC00704700BF00E100E0002804DB0901C9B214
:103DEC00044B1954704700F00F000901C9B2024B83
:103DFC001954704700E400E014ED00E0044B23F08C
:103E0C007F03044A9360BFF34F8FBFF36F8F7047EC
:103E1C000000000800ED00E008B5FFF7EFFF0C4ACA
:103E2C00D2F8883023F47003C2F88830EFF314838F
:103E3C0023F0040383F31488BFF36F8FFFF7EAFAC0
:103E4C00FFF7F4FA00F048F808F0C0FF05F01AFC90
:103E5C0000ED00E010B4A2F120040D4942F8081C5A
:103E6C0021F0010142F8081C42F8203C019B42F869
:103E7C001C3C029B42F8183C039B42F8143C4FF04C
:103E8C00807342F8043C04650023C36610BC704781
:103E9C001125000800B50E4615460A4B9860826E37
:103EAC00094B1A602C4686F309880020034B98476F
:103EBC002046002100220023014C2047B1CD0008F0
:103ECC0011250008A40E0024FC090024014B10222B
:103EDC001A61704700ED00E0002306E002F00F02CB
:103EEC000849114410220A760133A22B08DC1AB2BD
:103EFC00002AF3DB04491144102281F80023F3E774
:103F0C00704700BFFCEC00E000E100E008B5EFF307
:103F1C000583103B044A02EBC301496852F8330095
:103F2C008847FFF7C1FB08BD68340108184B5B6973
:103F3C0013F4803F2AD110B4154B0022C3F884200F
:103F4C00BFF34F8FD3F88040C4F34E3000E01846D7
:103F5C00C4F3C90243F6E07303EA401343EA8273E5
:103F6C000B49C1F860321346013A002BF2D1431EC3
:103F7C000028ECD1BFF34F8F4B6943F480334B6176
:103F8C00BFF34F8FBFF36F8F10BC7047704700BFEC
:103F9C0000ED00E0002910DD034600F01F00014495
:103FAC00BFF34F8F064AC2F86832203320390029FC
:103FBC00F8DCBFF34F8FBFF36F8F0020704700BF4B
:103FCC0000ED00E0002910DD034600F01F00014465
:103FDC00BFF34F8F064AC2F85C32203320390029D8
:103FEC00F8DCBFF34F8FBFF36F8F0020704700BF1B
:103FFC0000ED00E00C4B5B6913F4003F13D1BFF3F1
:10400C004F8FBFF36F8F084B0022C3F85022BFF3C2
:10401C004F8FBFF36F8F5A6942F400325A61BFF36E
:10402C004F8FBFF36F8F704700ED00E030B587B056
:10403C000D461146002400940194029403940494B8
:10404C00059402228DF80220044A019204900595F1
:10405C001A46684607F0A0F907B030BDDBCD000862
:10406C0008B5024B1B689847002008BD000A0024C5
:10407C00034B1860034A937843F002039370704724
:10408C00000A00241400002408B5054808F0F9F8CB
:10409C00002383F31188BFF36F8F0423184602DFCC
:1040AC00F847010808B54FF0FF324FF0FF330248D4
:1040BC0008F098FE08BD00BF2400002408B505498F
:1040CC0021F00701044A521A044807F0C6FF0020E9
:1040DC0008BD00BF5F4A002400000524040A002428
:1040EC0038B50446FFF7DEFF224608210A4807F0E0
:1040FC002BFF0546B0FA80F04009002C08BF0020C9
:10410C0020B10EF081FF054B0C221A50044805F02B
:10411C0093FB284638BD00BF040A00240C000000A5
:10412C002400002410B50446FFF7BCFF21460348C9
:10413C0007F0B4FE024805F07FFB10BD040A002412
:10414C00240000242C22024B02FB0030704700BFDD
:10415C000402002410B508F069FE054B1C6804E04D
:10416C0004F10C0005F066FD2468002CF8D110BD9C
:10417C00100A002410B508F059FE054B9C6804E0A9
:10418C0004F10C0005F056FD2468002CF8D110BD8C
:10419C00100A0024002399420ADD10B400EB030C32
:1041AC00044C24F81C2001339942F7DC10BC7047F6
:1041BC00704700BF38000024F8B50746002401E022
:1041CC000134E4B27B78A34217D93D7866193046A6
:1041DC0000F0CAF80028F3D0304600F0FBF8074B8B
:1041EC0053F83620002AEBD006F01F0503EBC6036C
:1041FC0059680120A8409047E2E7F8BD200A002446
:10420C0001F0030C0CF102020B4B53F822200B0CA7
:10421C0022EA114193FAA3F35BB1B3FA83F303F0EF
:10422C001F03984001430CF1020C034A42F82C1076
:10423C0070472023F3E700BF0004005800F003038D
:10424C000233084A52F82320030C02EA104093FA76
:10425C00A3F32BB1B3FA83F303F01F03D8407047D9
:10426C002023F9E70004005808B5034688B1B0FADA
:10427C0080F2C2F11F02D2B2074931F912004FF09D
:10428C00B042D2F880100B43C2F8803008F076FDB3
:10429C0008BDFF22F0E700BF3800002410B498B12D
:1042AC00B0FA80F3C3F11F03DBB29C460D4850F803
:1042BC00330088420AD088B90A4B43F83C1003EB10
:1042CC00CC035A6010BC7047FF23EEE7054C04EB9F
:1042DC00C3035B689342EED10020F3E76FF00F004D
:1042EC00F0E700BF200A002460B1B0FA80F3C3F1FC
:1042FC001F03DBB2044A002142F8331002EBC30265
:10430C0051607047FF23F5E7200A002400B583B005
:10431C0012480AF0B3FCA8B1002300930193BDF836
:10432C000030F42262F30B03ADF80030022301934A
:10433C000A4B9B681B686BB169460848984703B0E9
:10434C005DF804FB064A0121064808F06CFB6FF08F
:10435C001200F4E76FF05700F1E700BFE8310108F5
:10436C00D4480108E03A010808B500F01F02012307
:10437C0093405F2809D81F2811D84FF0B042D2F8CB
:10438C008820934309D0002008BD03460F4A012121
:10439C000F4808F052FB0020F6E70120F4E73F2815
:1043AC0009D84FF0B042D2F89820934301D00020A6
:1043BC00EAE70120E8E74FF0B042D2F8A820934397
:1043CC0001D00020E0E70120DEE700BFBC48010877
:1043DC00E03A010808B500F01F02012393405F2862
:1043EC0007D81F280ED84FF0B042C2F888300020F2
:1043FC0008BD03460A4A01210A4808F01EFB6FF06B
:10440C001500F5E73F2805D84FF0B042C2F89830B8
:10441C000020EDE74FF0B042C2F8A8300020E7E7EB
:10442C00BC480108E03A01082DE9F041069CB4F8BB
:10443C0004C06588AC441FFA8CFC9D885E883544AA
:10444C00ADB286B201FB00FE364FA7FB0E7ECEF35B
:10445C008F1EA6EB0E0E1FFA8EFEDF88774541D21B
:10446C00B4F80680F04528BFF046A6EB080E1FFAFC
:10447C008EFE0EF1FF3E1FFA8EFEF44534D2A6EBF3
:10448C000C081FFA88F808F1FF381FFA88F8E5883D
:10449C00454540D3A2F806804FEA5C05B3F802E02C
:1044AC00BEEB5C0F04D2B4F802E0AE4528BFAE46BA
:1044BC00A2F802E0ACEB0E0E1FFA8EFEA2F804E09E
:1044CC00A488A6451DD99480ACEB040454804FF409
:1044DC007A730CFB0333B3FBF0F0814219D2401A10
:1044EC00BDE8F081B846C0E7754508D9761BB6B271
:1044FC00013E1FFA86F8474510D8AC46CAE7F44689
:10450C00C8E79B889E45E2D29380ACEB03035380B3
:10451C00DDE7081AE4E76FF08500E1E76FF085004E
:10452C00DEE700BFD34D6210074B984205D8074B0E
:10453C00984205D94FF44870704740F2EE2070470E
:10454C0040F26B30704700BF00350C0020A1070013
:10455C0070B582B014461D4682688368064EB4421C
:10456C0007D830323A330195009408F01BFD02B0A5
:10457C0070BD6FF01500FAE740420F0070B582B0C5
:10458C0014461D4682688368064EB44207D84832EA
:10459C0052330195009408F005FD02B070BD6FF028
:1045AC001500FAE700127A002DE9F04782B00646B2
:1045BC0089469046D0F804A0DAF81C50076900240C
:1045CC00009401941968224661F31C0200925A6807
:1045DC00234662F31C0301939DF80730022262F319
:1045EC0087138DF8073010374FF0FF324FF0FF3341
:1045FC00384605F0A1F800E00134AB7BA34205DDA1
:10460C00AB6853F83430002BF6D101E06FF01B048B
:10461C0014F11C0F27D014F0010F2DD002229DF89D
:10462C00033062F347138DF80330BAF8341001EB02
:10463C00C40173689B69D3F80CA008236A4689B23D
:10464C003046D0470646C8B9384605F0F5F8AB6891
:10465C0043F83490AB6803EBC403C3F804802046E2
:10466C0002B0BDE8F087094A0221094808F0DBF9DD
:10467C00384605F0E1F8F2E70122D0E70346054A97
:10468C000121034808F0D9F93446E8E72C49010820
:10469C00B83A01084C49010830B583B00C46436860
:1046AC009B691B689847054610B9284603B030BD76
:1046BC0000902346024A0121024808F0C9F9F4E7A8
:1046CC0078490108B83A010830B583B00C46436804
:1046DC009B695B689847054610B9284603B030BD06
:1046EC0000902346024A0121024808F0B1F9F4E790
:1046FC009C490108B83A01082DE9F04F85B00546F0
:10470C004668D6F81C80076901AAF421FFF7C4FF9C
:10471C0000283CD1019C14F03F0F38D0C4F3042482
:10472C00B18F01EBC4016B689B69D3F80890082327
:10473C000DEB030289B22846C847034610BB9DF80F
:10474C000F902246F8212846FFF7BEFFF8B9D8F89B
:10475C00003003EBC90253F839A0D2F804B000249E
:10476C0043F8394007F1240005F0BCF85A462146BD
:10477C002846D04701AAF4212846FFF78DFF0028D0
:10478C00C8D004E0034A0121034808F056F905B0EB
:10479C00BDE8F08FC0490108B83A01082DE9F04F87
:1047AC0097B006468846174699464368D3F81CA02E
:1047BC004822002102A80CF052F901AA39463046D1
:1047CC00FFF76AFF002834D017B0BDE8F08F5B4AC2
:1047DC0001215B4808F031F9F6E79DF80D1041F026
:1047EC0010018DF80D1065E0BDF85220C2F38A025D
:1047FC00029270E09DF80D3013F0010F00F08F80E5
:10480C00DAF8083003EBCB0253F83B30526813B1A3
:10481C0002A930469847224649463046FFF754FFD6
:10482C000028D1D101AA39463046FFF735FF0028C0
:10483C00CAD1019C14F07F0FC6D0C4F3052404EB3D
:10484C00C40508EBC505ADB273689B69D3F808B015
:10485C00082314AA29463046D84703460028B6D167
:10486C009DF85630C3F3030203F00F038DF80C20B0
:10487C009DF8532012F0200F05D09DF80D1041F03B
:10488C0002018DF80D109DF8561011F0200F05D077
:10489C009DF80D0040F004008DF80D0011F0100F84
:1048AC0005D09DF80D1041F008018DF80D1012F097
:1048BC00800F92D19DF857B00BF07F0B12F0400F88
:1048CC0092D0149AC2F31C0202929DF80D2042F071
:1048DC0001028DF80D200F2B28BF0F23194AD35C32
:1048EC00402B24D89DF80D2012F0020F82D1002B02
:1048FC0080D005F10801033372689269956803F45E
:10490C00FE7304AA89B23046A847034600283FF438
:10491C0071AF0D4A01210A4808F08FF854E7DAF814
:10492C00043003EBCB0253F83B3052686FE7074A75
:10493C000121034808F077F86DE700BFE84901084A
:10494C00B83A0108284E0108104A0108384A0108F3
:10495C00F0B583B00446056910354FF0FF324FF0C7
:10496C00FF33284604F0E8FE01AA18212046FFF781
:10497C0093FE064628B1284604F05EFF304603B08D
:10498C00F0BD019A22F01002019218212046FFF787
:10499C009BFE06460028EED103F010FE074601AA46
:1049AC0018212046FFF778FE06460028E3D1019B2C
:1049BC0013F0080FDFD003F001FEC01B0C4B984224
:1049CC0008D801AA18212046FFF766FE06460028E3
:1049DC00EDD0D0E7019A42F0100201921821204646
:1049EC00FFF772FE06460028C5D16FF00A06C2E733
:1049FC00C03B470370B505692B793BBB06460C469B
:104A0C0010354FF0FF324FF0FF33284604F094FE80
:104A1C002288013AA388013B1B0203F47F4343EA3B
:104A2C004263E288013A02F07F0213432189013983
:104A3C00084A02EA01421A431C213046FFF744FEA1
:104A4C000446284604F0F8FE204670BD6FF00F04B3
:104A5C00FAE700BF0000FF01F8B547680669337933
:104A6C0043BB0446386828B183681B683168984793
:104A7C00054658B94FF47A720023204608F099FB8A
:104A8C00054650B9012333712846F8BD03460B4A3D
:104A9C0001210B4807F0D1FFF6E70346094A012133
:104AAC00074807F0CAFF38680028EDD083685B68B8
:104ABC009847E9E76FF07705E6E700BF4C4A010835
:104ACC00B83A0108784A01082DE9F04182B00D4648
:104ADC00066907291AD804463379002B61D106F1EF
:104AEC0010084FF0FF324FF0FF33404604F024FE25
:104AFC0001AA18212046FFF7CFFD074678B14046A2
:104B0C0004F09AFE384602B0BDE8F0810B46264A06
:104B1C000121264807F091FF6FF08507F2E76A46FE
:104B2C0010212046FFF7B8FD07460028E7D115F005
:104B3C00010F27D0019B43F080030193009B43F0AE
:104B4C001003009315F0020F21D0019B43F02003BA
:104B5C00019315F0040F1FD0019B43F44073019394
:104B6C00019A18212046FFF7AFFD07460028C6D151
:104B7C00009A10212046FFF7A7FD07460028BED15A
:104B8C003560BCE7019B23F080030193DAE7019BBE
:104B9C0023F020030193DCE7019B23F44073019382
:104BAC00DEE76FF00F07ADE79C4A0108B83A010841
:104BBC0030B583B00446456801AA5021FFF76CFD5F
:104BCC00E0B103B030BDA823A422E98E2046FFF744
:104BDC00E5FD21E0B823B422298F2046FFF7DEFD46
:104BEC001EE0164A0121164807F01DFF1CE001AA21
:104BFC0050212046FFF750FD0028E2D1019A12F017
:104C0C009902DED050212046FFF75EFD0028D8D156
:104C1C00019B13F0010FD6D1019B13F0100FD9D1CA
:104C2C00019B13F0080FDCD1019B13F0800FDED039
:104C3C00044A0121024807F0F6FED8E7B84A0108F9
:104C4C00B83A0108D04A010830B583B0044605696A
:104C5C0001AA5021FFF720FD00B303B030BD204660
:104C6C0008F0D5FB28E02046FFF746FD28E01D4A5A
:104C7C0001211D4807F0D7FE05F1240004F032FE97
:104C8C0022E01A4A0121184807F0CDFE20E001AAC3
:104C9C0050212046FFF700FD0028DED1144A019B6D
:104CAC001A40DAD050212046FFF70EFD0028D4D14F
:104CBC00019B13F0607FD2D1019B13F4805FD2D1A2
:104CCC00019B13F4004FD2D1019B13F0005FD8D19C
:104CDC00019B13F4003FDAD0064A0121024807F089
:104CEC00A2FED4E7E84A0108B83A0108004B0108D3
:104CFC000090823B1C4B01082DE9F04F89B0074610
:104D0C00884691460293D0F804B0DBF81C50066933
:104D1C0009790B460F2928BF0F23914A12F803A0DB
:104D2C0000230693079398F80530C3F340009DF8D1
:104D3C001B2060F345128DF81B20D2B263F3861250
:104D4C008DF81B209DF81E2061F303028DF81E20A8
:104D5C00C3F3C001D2B261F304128DF81E20C3F369
:104D6C008001D2B261F345128DF81E20D2B242F00E
:104D7C0080028DF81E200F2B37D8326812F0040FEA
:104D8C0002D113F00C0F38D1BAF1400F3DD813F00B
:104D9C00040F4DD098F804300F2B41D83379002BE9
:104DAC0000F0D58005A9384608F0FDF90446002826
:104DBC0040F0AE80059B13F0800F40F0CB8006F1E5
:104DCC002403184603934A46029B04F0D1FD044683
:104DDC00002840F0C28006F13C094FF0FF324FF042
:104DEC00FF33484604F0A8FC2FE05E4A01215E48E0
:104DFC0007F023FE6FF085048AE05C4A01215A48D3
:104E0C0007F011FE6FF0850482E0402300935346B7
:104E1C00574A0121544807F01BFE6FF0150477E048
:104E2C00544A0121504807F008FE6FF015046FE05A
:104E3C0098F80430082BB1D94F4A01214A4807F0A1
:104E4C00FCFD6FF0150463E001342B7BA34206DDFF
:104E5C002B68264653F83430002BF5D101E04FF087
:104E6C00FF368DF81F6098F8053013F0010F53D002
:104E7C00D8F80020069B62F31C030693BBF83E1087
:104E8C0006EBC603DB009BB2029319447B689B695B
:104E9C00DC68082306AA89B23846A04704460028D5
:104EAC0043D198F8053013F0020F16D1BAF1000F68
:104EBC0013D0BBF83E300299194489B208310AF17B
:104ECC0003037A689269D46803F4FE7308F108024C
:104EDC0089B23846A047044670BB2B68129A43F837
:104EEC0036202B6803EBC603139A5A600122B2409A
:104EFC00D0213846FFF7E8FB044620B32B6800228C
:104F0C0043F83620484604F097FC039804F0EAFC7A
:104F1C00204609B0BDE8F08FD8F80020BDF81A3053
:104F2C0062F38C03ADF81A30A8E70346134A01214B
:104F3C000D4807F082FDE5E70346114A01210A48B6
:104F4C0007F07BFDDEE7484604F076FCE0E76FF007
:104F5C007204DDE76FF07104DAE76FF00A04D7E74B
:104F6C00284E0108384B0108B83A01085C4B01087F
:104F7C00884B0108B84B0108DC4B0108004C0108B8
:104F8C002C4C01082DE9F04782B006468946904624
:104F9C00D0F804A0DAF81C50076900240194596871
:104FAC00BDF8042061F30A02ADF804201A68BDF8BC
:104FBC00063062F30A03ADF806309DF80730022282
:104FCC0062F387138DF8073010374FF0FF324FF034
:104FDC00FF33384604F0B0FB00E001346B7BA34296
:104FEC0005DD6B6853F83430002BF6D101E06FF01F
:104FFC001B0414F11C0F28D014F0010F2ED0022228
:10500C009DF8073062F3C5038DF80730BAF83210FB
:10501C0001EB840173689B69D3F80CA004230DEB9E
:10502C00030289B23046D0470646C8B9384604F068
:10503C0003FC6B6843F834906B6803EBC403C3F850
:10504C000480204602B0BDE8F087094A02210948D5
:10505C0007F0E9FC384604F0EFFBF2E70122CFE75A
:10506C000346054A0121034807F0E7FC3446E8E70C
:10507C00544C0108B83A01084C49010810B5446871
:10508C00E46993F808C0BCF1010F09D81CF0010FBA
:10509C000FD0FFF789FA00280DDB637B18440AE078
:1050AC006346054A0121054807F0C7FC6FF08500EF
:1050BC0001E0FFF767FF10BD744C0108B83A010816
:1050CC002DE9F041D0F80480D8F81C7006690C1E4C
:1050DC002ADB054610364FF0FF324FF0FF333046D7
:1050EC0004F02AFB7B7B9C422EDBE31ABA7B9A42B0
:1050FC0021DDBA68002142F83310BA6802EBC30212
:10510C005160B8F8341001EBC3016B689B691B69E3
:10511C00082289B228469847034650B31A4A0121FF
:10512C001A4807F08AFC24E02346194A0121174843
:10513C0007F083FC20E0164A0121144807F07DFC9F
:10514C00304604F079FB17E07B68002243F83420EA
:10515C007B6803EBC4035A60B8F8321001EB84018E
:10516C006B689B691B69042289B2284698470346E1
:10517C0020B9304604F060FBBDE8F081054A0121FE
:10518C00024807F05AFCF4E7B44C0108B83A01089D
:10519C00984C0108E04C01082DE9F8434468E56996
:1051AC0007693B79002B4CD006464FF47A720023EA
:1051BC0008F04DF8804660B9206820B183685B68C0
:1051CC009847044668B9304608F07EF900243C71D3
:1051DC001EE01D4A01211D4807F025FC6FF0040854
:1051EC002CE003461A4A0121184807F026FCA04679
:1051FC0024E0002143F834102B6813445A686FF0F4
:10520C0072013046C84707F1240004F06BFB0134EF
:10521C002B7B9C4207D22B68E20053F83490B9F1F7
:10522C00000FE6D1F3E710374FF0FF324FF0FF33AA
:10523C00384604F081FA384604F0FEFA4046BDE8E0
:10524C00F8836FF07708F9E70C4D0108B83A0108BC
:10525C00284D0108F8B504460F4615464668FFF779
:10526C0077FBD8B94FF47A720023204607F0EFFF92
:10527C00E0B9204608F028F9ED1B728E2A4422F082
:10528C0003021204120C738C1B0403F47F031A43E5
:10529C0084212046FFF718FA80B1F8BD404A01215D
:1052AC00404807F0C0FB6FF00400F6E73E4A0121CE
:1052BC003C4807F0B8FB6FF00400EEE7B28E2A44CE
:1052CC0022F003021204120CB38C1B0403F4FE0331
:1052DC001A4388212046FFF7F7F90028DDD1F28E1A
:1052EC002A4422F003021204120CF38C1B0403F464
:1052FC00FE031A43A0212046FFF7E6F90028CCD183
:10530C00328F2A4422F003021204120C338D1B0438
:10531C0003F4FE031A43B0212046FFF7D5F9002809
:10532C00BBD1728F2A4422F003021204120CAC215E
:10533C002046FFF7C9F90028AFD1B28F2A4422F0DA
:10534C0003021204120CB38D1B0403F47C131A43D6
:10535C00F0212046FFF7B8F900289ED1F38FEA1808
:10536C0022F003021204120CF38D1B0603F07C5383
:10537C001A4342F08042C0212046FFF7A5F90028CD
:10538C008BD10722C8212046FFF79EF9002884D133
:10539C0040F27772BC212046FFF796F97DE700BFFB
:1053AC00544D0108B83A01080C4D0108F0B589B00C
:1053BC0004464668F7690569002305930693ADF822
:1053CC001C3002930393ADF8103005F1100009F076
:1053DC00B3FC05F13C0009F0AFFC05F12400397B6E
:1053EC000A4609F05EFD306810B109F047FCB8B10F
:1053FC002046FFF7ADFAD8B94FF47A720023204655
:10540C0007F025FFE0B9204608F05EF801AA182144
:10541C002046FFF741F90346D0B1184609B0F0BD5C
:10542C005E4A01215E4807F0FEFA6FF01203F4E7C2
:10543C005C4A01215A4807F0F6FA6FF00403ECE7D6
:10544C00594A0121564807F0EEFA6FF00403E4E7DD
:10545C00019A22F46972019218212046FFF734F95F
:10546C0003460028D9D101AA10212046FFF714F9D0
:10547C0003460028D1D1019A22F01002019210218A
:10548C002046FFF721F903460028C6D101AA802146
:10549C002046FFF701F903460028BED1019A42F0DD
:1054AC002803019342F02B02019280212046FFF742
:1054BC000BF903460028B0D1F268338A05A92046BF
:1054CC00FFF746F810F1160F47D07269738A02A9DC
:1054DC002046FFF753F810F1160F46D005A92046C9
:1054EC0007F03BFE0346002847D102A9204607F0EF
:1054FC0045FE0346002848D12C4A019254212046EF
:10550C00FFF7E2F80346002887D19922019258212F
:10551C002046FFF7D9F8034600287FF47EAF03221C
:10552C0001925C212046FFF7CFF8034600287FF458
:10553C0074AF4FF0FF320192E0212046FFF7C4F820
:10554C00034600287FF469AF63689B691B69326C62
:10555C0000212046984703465FE7154A0121104871
:10556C0007F061FA6FF0040357E7124A01210C4867
:10557C0007F059FA6FF004034FE70F4A012108486E
:10558C0007F05BFA6FF0120347E70C4A012104485D
:10559C0007F053FA6FF012033FE700BF704D01089C
:1055AC00B83A0108544D01080C4D0108999082033A
:1055BC008C4D0108B04D0108DC4D0108FC4D010873
:1055CC0030B583B00C4643685D6C244809F056FB3B
:1055DC00D8B16B69012B28D9A96908311F4B9B687D
:1055EC00DB68D3B101AA1D489847002815DB1C4B7A
:1055FC005B6803F47022C3F30343B2F5803F26D2F9
:10560C00019B2360002003B030BD164A01211648CF
:10561C0007F009FA6FF01200F5E7144A012112485D
:10562C0007F001FA6FF00400EDE7A9690B4B9B68DA
:10563C00DB6823B101AA094898470028D7DA0C4A3D
:10564C000121094807F0EFF96FF00400DBE75B007C
:10565C00019AB2FBF3F222600020D4E7E831010892
:10566C0000A80040444E0108C03A0108644E0108ED
:10567C00904E0108F0B585B0064643685D6C4FF05E
:10568C00FF330393314809F0F9FA40B36B69012BEE
:10569C0017D9A96908312D4B9F68BB693BB3002210
:1056AC002A489847041E24DBA9690831FB6833B3E8
:1056BC0003AA26489847044618BB039B244A9342E6
:1056CC0025D8A969214B9B681B684BB31F48984789
:1056DC00044638BB2B7F5BBB204605B0F0BD1D4A92
:1056EC0001211D4807F09FF96FF01204F4E76FF0E9
:1056FC0057041A4A0121184807F095F9ECE76FF0A6
:10570C005704174A0121144807F08DF9E4E7009279
:10571C00144A0121104807F09BF96FF01204DBE7E3
:10572C006FF05704104A01210B4807F07CF9D3E7BE
:10573C00304607F0C9FE2B7F5B081B0403F4702373
:10574C0043F04003094A5360C6E700BFE831010843
:10575C0040597307444E0108C03A0108BC4E010879
:10576C00E84E0108044F0108344F010800A800401E
:10577C0070B5044643685E6C0021306907F0D1FEB9
:10578C0098B92046FFF776FF0546A8B9B26871684C
:10579C002046FFF75FFD054670B92046FFF706FE71
:1057AC00054648B9F368984706E005460346034AA0
:1057BC000121034807F041F9284670BD4C4F010800
:1057CC00C03A01080048704740787D0108B50B4B82
:1057DC001B6903F03803102B09D0182B09D1FFF7E4
:1057EC00F1FF01236E22052107F024FF02E004489B
:1057FC0000E00020022107F01AFF08BD0044025807
:10580C0040787D01074A936923F44043936100E09B
:10581C0033B9044B9B6913F40053F9D00123F7E718
:10582C000020704700480258074A936923F440430C
:10583C00936100E033B9044B9B6913F40053F9D026
:10584C000123F7E70020704700480258144BB3FBC4
:10585C00F0F0144B0344144A934202D80020086021
:10586C007047124B0344124A934203D801230B6036
:10587C00002070470F4B03440F4A934203D8022376
:10588C000B60002070470D4B03440D4A934203D22A
:10589C0003230B60002070476FF02100704700BF9E
:1058AC0040787D01C0BDF0FF40420F007F7BE1FFDF
:1058BC007F841E00FFF6C2FFFF083D00FFED85FF51
:1058CC0000127A000B88C3F30B0303F62C72C2F39D
:1058DC000B02202A10D810B483B0094A48689C588F
:1058EC00204398500B88C3F30B039B580193019BE7
:1058FC00002003B010BC70476FF08500704700BFEC
:10590C00004402580B88C3F30B0303F62C72C2F34A
:10591C000B02202A07D8054849681A5822EA0102C6
:10592C001A50002070476FF08500704700440258F1
:10593C0070B50C46154602215D4B186807F077FED2
:10594C000646022107F073FE2388C3F30B021346AD
:10595C00132A25D812B27AB1013B122B00F29F8088
:10596C00DFE803F04E5559525D9D9D6069727B8452
:10597C008D9D9D9D9D9698006FF085000FE003F620
:10598C002C73C3F30B03012202FA03F341F211123D
:10599C0013421FD113F4803F2ED16FF0850070BDE0
:1059AC00E42A0FD9F42A7DD8E82A10D3E83B0C2B33
:1059BC0072D8DFE803F01D7171711D7171711F7167
:1059CC0071712300D42ADAD26FF08500E7E76FF00B
:1059DC008500E4E72E602368B3F5805F65D32A6801
:1059EC00C3F313330133B2FBF3F22A600020D6E782
:1059FC002860F0E72860EEE72860ECE72860EAE72B
:105A0C00FFF7E4FE2860E6E72A4B2B60E3E74FF450
:105A1C0000432B60DFE74FF4FA432B60DBE7264BA8
:105A2C002B60D8E7FFF7CEFE01236E22052107F08D
:105A3C0001FE2860CFE7FFF7C5FE04236E22052187
:105A4C0007F0F8FD2860C6E7FFF7BCFE02236E22C4
:105A5C00052107F0EFFD2860BDE7FFF7B3FE052336
:105A6C005022194607F0E6FD2860B4E7FFF7AAFEBE
:105A7C0005235022194607F0DDFD2860ABE7FFF740
:105A8C00A1FE05235022194607F0D4FD2860A2E799
:105A9C002E60A0E72E609EE76FF085007FE76FF029
:105AAC0085007CE76FF0850079E7002077E700BF81
:105ABC005401002440787D01006CDC020F4B1B6804
:105ACC0013F0040F0ED10D4A136843F00103136059
:105ADC0001E0012B06D0094B1B6813F00403F8D02E
:105AEC000123F6E7054A136923F007031361034BFF
:105AFC001B6913F0380FFAD1704700BF00440258ED
:105B0C0030B583B0644B1B6903F03803182B5BD0A2
:105B1C00614B1A6822F080721A601A6822F0806257
:105B2C001A601A6822F080521A609A6A22F00302F4
:105B3C0042F002029A6201A90520FFF787FE0028B5
:105B4C00C0F2A780019C204607F07BFD524B9A6A5D
:105B5C0022F47C7242F050029A62DA6A22F00C0251
:105B6C0042EA8402DA62DA6A22F0020242EA400273
:105B7C00DA62196B494A0A4042F06D021A63DA6A1A
:105B8C0022F00102DA621A6B22F47E421A63DA6A9C
:105B9C0042F48032DA621A6B22F4FE0242F4403292
:105BAC001A63DA6A42F40032DA621A6B22F0FE42AD
:105BBC0042F080721A63DA6A42F48022DA621A685E
:105BCC0042F080721A6009E0FFF778FF324A93695D
:105BDC0023F00F0393619BE7012C06D02E4B1C681E
:105BEC0014F00074F8D00124F6E701A90520FFF7A2
:105BFC002DFE00284DDB019D284607F022FD264B8B
:105C0C009A6A22F47C3242F4A0429A62DA6A22F056
:105C1C00C00242EA8512DA62DA6A22F0200242EA13
:105C2C004012DA62996B1D4A0A4042F04F029A63A5
:105C3C00DA6A22F01002DA629A6B22F47E4242F4A3
:105C4C0000629A63DA6A42F40022DA629A6B22F4F6
:105C5C00FE0242F480229A63DA6A42F48012DA621B
:105C6C009A6B22F0FE4242F080629A63DA6A42F446
:105C7C000012DA621A6842F080621A6001E0012BAD
:105C8C0006D0054B1B6813F00063F8D02346F6E7EB
:105C9C00002003B030BD00BF0044025800FEFFFFDF
:105CAC0038B5244B1A6822F480221A601A6842F420
:105CBC0080321A6001E0012B06D01E4B1B6813F4D6
:105CCC000033F8D00123F6E71A494A6F42F001027B
:105CDC004A6701E0012D06D0164A556F15F00205F2
:105CEC00F8D01D46F6E7FCF759FC124B1A6F22F060
:105CFC0018021A671A6F42F001021A6701E0012CB0
:105D0C0006D00C4B1C6F14F00204F8D02C46F6E7AE
:105D1C00FCF76AFC074A136843F48053136001E0F4
