:020000040800F2
:10000000407B0024C93100087B8C0008B531000812
:10001000B5310008B5310008B53100080000000016
:100020000000000000000000000000009532000801
:10003000B53100080000000035320008094D000805
:100040004D3400084D3400084D3400084D3400088C
:100050004D3400084D3400084D3400084D3400087C
:100060004D3400084D3400084D3400084D3400086C
:100070004D3400084D3400084D3400084D3400085C
:1002CC0003685A004CBF43F0004323F0004318442A
:1002DC0070472DE9F0470646174641B30139884669
:1002EC004FF0000909EB080404EBD474641006EB1E
:1002FC00C4052846FFF7E4FFA1424FEAC40A04D123
:10030C00B84204D82846BDE8F087B84204D9A145C4
:10031C000DD004F1FF38E5E70AF108003044FFF78F
:10032C00CFFF0138B842EDD204F10109DAE700251C
:10033C00E8E7012806D0022806D00028034818BF99
:10034C00002070470248704702487047590900085E
:10035C005D090008610900081F4B37B504468D1E66
:10036C004BB101A92846AFF3008048B900230920FE
:10037C00236103B030BD1948194B1B1ADB100193D4
:10038C0001992A46FFF7A5FF01460028EED0FFF79A
:10039C0097FF4B68A064012B1AD0002B01F10400CD
:1003AC0010DBFFF78DFF0023C4E913030368002B58
:1003BC000ADAC3F30360FFF7BCFF03460028D5D06D
:1003CC000020D5E70123EFE7FFF77AFF0346F7E7B5
:1003DC0000230520CCE700BF0000000010CA000875
:1003EC00E8CA00080368DA0710B5044605D49B0771
:1003FC0000F1480018D500F0F9FB2368590703D425
:10040C0004F1D00000F0FAFB23681A0703D404F5BA
:10041C00A87000F0FBFB2368DB0608D404F5E87039
:10042C00BDE8104000F036BC00F0D8FBE5E710BD8D
:10043C00092070470346006800B1184470477047A4
:10044C0070B505460C46216C2846FFF785FF06461D
:10045C0008B103F067FA236C6B6122462B692946BD
:10046C00012098470828EED00728F2D13046216C9D
:10047C00FFF7E5FF201D00F0A5FB2DE9F0470C1D53
:10048C00D0F80C90D0F818A0074616460FCCADF556
:10049C00727D03AD0FC50FCC0FC50FCC0FC594E803
:1004AC000F000DF1080885E80F000025C8F8005072
:1004BC00D8F840103846FFF74FFF0936F6B204461D
:1004CC0068BBD8F840307B614FF4F07241467AA893
:1004DC000BF09EFB3B697AAA394630469847889BBD
:1004EC000546C8F844303A46CDE9008A3B463146C9
:1004FC000120C847C0B9C4B94FF4F0727AA940467C
:10050C000BF086FB082D2646D2D0072D0CD12046A9
:10051C00D8F84010FFF793FF03A800F053FBD8F86E
:10052C00383046F01006DCE7092420460DF5727DC4
:10053C00BDE8F087406C7047F0B5CB6B0B640D1DBC
:10054C0006460F460FCDF9B001AC0FC40FCD0FC44A
:10055C000FCD0FC495E80F0084E80F004FF0FF3368
:10056C00009310993046FFF7F7FE78B933696A4665
:10057C003146984708280446F3D06846FFF732FF07
:10058C00062C03D139463046FFF75AFF092079B0C3
:10059C00F0BD10B48261DA6BC16010BC1A641946EC
:1005AC0000226AE770B5C66843690B6404460D46C1
:1005BC0026B10122FFF761FF03F0B4F903690A4683
:1005CC00014602209847072805D00828F4D129466F
:1005DC002046FFF735FF3046296CFFF730FF281D0A
:1005EC0000F0F0FAC26802B9A6E7CA6B0A640022EE
:1005FC0043E77047836801460BB1012018477047E9
:10060C00012910B50446084605D005D9C81E012895
:10061C008CBF0220012010BD43B90F2A06D804EB71
:10062C008204029A616811601846F4E70220F2E72E
:10063C001FB503AB009300230A461946FFF7E0FFF2
:10064C00039805B05DF804FB012910B50446084673
:10065C0005D005D9C81E01288CBF0220012010BD71
:10066C0043B90F2A06D8029904EB82040968616029
:10067C001846F4E70220F2E71FB503AB0093002302
:10068C0003920A461946FFF7DFFF05B05DF804FB3D
:10069C00F0B5D36B1364141D06460F460FCCADF5A5
:1006AC000F7D17AD0FC50FCC0FC50FCC0FC594E840
:1006BC000F0085E80F004FF0FF331693269968461C
:1006CC00FFF74AFE90B90C2116A86A46FFF7D4FF33
:1006DC00394616A8B04748B9049B16AA69460820A3
:1006EC0098470528044602D00928E7D1092416A802
:1006FC00FFF778FE20460DF50F7DF0BD2DE9F04F8C
:10070C00CD6C87B0174655F8042B04950C4600F0B9
:10071C0003099A463BBB12028DF815300392032352
:10072C008DF81430236DB9F1020F08BFA56B13F0CF
:10073C00010322D100F0080800932B6843BB03A9E6
:10074C00384600F044FB002840F0FB80009BDBB1F6
:10075C000F213846FFF76CFF0E2102463846FFF793
:10076C008BFF794A55E0130C8DF815301204DBB26F
:10077C0005EB830503920223D2E703A9384600F068
:10078C0026FB002840F0DD80082007B0BDE8F08F84
:10079C00BAF1020F0CBFD5F804B0B5F802B0A26CD8
:1007AC0018BF2B8801930CBF05F108062E1D0F21D5
:1007BC002BF0010538461544FFF73AFF8542019BA3
:1007CC0029D823F001022A44824294BF002201223C
:1007DC004FEA4B0000F0020003F0010340EA03056E
:1007EC00012D1AD0022D5ED0002D40F0AA80351DAF
:1007FC00B9F1000FA1D0002A9FD03046FFF760FD61
:10080C00A56306462046AFF30080002800F09980CF
:10081C0032460F213FE00022DAE7B9F1000F26D172
:10082C00002A3DD073683268991C4FEAD27200F0EE
:10083C00888004F158010133029109D0301DFFF773
:10084C00F9FD02AB01462046AFF30080054638B3F4
:10085C000D213846FFF7ECFE022D029B206202D1DF
:10086C00E36204F12C03C4E9093606208DE70D215F
:10087C003846FFF7DDFE256A854211D1A36A9E42F8
:10088C000ED13046FFF71CFD0F2102463846FFF70C
:10089C00F3FE224600213846FFF7EEFE072074E7F0
:1008AC0006F1080549E7356825F00045B9F1000F58
:1008BC002AD1A2B1B8F1000F19D085B9CB4617E0F7
:1008CC000BF1010B019B029306EB8B00FFF7B2FDC2
:1008DC000022014602AB2046AFF3008058B13368CA
:1008EC00002B00DA0436013506EB850525E7C346F7
:1008FC0004F158030193AB45E2D10D213846FFF7C3
:10090C0097FE029B2062AEE70D213846FFF790FE62
:10091C00D4F820B08345E2D1A36A9E42DFD14FF0D8
:10092C00000B0423C4E90BB3F318A56263633368AB
:10093C005B4503DA681C06EB8000A3E701230093F8
:10094C00D1E7092021E700BF000000000023D5E615
:10095C000123D3E60223D1E62DE9F0410546C2B0CE
:10096C0014461E46042925D8DFE811F005001C00AA
:10097C002400D6000401EEB9836B92B2012104303D
:10098C0001FA06F717421CBF53F8047B40F8267097
:10099C000136102EF4D1A60400D4AB63002042B073
:1009AC00BDE8F081012E4FEA124794B204D13B19F5
:1009BC00102B41D90220F2E7052EFBD107EB0408DE
:1009CC00B8F1200FF6D80F2F4DD9002CE6D00368C4
:1009DC005807A04608D5284623F0040340F8D03B1E
:1009EC0000F010F90F2F48D9684600F00BF9AB6BEB
:1009FC00102F3A4642A938BF102201EBC2024FEA2F
:100A0C004808A2F5C47208F1FF38101F4FEA88019C
:100A1C0002EB88021C4654F804CB40F804CF824207
:100A2C00F9D10A1D012E134417D00F2FAB636FD9C8
:100A3C00684600F0E3F8B1E7102FBBD00368DA0783
:100A4C0005D523F0030340F8483B00F0CBF820A871
:100A5C0000F0C8F8AB6B002C3FD10433AB6320A87B
:100A6C0000F0BCF89AE7B8F1100F03682DD9DC0739
:100A7C00A8F1100842D45807ADD420A800F0BAF859
:100A8C00C7F11004684600F0BDF8640020AAAB6BF7
:100A9C0002EBC702013C101FA10002EB84021C46B2
:100AAC0054F804CB40F804CF9042F9D10A1D1344FA
:100ABC00B8F1000F9CD1012ECFD00F2FAB633FF6B6
:100ACC006DAF20A800F092F868E7D9070DD420A8E4
:100ADC0000F090F8AB6B002CF3D0640020AA02EB72
:100AEC00C702013C4FF00008D5E723F0010343F0A7
:100AFC00020340F8483B00F07DF8E8E723F00103DF
:100B0C0043F0020340F8483B00F074F82B68B2E75E
:100B1C0020A800F06BF88BE7032E7FF44BAF97B255
:100B2C0007EB1244102C4FEA12463FF643AF036812
:100B3C00190706D523F00803036000F5A87000F030
:100B4C0087F820A800F084F8AA6B20AB03EBC6034F
:100B5C00F900D41A03EBC707BB4203EB040005D121
:100B6C000A44AA6320A800F051F817E7006843F87C
:100B7C00040BF1E7002E7FF41DAF102A3FF61AAFDD
:100B8C000368DA0606D523F01003036000F5E8705D
:100B9C0000F08AF820AE304600F086F8AB6B0022ED
:100BAC00012101FA02F020421CBF53F8040B46F855
:100BBC0022000132042AF4D1AB63304600F06AF80B
:100BCC00ECE600BF00F1340191E838009C46A646E3
:100BDC004CF8045D90E8FF0FE54600BD90EC210B4E
:100BEC00704700BF80EC210B704700BF90EC200BCE
:100BFC00704700BF80EC200B704700BFD0EC200B7F
:100C0C00704700BFC0EC200B704700BFF0EC020136
:100C1C00F0EC0211F0EC0221F0EC0231F0EC0241AC
:100C2C00F0EC0251F0EC0261F0EC0271F0EC02819C
:100C3C00F0EC0291F0EC02A1F0EC02B1F0EC02C18C
:100C4C00F0EC02D1F0EC02E1F0EC02F1704700BFE5
:100C5C00E0EC0201E0EC0211E0EC0221E0EC0231EC
:100C6C00E0EC0241E0EC0251E0EC0261E0EC0271DC
:100C7C00E0EC0281E0EC0291E0EC02A1E0EC02B1CC
:100C8C00E0EC02C1E0EC02D1E0EC02E1E0EC02F1BC
:100C9C00704700BFB0FC0181B0FC0191B0FC01A118
:100CAC00B0FC01B1704700BFA0FC0181A0FC019118
:100CBC00A0FC01A1A0FC01B1704700BFEC4600B53F
:100CCC002DE900502DE9FF1F4FF000032DE90C001A
:100CDC0001A9FFF731FCDDF840E012B0704700BF0E
:100CEC00EC4600B52DE900502DE9FF1F4FF0000335
:100CFC002DE90C0001A9FFF755FCDDF840E012B01E
:100D0C00704700BFEC4600B52DE900502DE9FF1FE0
:100D1C004FF000032DE90C0001A9FFF763FCDDF88F
:100D2C0040E012B0704700BFEC4600B52DE9005012
:100D3C002DE9FF1F4FF000032DE90C0001ABFFF76D
:100D4C0028FCDDF840E012B0704700BFEC4600B55F
:100D5C002DE900502DE9FF1F4FF000032DE90C0089
:100D6C0001AAFFF795FCDDF840E012B0704700BF18
:100D7C0010F8012B11F8013B012A28BF9A42F7D039
:100D8C00D01A7047027A03467AB9427A82B1013A94
:100D9C0042724268111D12680260416003221A728D
:100DAC001A68100E12021A607047013AD2B2F6E7B6
:100DBC00B02070471FB503AB009300230C221946DB
:100DCC00FFF71EFC039805B05DF804FBF2E72DE974
:100DDC00F043054685B00E464FF000083046FFF74D
:100DEC00D1FFB028044615D1B8F1000F0ED103ACD9
:100DFC0043460E22414600942846FFF701FC00941E
:100E0C0043460F2241462846FFF71EFC002005B042
:100E1C00BDE8F08302061DD4002303AF4FEA80091E
:100E2C00194600970D222846FFF7EAFB5FFA89F96D
:100E3C00039B09F1040914F0400F14BFA3EB090341
:100E4C004B440393009700230D2219462846FFF7C5
:100E5C00FBFBC3E700F0F003802B18D104023046F3
:100E6C00FFF790FF0443B4F5004F01D10920CEE702
:100E7C0024010023A2B219462846FFF76DFD002875
:100E8C00F4D114F4004F18BF4FF00108A6E7902BD3
:100E9C000DD100F00D030D2BE8D003AF002300F0B3
:100EAC000F02009719462846FFF7AAFBCAE7A02BAA
:100EBC0013D1C34303F007034FF47F621A410307B6
:100ECC0002F47F6201D542F4804200231946284681
:100EDC00FFF742FD002881D0C8E7B02B46D1B128DE
:100EEC0008D13046FFF74EFF431EDBB20E2B0246F5
:100EFC00EBD9BBE7B22820D1002303AC0D22194655
:100F0C0000942846FFF77CFB3046FFF73BFF022797
:100F1C0000F07F0110F08003039A01FA07F105D16C
:100F2C0002F501720A44039200948DE70A4430469C
:100F3C0003920737FFF726FFEAE7B3280BD13046B9
:100F4C00FFF720FF020300F00F0002F470220130C3
:100F5C0001230243BAE700F0FC03B42B86D000F067
:100F6C0007020132012342F40022AFE7C02B44D127
:100F7C00C6280AD13046FFF705FF020300F00F0028
:100F8C0002F4702201300323E3E7C7280BD130466B
:100F9C00FFF7F8FE431EDBB20E2B02463FF666AFA0
:100FAC000023042193E700F0F803C02B06D100F0D6
:100FBC000F020132032342F4202287E7C8280DD107
:100FCC003046FFF7DFFE00F0F00200F00F001032A9
:100FDC000130052340EA0232012178E7C9287FF469
:100FEC0045AF3046FFF7CEFE020300F00F0002F4CF
:100FFC007022013005230243EEE700F0F803D02BFA
:10100C007FF434AF00F007020132052342F40022D2
:10101C00E2E71FB503460846DA6C5368083219023A
:10102C00019102921B0E032201A98DF80C208DF860
:10103C000D30FFF7CCFE05B05DF804FB08B5FFF7EB
:10104C00C5FE806C08BD08B5FFF7C0FEC06CC37947
:10105C00023300EB830008BD38B5836805699C69D1
:10106C007CB112F4000F06D02D6801238B401D4279
:10107C0001D082F0C062044B134002F01662A0470C
:10108C0038BD6FF05700FBE7400000062DE9F04F2C
:10109C0091B005920293134602F004020092C3F33E
:1010AC00C20210F00303019340F0328280468A465C
:1010BC000132041D002858D0B8F1000F05D0A4EB64
:1010CC0008030433534500F22682029B5D1E019BEC
:1010DC0004930693039300264FF0FF3B0427B94675
:1010EC00B8F1000F01D0029B2360531E0793002A16
:1010FC0040F367810122059B03F00203002B14BF10
:10110C000123002302F0010118BF002141BBA4EB15
:10111C0008008108B0F5007F34BF002303F0010301
:10112C00002B40F0FE8103980F2800F2FD81B8F1EE
:10113C00000F00F05B81CBB200F14001694401F873
:10114C00103C01F820BC002A00F04C8163F07F03B6
:10115C0001F8103C049B01330493039B013303936C
:10116C0004340022CC4640463DE001F0070A5444CA
:10117C00CAF1080AA0E7002634E0002632E0002677
:10118C0030E00827BC462DE025292BD10BF1010BB3
:10119C0001260427BC4625E04729EED82A2914D37A
:1011AC002A39C9B24FF0010E0EFA01F14FF6DA7E70
:1011BC0011EA0E0F16D111F0625F40F0C18011F0F0
:1011CC00010F40F08D8000260CE0252903D10BF196
:1011DC00FF3B002606E001D9002603E0202901D0C0
:1011EC002329CCD11D466B1C6978002900F017818E
:1011FC00002EC9D07A29BED84C29CDD34C392E29F2
:10120C0062D80FF2080E5EF821F000BFF111000851
:10121C00D5120008D5120008D5120008D512000806
:10122C00D5120008D5120008D5120008D5120008F6
:10123C00D5120008D5120008D5120008E5120008D6
:10124C00D5120008D5120008D5120008D5120008D6
:10125C00D5120008D5120008D5120008D5120008C6
:10126C004D130008D5120008E5120008E51200081D
:10127C004D1300084D1300084D130008F111000820
:10128C00E51200088F110008D5120008F1110008B2
:10129C00D5120008A9130008E5120008A9130008CC
:1012AC00D5120008D5120008B1130008DF1200088F
:1012BC00E5120008D5120008D5120008E512000846
:1012CC00D5120008D912000800268BE70427BC466B
:1012DC0088E70427BC4685E729786C2924D00026AA
:1012EC003C44013CB4FBF7F407FB04F420B1211A95
:1012FC006144514500F21281002A58D1BCF1040F0F
:10130C0000F08580BCF1080F40F011811A9907316B
:10131C0021F0070101F108051A95D1E9008908B1FE
:10132C00C4E9008908345DE713F8021C6C2903D06A
:10133C0000260427BC46D3E700260827BC46CFE787
:10134C0029784C291AD01A99073121F0070101F19B
:10135C0008061A96D1E90067073424F0070440B157
:10136C00211A0831514513D829784C2913D0C4E9D6
:10137C000067083400260827BC4633E71A99073162
:10138C0021F0070101F108061A96D1E90067E3E79D
:10139C006FF01B00B9E0C4E90067EAE700260427F8
:1013AC00BC469DE7324600260427BC4698E7E1463A
:1013BC0080461A9A111D1A9112680292079A1D46BC
:1013CC008EE6614B029A9A4204D3604B9A4205D343
:1013DC00002300E000231BB900228CE60123FAE76E
:1013EC00012288E6069B01330693B6E612B10AF198
:1013FC00010AB2E6009B13B10AF1020AADE60298AB
:10140C000AF0ECFB0AEB000303F1020AA5E61A99B9
:10141C000D1D1A95096800B121600434E2E680467E
:10142C00231AB3F5806F80F0858090B100220260A2
:10143C009B080370009B83B1069BC370049B88F8C8
:10144C0002301BBB019DDDF80C90DDF810B0029F43
:10145C003DE05344A3F1080057E0069B4370EDE7D1
:10146C0001339842EED903F140026A4412F8101C81
:10147C0012F9102C002AF3DA01F07F01A4EB080218
:10148C000132524559D804F8011BE9E7019B039836
:10149C00E7E7009B43B305F140036B4413F8203C92
:1014AC0004F8013B019EA4EB08033344013353457C
:1014BC0046D805F140036B4413F8103C04F8013B8B
:1014CC003246394620460AF0A3FB34440135A9457F
:1014DC0019D9BBF1000FDCD005F140036B4413F9B3
:1014EC00103C002BD5DAF1E705F140036B4413F8FF
:1014FC00103C58F82370002248F8232038460AF094
:10150C006DFB461CCFE7A4EB080011B0BDE8F08FD3
:10151C006FF00D00F9E76FF01B00F6E76FF01B00A2
:10152C00F3E76FF01500F0E76FF01500EDE76FF0E3
:10153C001500EAE76FF01500E7E76FF01B00E4E732
:10154C006FF01B00E1E700BFE8CA0008EC030108DC
:10155C002DE9F04F97B000AF8346BA617B61D7F8A5
:10156C008030C3F3C0033B62396111B906F014FE3D
:10157C0038619BF80260B14636B1D7F8803013F071
:10158C00010F0ED1002300E0002319469BF8032025
:10159C007A6242B1D7F8802012F0020F22D10022D9
:1015AC0002E00123F1E7002213431DD09BF8005009
:1015BC00AB00BB60DBF80430FB600BEB8505BB6953
:1015CC00F3B1002940F01781B9F1000F00F022812E
:1015DC00D7F8803013F0040F40F020810020F86120
:1015EC0006460CE10122DFE7BB691BB17A69396958
:1015FC00584698473C6920465C37BD46BDE8F08F9D
:10160C003C69E1B94D4400237B6123E0044401357E
:10161C0001364E451AD22A7800235BF8222019464F
:10162C00B86906F0CEFDD7F88830BAF1000F18BFB4
:10163C009845EBD22AF8180008F10108E6E70026D5
:10164C00C7F81C80B046D7F884A0E2E7C7F814802E
:10165C00D7F81C80D7F8803003F005033B614FF0BE
:10166C00000AA146C7F81CB0AFE000253B6A93B94D
:10167C00002D00F08D80D7F8803013F0010F40F072
:10168C008C803B69002B40F081800223A9EB03097D
:10169C0098E00125EAE75946F86806F0D8FD0028DD
:1016AC00E6D06C46002387F82C30022387F82D30C7
:1016BC008AB0694611F1100251D01225131E18BFC1
:1016CC0001232846042DD4BF4FF0000C03F0010C6D
:1016DC00BCF1000F01D0B44D4D61002587F82850A6
:1016EC00022587F829500828D4BF002503F00105EE
:1016FC000DB1FD688D610C28D4BF002303F00103EC
:10170C000BB1C1F81CB06ABB11283CDD122362B1CD
:10171C00042087F82C00002087F82D0087F82E0075
:10172C00012087F82F00F86A08616FF300086FF347
:10173C0041086FF382086FF3C508022161F3881822
:10174C00C3F30A0363F353286FF31F580023414676
:10175C00964800F083FDA546A9F1020932E06FF02E
:10176C000045ABE701F12003002509E005F1300C41
:10177C0007F1280EF4441CF830CC03F801CB0135EA
:10178C00012DF3D9C0E76FF01B03C0E701237DE700
:10179C00D7F8803013F0020F14D0002322461946DC
:1017AC00B86906F00EFDD7F884207B69D7F888104D
:1017BC00002A18BF8B4203D222F8130001337B613D
:1017CC00013881440AF1010A35467B6A9A4510D2E8
:1017DC002E4616F802BB6B78FA6952F82340744B0C
:1017EC009C42FFF442AF734B9C42FFF452AF002576
:1017FC003CE74C46FFE607F144000023FB6118B1BF
:10180C004A4629460AF004FA4D444FF00008C7F83E
:10181C0004901EE00020F8610646F0E7FE6107F137
:10182C0034000026EBE700253B6A33BB002D3BD090
:10183C00D7F8803013F0010F26D0731C06F130025C
:10184C0007F12801561806F8149CDEB208F10108BD
:10185C0025467B6A98454AD22C4614F802AB95F87B
:10186C0001905BF82930524A9342DCD3514A93429F
:10187C0001D30025D8E70125D6E75146F86806F0D4
:10188C00E6FC0028D2D0E1E7D7F8803013F0040F43
:10189C00DCD0FA69531C303207F128010A4402F8F3
:1018AC00249CDBB2FB61D1E7D7F8803013F0020F38
:1018BC0009D0731C06F1300207F12801561806F8FE
:1018CC00149CDEB2C2E7F869431C00F1300107F149
:1018DC0028028A1802F824AC02460232D2B2FA610B
:1018EC0007F1580252FA83F303F8249CAEE7D7F8B9
:1018FC0004909BF8003087F854309BF80130334447
:10190C0087F85530D7F8803013F0020F0ED1FB69F1
:10191C00C3F3470387F85730D7F8803013F0010F23
:10192C0006D113F0040F3DD1002302E00023F1E7B0
:10193C00002387F85630DBF800003863786DCBF85D
:10194C000000D7F814804246B9685846D7F818A05A
:10195C00D047041EFFF64FAE386BCBF80000C7F82B
:10196C0014804246F96907F13400D047B0F1000801
:10197C0056DBA044B96849447B6A01EB4301D7F8B4
:10198C0014904A463B69591A2846D047041EFFF664
:10199C0032AEA04400257E62C7F820B05646D7F878
:1019AC0084B01DE0FB69C4E79CD3000824D3000875
:1019BC00E8CA0008EC0301084FF0000A4A4601216E
:1019CC0007F12C00B04700282CDB804453462246FC
:1019DC004946304606F0F5FB002825DB80440135EE
:1019EC007B6A9D4215D205F1300307F1280213449E
:1019FC0013F8143C87F82C303A6A52F82340D7F885
:101A0C008830BBF1000F18BF9D42D5D23BF815A012
:101A1C00D4E77A6900210846BB6998474446EAE551
:101A2C004446E8E50446E6E50446E4E5014B186067
:101A3C00704700BF0000002470B506460D46002418
:101A4C0004E0044B1B68305D98470134AC42F8D37A
:101A5C0070BD00BF0000002480B505460E46174639
:101A6C00984604F009FC03460AF0BAFF0446DFF876
:101A7C00189049F80030424639463046A84754F889
:101A8C00090001F0B7FB00BF08000000054B5A68C5
:101A9C0042F002025A605A6842F001025A60002079
:101AAC00704700BF0010005CEFF31182102383F32A
:101ABC001288BFF36F8F0D4B1B686BB90C490B6809
:101ACC0043F480730B6000E033B9094B1B6813F4CB
:101ADC008073F9D00123F7E704490B6801330B60DD
:101AEC0082F31188BFF36F8F704700BF7408002416
:101AFC000048025810B5EFF31184102383F31288B9
:101B0C00BFF36F8F144B1B68A3B9144B0122BFF3A7
:101B1C005B8F53E8001F002903D143E80020002805
:101B2C00F7D1BFF35B8F0BD10D4A02210D4806F0A4
:101B3C008DFF05E0012B08D0074A1368013B1360A9
:101B4C0084F31188BFF36F8F10BD074A136823F419
:101B5C0080731360F0E700BF740800247008002441
:101B6C0054D4000874D300080048025808B501F09A
:101B7C00ABFC01F075FC0D4B0D4A1A600D4AD36895
:101B8C0023F03F0343F00403D3600B4B1A6841F27C
:101B9C000303B3EB124F00D008BD084AD2F808314A
:101BAC0043F00103C2F80831F6E700BF74000024CB
:101BBC000090D003004802580010005C00800051D7
:101BCC0038B505460B4C00E010340B4B9C420FD241
:101BDC0063685B79002BF7D02946204606F08AFE15
:101BEC000028F1D023681B68294620469847EBE76C
:101BFC0038BD00BF84D3000894D3000870B50646E6
:101C0C000D46084C04E02A463146204698471034CD
:101C1C00054B9C4204D223689B69002BF3D1F6E759
:101C2C0070BD00BF84D3000894D3000808B507F03A
:101C3C0069FF0022431819D213440D4AA2FB03CEAC
:101C4C002EF0030C0CEB9E0CA3EB0C03C01A61F1F1
:101C5C0000014FF0CC3300FB03F302FB0133A0FB7C
:101C6C0002021344400840EAC37008BD0122E3E7B6
:101C7C00CDCCCCCC2DE9F041074605460AE007EA6D
:101C8C000807144B03EB06135B6804221968204603
:101C9C0006F070FED5B195FAA5F6B6FA86F60D4C9F
:101CAC0004EB06140123B3406FEA030825EA03058D
:101CBC00237B002BEED03301064AD3581B69002B33
:101CCC00DDD0204698470028E4D1D8E73846BDE857
:101CDC00F08100BF84D300082DE9F04180460F4607
:101CEC001F4BBFF35B8F53E8005F6A1C43E8002176
:101CFC000029F8D1BFF35B8F6DBB1A4C002607E0AF
:101D0C00636804221968204606F034FE013610344C
:101D1C00154B9C4211D2237B002BF7D0204606F0AA
:101D2C00DDFD23681B69002BEAD02046984700286C
:101D3C00E6D00123B3401D43E8E7B8F1000F0BD008
:101D4C0055B12846FFF796FF0546002FF8D00A201C
:101D5C0006F0D2FDF4E700252846BDE8F08100BF6F
:101D6C008C08002484D3000894D3000808B5064BD3
:101D7C00186018B1054B1B68092B00DC08BD044822
:101D8C0003F0EEFCFAE700BF80080024880800246A
:101D9C00FC00002408B5024803F0E2FC08BD00BFBB
:101DAC00FC00002430B589B000220F490F4807F021
:101DBC00B8FE0F4D00220023CDE906230024049425
:101DCC000E2303930294019400940A4B4FF4407237
:101DDC000949284607F0D0FC0849284607F0BCFC06
:101DEC00204609B030BD00BFA11D00089805002495
:101DFC001001002491210008405E002410D5000839
:101E0C00014B53F8200070472CD5000848B108B599
:101E1C00054A1060054B1960084600F025FD0020AE
:101E2C0008BD6FF015007047040000247C080024E6
:101E3C0008B5054B1B781BB1034B01221A7008BD6A
:101E4C00024803F08DFCF7E7245E0024FC0000241C
:101E5C0008B5104BBFF35B8F53E8001F013143E80B
:101E6C000012002AF8D1BFF35B8F30B90A4807F093
:101E7C0064FE0A4803F074FC08BD094BBFF35B8F8A
:101E8C0053E8001F013943E80012002AF8D1BFF3D0
:101E9C005B8FEBE78408002498050024FC000024E9
:101EAC0088080024064B00200146BFF35B8F53E8E3
:101EBC00000F43E80012002AF9D1BFF35B8F704783
:101ECC008408002438B5FFF7EDFF0546094C00E007
:101EDC001034094B9C420BD263685B79002BF7D012
:101EEC0023685B68002BF3D0294620469847EFE720
:101EFC0038BD00BF84D3000894D30008034B186886
:101F0C000028D4BF00200120704700BF84080024A3
:101F1C0010B5044C0449204606F029FB034B1C6009
:101F2C0010BD00BFAC00002418D5000878080024B0
:101F3C0008B500230C4A13700C4A13600C4A13604A
:101F4C004FF47A710B48FFF761FFFFF7E1FF0A4A84
:101F5C0006E0094BD31A1B11013351680B71103277
:101F6C00064B9A42F5D308BD255E00248408002454
:101F7C0088080024391C000884D3000894D3000876
:101F8C0008B50146014806F0C7FC08BDAC000024AA
:101F9C0008B5024806F0CEFB08BD00BFAC0000241B
:101FAC0008B50146024B186806F0BCFC08BD00BF22
:101FBC007808002408B5024806F0B8FC08BD00BF3C
:101FCC00AC00002410B582B000220023CDE9002320
:101FDC002C4B187808B902B010BD684606F0BEFC50
:101FEC00044680B1FFF7ECFD2046FFF7D9FF264BE6
:101FFC00BFF35B8F53E8001F013943E80012002A3E
:10200C00F8D1BFF35B8FFFF779FF58B91F4A1368FC
:10201C00516813F57A7341F1000113605160FFF7B9
:10202C00C9FFD8E707F06EFD0022431827D21344EE
:10203C00174AA2FB034C2CF0030404EB9C041B1B5F
:10204C00C01A61F100014FF0CC3300FB03F302FB2B
:10205C000133A0FB02021344400840EAC3705B0842
:10206C000A490A684968801A63EB010340F2E932B5
:10207C00904273F10003C9D3FFF724FFC6E7012296
:10208C00D5E700BF245E00248808002490050024B6
:10209C00CDCCCCCC0F4B1B7803B1704710B50021C5
:1020AC000120FFF719FE0C4C00E010340B4B9C4246
:1020BC0008D263685B79002BF7D023689B682046B5
:1020CC009847F2E7FFF77EFF0028FBD1014B012276
:1020DC001A7010BD255E002484D3000894D3000828
:1020EC0010B582B01A4BBFF35B8F53E8002F511C15
:1020FC0043E800100028F8D1BFF35B8F154B1B7819
:10210C0063B9154B1B68B3B1BAB1092A13D1134883
:10211C0007F013FD124803F023FB0CE0EFF31184DE
:10212C00102383F31288BFF36F8FFFF74BFF84F3F9
:10213C001188BFF36F8F02B010BD00220023CDE9D0
:10214C00002342F210720023044804F0C3FBF2E7B0
:10215C0088080024255E00248008002498050024AB
:10216C00FC00002410B50446044B1B689847A06083
:10217C002146034806F0F6FB10BD00BF0400002406
:10218C00AC0000242DE9F04100210846FFF7A4FD26
:10219C00804650B14FF4FA7600270AF021FC154B1B
:1021AC001858FFF7E3FD002515E04FF0FF364FF010
:1021BC00FF37F2E74046FFF75DFD804670B94FF000
:1021CC00FF364FF0FF3709E02C4632463B460A48B3
:1021DC0003F008FB2546B8F1000FEBD1FFF7F2FE38
:1021EC0004460028F6D1002DEED000210846FFF75A
:1021FC0005FDEAE708000000FC0000240248034B40
:10220C00C01AC008704700BF84D3000824D300084C
:10221C0010B50C46FFF7F2FFA04203D9024B53F85E
:10222C00340010BD0020FCE724D3000800B589B0B1
:10223C00059206930023079362B1074A0C9B029305
:10224C000B9B01930A9B009305ABFFF781F909B037
:10225C005DF804FB0022F1E7978900082DE9F04FA7
:10226C008BB004AF05461E468846C1F34A24002CA9
:10227C0000F0988091460022FA603A617A6104235A
:10228C000293FB1801930A23009307F10C032146D8
:10229C004846FFF75DF9B0F5006F67D3D9F804C075
:1022AC006C4600233B7302237B738AB004AD15F19B
:1022BC00100226D01221131E18BF01230846042930
:1022CC00D4BF002603F001060EB14049696100211C
:1022DC003970022179700828D4BF002103F0010164
:1022EC0009B1C5F818C00C28D4BF002303F00103B2
:1022FC0013B140F2FF73EB6182B105F120030021B1
:10230C000AE06FF00041D6E701F118063E4416F8DA
:10231C00186C03F8016B01310129F5D9112822DD64
:10232C00122342B10421397300217973B97301214D
:10233C00F973F868286100216FF300016FF3410114
:10234C006FF382016FF3C501022060F38811C3F3B0
:10235C000A0363F353210023C1F313011C4806F055
:10236C008AFBA5462DE06FF01B03DAE760F35328D8
:10237C00C0F30A0A0AEB1850173020F00700800847
:10238C00FFF7FEFD8346B0B104230293FB180193C3
:10239C000A230093534600F1100221464846FFF7EA
:1023AC0045FF08E004EB1154173424F00704A0088F
:1023BC00FFF7E6FD8346334642462946584606F06B
:1023CC00FDFA1C37BD46BDE8F08F00BF4CD50008A8
:1023DC003CD300082DE9F04F85B080460D461746DA
:1023EC001E46DDF838A0DDF84090B9F1000F3CD066
:1023FC00119B039300934B460F9A10210020FEF77C
:10240C0045FEB0F5006F28D283460AEB0003173364
:10241C0023F0070300246FF300046FF341046FF300
:10242C00820468F3C50467F3881460F353246AF3D9
:10243C001F549808FFF7A4FD074600B11030002880
:10244C0018BFB9F1000F12D133462246294638463F
:10245C0006F0B4FA05B0BDE8F08F40F2FF73084AFD
:10246C000221084806F0FCFAF4E70020CCE7119BA7
:10247C0000934B460F9A5946FEF708FEE4E700BF5F
:10248C008CD500083CD30008406820B1034BC01A1F
:10249C0040F3CF0070474FF0FF30704724D3000853
:1024AC000EB400B582B0014603AB53F8042B019374
:1024BC00034801F009FA02B05DF804EB03B0704771
:1024CC00B98A000810B584B011F0440F05D01A4B2E
:1024DC001B6833B9002004B010BD1849FFF7E0FFAA
:1024EC00F9E717490968B2FBF1F2B2FBF3FC03FB05
:1024FC001C224FF47A7E0EFB02F2B2FBF3F403FBC8
:10250C0014210EFB01F1B1FBF3F10E4AA2FB0C32CC
:10251C00D20A4FF4616303FB12CC0B4BA3FB0CE30D
:10252C005B0902910194C3EB0311ACEB81010091A7
:10253C000649FFF7B5FFCEE794080024C4D5000880
:10254C0090080024C5B3A29189888888D0D500084A
:10255C0061B108B52AB1064A52F8232012B9054ACE
:10256C0000E0044A0449FFF79BFF08BD704700BF19
:10257C0074D60008ECD50008F4D500082DE9F0411C
:10258C0080461746069D079EC1B900242DB12A46E8
:10259C0010494046FFF784FF044466B1099B042BA5
:1025AC0014BF002707F001078FB10B493246404694
:1025BC00FFF776FF04442046BDE8F081074B099AEB
:1025CC0053F822200649FFF76BFF0446DEE7054966
:1025DC00ECE700BF0CD60008F8D5000888D6000838
:1025EC0004D60008FCD500082DE9F04F87B005464D
:1025FC000C46049205939DF84C7001F0020B01F00F
:10260C00010AC1F3C00801F4807906F0B1F918B3DE
:10261C00024616492846FFF743FF0646BBF1000F5A
:10262C001CD13A465146284606F06BFAB9F1000F18
:10263C0001D0002311930397129B0293119B0193DA
:10264C00109B00930023049A41462846FFF796FFFF
:10265C00304407B0BDE8F08F0026DFE7059A21462D
:10266C002846FFF72FFF0644DBE700BF10D6000813
:10267C0011F0100F0BD108B511F0200F03D0044945
:10268C00FFF70EFF08BD0349FFF70AFFFAE7704793
:10269C0064DB000814D600082DE9F04105460F460E
:1026AC00164698460699FFF7E3FF0024444505DAE1
:1026BC0024492846FFF7F4FE0134F7E7002409E02B
:1026CC0020492846FFF7ECFE0BE01F492846FFF790
:1026DC00E7FE01340F2C0CDC002C02DD14F0070F8C
:1026EC00EED0B442F1D23A5D18492846FFF7D8FE35
:1026FC00EFE717492846FFF7D3FE002409E01149FC
:10270C002846FFF7CDFE0BE012492846FFF7C8FE1E
:10271C0001340F2C13DC002C02DD14F0070FEED06B
:10272C00B44207D23A5D0C4B9B5C13F0970FEBD184
:10273C002E22E9E703492846FFF7B2FEE8E7BDE899
:10274C00F08100BF08D6000820D6000818D6000873
:10275C0024D6000828D60008DC0201082DE9F04137
:10276C0084B004469DF82C500C9F0E9E95B9012BFD
:10277C001ED019484FF0000827B13B462246174996
:10278C0005F035FDC6B905BB204606F078F904B056
:10279C00BDE8F08103950A980290019300920B46D4
:1027AC0000220F992046FFF71FFF80460C48E3E7F5
:1027BC000B484FF00008DFE70F9B0093434632466F
:1027CC000D99204606F0B5F9DDE72A460F9920460B
:1027DC0006F0A3F9D8E700BFF18A0008D538000845
:1027EC00B98A00082DE9F04383B00646056842F229
:1027FC000F738B4228BF0B46184A0521684604F01C
:10280C00D3FD04467368D3F804900B27DFF850808F
:10281C0005E04A4639464046A8473F1A8044002FF7
:10282C00F7D17368D3F804806F4605E04246214621
:10283C003846A847241A0744002CF7D173685F6800
:10284C001B24084E05E03A4621463046A847241A78
:10285C000644002CF7D103B0BDE8F083C0D70008C4
:10286C0048D600082CD60008074B01221A6004E059
:10287C004008054A13685B001360044B9842F7D874
:10288C00034B1860704700BF9008002440420F00B3
:10289C009408002470B506460D46002405E0315D11
:1028AC00044883685B6898470134AC42F7D32846E8
:1028BC0070BD00BF68CD0008014B0360012070475C
:1028CC0000D7000808B50348034A121A002106F085
:1028DC00C0F908BD10010024305E002408B506487C
:1028EC00064A121A064906F0B8F90648064A121AA0
:1028FC00064906F0B2F908BD000000240C010024C2
:10290C00EC0301080000002400000024EC03010883
:10291C002DE9F04383B000AF0446D0F80090D0F816
:10292C000480D0F808E06D468AB0694611F11002B7
:10293C0000F0B5801426131E18BF01233046042E58
:10294C00D4BF4FF0000C03F0010CBCF1000F01D010
:10295C00594E4E610828D4BF002603F001060EB173
:10296C00C1F818900C28D4BF002603F001060EB154
:10297C00C1F81C801028D4BF002303F001030BB155
:10298C00C1F820E0132840F38D8014233AB10520C0
:10299C00387100207871B871F8717868086100217D
:1029AC006FF300016FF341016FF382016FF3C50107
:1029BC00012060F38811C3F30A0363F353216FF30F
:1029CC001F5100233D48FFF749FCAD46D4F80C904D
:1029DC00D4F81080D4F814E06D468AB0694611F131
:1029EC00100262D01426131E18BF01233046042E89
:1029FC00D4BF4FF0000C03F0010CBCF1000F01D060
:102A0C002F4E4E610828D4BF002603F001060EB1EC
:102A1C00C1F818900C28D4BF002603F001060EB1A3
:102A2C00C1F81C801028D4BF002303F001030BB1A4
:102A3C00C1F820E013283BDD14233AB1052038718E
:102A4C0000207871B871F8717868086100216FF313
:102A5C0000016FF341016FF382016FF3C5014FF079
:102A6C00010868F38811C3F30A0363F353216FF36E
:102A7C001F51124E00233046FFF7F0FBAD46E369C1
:102A8C00104A4146304605F0EBFFA3690E4A414619
:102A9C00304605F0E5FF0C37BD46BDE8F0836FF01E
:102AAC00004648E76FF01B0370E76FF000469AE7AB
:102ABC006FF01B03C1E700BF10D700085CD3000800
:102ACC0040D7000870D7000880D7000838B50446F6
:102ADC000D4611B10846FFF71BFF012C04D0294607
:102AEC00204602F00BFB38BDEFF30583103B034A85
:102AFC000121034805F0B4FFF1E700BFB0D700088F
:102B0C005CD3000830BFFFF7FDBF00BF38B50446EB
:102B1C00054D2A46054909F07BF8054A0021601944
:102B2C0009F02AF938BD00BF0000000094D300085A
:102B3C000800000070B50646054D064B1D444C1BA5
:102B4C002046FFF7E3FF083C346705F1080070BD31
:102B5C000000000008000000054B5A699B689A426F
:102B6C0004D0044A536843F080535360704700BF4D
:102B7C00440A002400ED00E081690D4B5A6942F4CF
:102B8C0080725A61BFF34F8FBFF36F8F31F8021C05
:102B9C005A6922F480725A61BFF34F8FBFF36F8F63
:102BAC004DF60273994201D0002070470120704706
:102BBC0000ED00E04FF0000C83F800C002F07F4CF9
:102BCC00BCF17F4F14D102F00C0CBCF1080F04D0F7
:102BDC0012F0080F09D00846704708B5054A0121C4
:102BEC00054805F033FF002008BD01221A7070471C
:102BFC0000207047C4D700085CD3000808B52A4AE7
:102C0C0001212A4805F022FF294B9B6A13F0007F13
:102C1C001FD11D20264B9B6A13F0807F20D1244BA3
:102C2C009B6A13F4002F22D1214B9B6A13F4802F43
:102C3C0024D11F4B9B6A13F4003F26D11C4B9B6A7B
:102C4C0013F4803F28D11A4A916A1A4B0B439362B2
:102C5C0008BD194A0121154805F0F8FE1E20D9E7D8
:102C6C00164A0121114805F0F1FE1F20D7E7144A3E
:102C7C0001210E4805F0EAFE2120D5E7114A012179
:102C8C000A4805F0E3FE2220D3E70F4A012107484A
:102C9C0005F0DCFE2320D1E70C4A0121034805F0A6
:102CAC00D5FE2420CFE700BFF0D700085CD3000886
:102CBC0000ED00E00000FFFF08D800081CD8000859
:102CCC0038D8000858D8000880D800089CD80008CC
:102CDC0008B500230B70034A0121034805F0B6FE2A
:102CEC0008BD00BFC8D800085CD30008B0B582B0DE
:102CFC0000AF0F2933DC374D103900233B71022311
:102D0C007B718AB0EC461CF110022AD04FF0120EE7
:102D1C00131E18BF01237046BEF1040FD4BF00244C
:102D2C0003F0010414B12C4CCCF8144000243C707A
:102D3C0002247C700828D4BF002403F001040CB1D9
:102D4C00CCF818500C28D4BF002303F001030BB1AE
:102D5C00CCF81C109AB10CF1200300210DE01F4D92
:102D6C00CAE76FF0004ED3E701F1080404EB070E3D
:102D7C001EF808EC03F801EB01310129F4D91128F4
:102D8C0024DD12234AB10421397100217971B97102
:102D9C000121F9717868CCF8100000216FF3000163
:102DAC006FF341016FF382016FF3C501012060F3F2
:102DBC008811C3F30A0363F353216FF31F510023EC
:102DCC000748FFF74BFA0837BD46B0BD6FF01B0341
:102DDC00D8E700BFECD8000820D9000804D90008B7
:102DEC005CD30008F8B505460F461446374A012156
:102DFC00374805F02BFE374B9B6A13F4805F25D1C7
:102E0C001626344B9B6A13F4006F26D1314B9B6A08
:102E1C0013F4007F28D12F4B9B6A13F4806F3FD1A2
:102E2C002C4B9B6A13F4807F41D12A4B9B6A13F481
:102E3C00005F43D1274A936A43F47F439362012195
:102E4C00284605F01AFF20703046F8BD224A0121B1
:102E5C001F4805F0FBFD1726D3E7204A01211C482B
:102E6C0005F0F4FD1826D1E71D4A0121184805F09C
:102E7C00EDFD184A936B926A12F4004F01D119269A
:102E8C00C9E7184A0121124805F0EAFD37B1114A89
:102E9C00936A23F4004393621926BCE71926BAE718
:102EAC00114A01210A4805F0D1FD1A26B8E70F4A4C
:102EBC000121074805F0CAFD1B26BBE70C4A01217E
:102ECC00034805F0C3FD1C26B4E700BF34D9000845
:102EDC005CD3000800ED00E04CD9000860D9000874
:102EEC0074D9000890D90008A8D90008C4D90008E2
:102EFC00DCD900082DE9F04104460F461546464A38
:102F0C000121464805F0A2FD454B9B6A13F0100FBA
:102F1C003CD11026424B9B6A13F0080F3DD1404B1D
:102F2C009B6A13F0020F3FD16FF015083C4B9B6A64
:102F3C0013F0010F58D13A4B9B6A13F0200F5AD162
:102F4C00374B9B6A13F0100F04D1354B9B6A13F06F
:102F5C00020F04D0324B5B6813F4006F52D1304B2C
:102F6C009B6A13F0200F04D02D4A536A23F40053AC
:102F7C0053622B4A936A43F0FF039362012120466C
:102F8C0005F07BFE28703046BDE8F081254A012112
:102F9C00224805F05BFD1126BCE7234A01211F489E
:102FAC0005F054FD1226BAE7204A01211B4805F012
:102FBC004DFD1B4BD3F834809B6A13F0800F03D16B
:102FCC006FF015081326B1E74346194A012113483F
:102FDC0005F046FD37B1124A936A23F080039362E1
:102FEC001326A3E71326A1E7124A01210B4805F08B
:102FFC002DFD14269FE7104A0121084805F026FDF7
:10300C0015269DE72146404600F0BCF90028A6D0C5
:10301C0080F309880226A2E70CDA00085CD30008CA
:10302C0000ED00E024DA000860D9000858DA000846
:10303C0070DA000888DA0008DCD9000870B506469A
:10304C000D462B4A01212B4805F000FD00232B7067
:10305C00294BDC6A14F002040AD1274BDB6A002BE3
:10306C000DDB254BDC6A14F080440ED1204670BD7C
:10307C00224A01211F4805F0E9FC0024F6E7204A0A
:10308C0001211C4805F0E2FCF0E71E4A0121194819
:10309C0005F0DCFC3046FFF76FFD98B9164B9B6AC8
:1030AC0013F0FF0F16D1144B9C6A14F47F4418D103
:1030BC00114B9B6AB3F5803FD8D33046FFF79EFD8A
:1030CC000446D3E73368104A01210A4805F0C8FCCE
:1030DC003468CBE72A4601213046FFF70BFF044644
:1030EC00C4E72A4601213046FFF77CFE0446BDE7C3
:1030FC00A8DA00085CD3000800ED00E0C0DA000894
:10310C00E4DA0008F4DA000814DB000830B58BB000
:10311C001D4B5D68C5F30805002383F31188BFF3CD
:10312C006F8F0DF12603FFF745FD04460DF12702C5
:10313C00294605F0A4FD9DF827300BB10BB030BD2E
:10314C0005460DF1040C20686168A268E368ACE8E0
:10315C000F0020696169A269E369ACE80F009DF872
:10316C00263043B1089BC3F3080242B940F2FF1268
:10317C001A43089203E0054B089A1340089301A9DF
:10318C002846FFF7A3FCD9E700ED00E000FEFFFFA7
:10319C00044B5A6942F010025A615A6922F0080233
:1031AC005A61704700ED00E0EFF30880EFF30981FE
:1031BC0001B57246FFF7AAFF01BD00BF0B4880F3B3
:1031CC00088805F07AFB102080F3118808484FF42A
:1031DC000461401880F30988EFF31480022108433E
:1031EC0080F31488BFF36F8F00F08EF8407B0024BF
:1031FC008061002408B50A4B9B68834202D003F01F
:10320C0041F808BDEFF30583002BF8D0054B5A6845
:10321C0042F080525A605A6A22F400425A62EEE737
:10322C00440A002400ED00E014498A684FF0300095
:10323C001044EFF3098C80E8F01F102080F3128803
:10324C00BFF36F8F0E4F4FF000664A698A603E6085
:10325C00106F0C4C2060506F0023536780F3118863
:10326C0004B5104600F05AF9BDE8044002F13000F4
:10327C0090E8F01F8CF3098870470000440A002482
:10328C0004ED00E0C00800241EF0040F0CBFEFF3A7
:10329C000880EFF30980816911F8021C0229FFD024
:1032AC0001B5724605F0DDFC01BD00BF002807DB4F
:1032BC0000F01F02400901239340024A42F82030DB
:1032CC00704700BF00E100E0002804DB0901C9B22F
:1032DC00044B1954704700F00F000901C9B2024B9E
:1032EC001954704700E400E014ED00E0044B23F0A7
:1032FC007F03044A9360BFF34F8FBFF36F8F704708
:10330C000000000800ED00E008B5FFF7EFFF0C4AE5
:10331C00D2F8883023F47003C2F88830EFF31483AA
:10332C0023F0040383F31488BFF36F8FFFF7CAFAFB
:10333C00FFF7D4FA00F06AF805F0EEFC02F000F9A1
:10334C0000ED00E010B4A2F120040D4942F8081C75
:10335C0021F0010142F8081C42F8203C019B42F884
:10336C001C3C029B42F8183C039B42F8143C4FF067
:10337C00807342F8043C04650023436710BC70471B
:10338C00651A00080E4B9B68A3B110F1160F0AD0FA
:10339C001A6EA2F1400C84450ED882420ED98A4294
:1033AC0006D8002070471A6E8A4201D80020704758
:1033BC00186E70470020704700207047002070473F
:1033CC00440A002408B50E4615460B4A9060026F5D
:1033DC000A4B1A6000F0A2F82C4686F309880020EC
:1033EC00034B98472046002100220023014C204724
:1033FC00FD8C0008651A0008440A0024C00800244B
:10340C00014B10221A61704700ED00E0002306E02A
:10341C0002F00F020849114410220A760133A22B44
:10342C0008DC1AB2002AF3DB04491144102281F89B
:10343C000023F3E7704700BFFCEC00E000E100E084
:10344C0008B5EFF30583103B044A02EBC30149684E
:10345C0052F833008847FFF77FFB08BDA8CD000862
:10346C00184B5B6913F4803F2AD110B4154B002222
:10347C00C3F88420BFF34F8FD3F88040C4F34E3091
:10348C0000E01846C4F3C90243F6E07303EA4013A4
:10349C0043EA82730B49C1F860321346013A002BA0
:1034AC00F2D1431E0028ECD1BFF34F8F4B6943F48C
:1034BC0080334B61BFF34F8FBFF36F8F10BC7047DE
:1034CC00704700BF00ED00E00C4B5B6913F4003F4C
:1034DC0013D1BFF34F8FBFF36F8F084B0022C3F88C
:1034EC005022BFF34F8FBFF36F8F5A6942F40032F3
:1034FC005A61BFF34F8FBFF36F8F704700ED00E041
:10350C0008B5034B034A0121034805F036FC08BDFE
:10351C00000005240000002430DB000808B5036E11
:10352C00403B0548036040234360044B836001210A
:10353C0005F027FC08BD00BFC408002400000B15D3
:10354C00084AC2F898000B6823F01F03034343F0AA
:10355C001003C2F89C308B6843F00103C2F8A03012
:10356C00704700BF00ED00E010B504460A4BD3F8DD
:10357C009030C3F30723013B984203D8FFF7E0FFD9
:10358C00204610BD0346054A0121054805F068FA9E
:10359C006FF01500F5E700BF00ED00E040DB000820
:1035AC0054D300082DE9F04780460F469A4616463C
:1035BC00002409E02946F0B205F0C0FB064610F1E4
:1035CC00160F1AD001360134BC4216DA04EB44054E
:1035DC0008EB85056A68002AF5D0BAF1000FE9D02E
:1035EC00284605F09AFB0028E4D12346044A012121
:1035FC00044805F035FA6FF015063046BDE8F08743
:10360C0068DB000854D3000810B5034C0123227862
:10361C00FFF7C8FF207010BD265E002408B50023FC
:10362C000B4A1278FFF7BEFF10F1160F0FD00246AF
:10363C0006E0084BC3F898200021C3F8A010013213
:10364C00044BD3F89030C3F307239342F1DC08BD4D
:10365C00265E002400ED00E070B584B0054603A89A
:10366C00FFF72AF90646002423E0B3F5801F1FD18B
:10367C00506851F80C109368202B63D9B3F1004FAC
:10368C0062D8013BB3FA83F3C3F11F035B0003F071
:10369C003E035E4A1A4300900191029269462878D3
:1036AC00FFF762FF0028C0F2AA802B7801332B7041
:1036BC000134B44280F0A6804FEA041C039901EB5C
:1036CC000412D068524B0340B3F5000F5DD01CD8E8
:1036DC00B3F5001F3AD0B3F5800FC6D1506851F83E
:1036EC000C109368202B4CD9B3F1004F4BD8013BF5
:1036FC00B3FA83F3C3F11F035B0003F03E03454AA7
:10370C001A43009001910292C8E7B3F1807F57D021
:10371C00B3F1007FCCD1506851F80C109368202B7A
:10372C0069D9B3F1004F68D8013BB3FA83F3C3F105
:10373C001F035B0003F03E0343F4802300900191D0
:10374C000293ABE70823A4E73E23A2E7506851F8A5
:10375C000C109368202B10D9B3F1004F0FD8013BFC
:10376C00B3FA83F3C3F11F035B0003F03E032A4A51
:10377C001A4300900191029290E70823F7E73E2349
:10378C00F5E70823BBE73E23B9E7506851F80C1066
:10379C009368202B10D9B3F1004F0FD8013BB3FA2B
:1037AC0083F3C3F11F035B0003F03E0343F082730A
:1037BC0000900191029371E70823F7E73E23F5E7A8
:1037CC00506851F80C109368202B10D9B3F1004FAE
:1037DC000FD8013BB3FA83F3C3F11F035B0003F073
:1037EC003E0343F0887300900191029356E708233F
:1037FC00F7E73E23F5E708239EE73E239CE76FF0AF
:10380C00150000E0002004B070BD00BF00000B11DB
:10381C000000F0FF0000020600000811044B052216
:10382C00C3F89420BFF34F8FBFF36F8F704700BF67
:10383C0000ED00E0BFF35F8F024B0022C3F8942031
:10384C00704700BF00ED00E038B51C4B1D681C4BE9
:10385C00D3F89030C3F307239D422BD8FFF7EAFF30
:10386C00002409E0154B5B6804EB440103EB810178
:10387C002046FFF765FE0134A542F3D811480570C8
:10388C00FFF7EAFE10F1160F13D00E4B1A780C4B03
:10389C00D3F89030C3F307239A4207DA084BC3F8E6
:1038AC0098200021C3F8A0100132F0E7FFF7B6FF13
:1038BC00002038BD4FF0FF30FBE700BF94D4000868
:1038CC0000ED00E0265E002430B587B00D461146B1
:1038DC00002400940194029403940494059402220D
:1038EC008DF80220044A0192049005951A46684608
:1038FC0003F084FD07B030BD978D000808B5024B6E
:10390C001B689847002008BDD0080024034B1860A2
:10391C00034A937843F0020393707047D008002455
:10392C001000002408B5054804F0BEFC002383F306
:10393C001188BFF36F8F0423184602DF8CDB00085D
:10394C0008B54FF0FF324FF0FF33024805F028FA6C
:10395C0008BD00BF2000002408B5054921F007016F
:10396C00044A521A044804F08BFB002008BD00BF27
:10397C00C787002400000524D408002438B5044669
:10398C00FFF7DEFF224608210A4804F0F0FA05464C
:10399C00B0FA80F04009002C08BF002020B109F0DB
:1039AC001FF8054B0C221A50044801F083FE2846E0
:1039BC0038BD00BFD40800240C00000020000024F7
:1039CC0010B50446FFF7BCFF2146034804F07EFA0D
:1039DC00024801F06FFE10BDD40800242000002422
:1039EC00002399420ADD10B400EB030C044C24F8BC
:1039FC001C2001339942F7DC10BC7047704700BFA4
:103A0C0034000024F8B50746002401E00134E4B288
:103A1C007B78A34217D93D786619304600F0CAF876
:103A2C000028F3D0304600F0FBF8074B53F8362053
:103A3C00002AEBD006F01F0503EBC60359680120E2
:103A4C00A8409047E2E7F8BDE008002401F0030C21
:103A5C000CF102020B4B53F822200B0C22EA114101
:103A6C0093FAA3F35BB1B3FA83F303F01F0398400B
:103A7C0001430CF1020C034A42F82C10704720232E
:103A8C00F3E700BF0004005800F003030233084AB8
:103A9C0052F82320030C02EA104093FAA3F32BB143
:103AAC00B3FA83F303F01F03D84070472023F9E7E0
:103ABC000004005808B5034688B1B0FA80F2C2F190
:103ACC001F02D2B2074931F912004FF0B042D2F8BE
:103ADC0080100B43C2F8803005F0F6F808BDFF22C9
:103AEC00F0E700BF3400002410B498B1B0FA80F3B2
:103AFC00C3F11F03DBB29C460D4850F833008842DB
:103B0C000AD088B90A4B43F83C1003EBCC035A603B
:103B1C0010BC7047FF23EEE7054C04EBC3035B6856
:103B2C009342EED10020F3E76FF00F00F0E700BFF7
:103B3C00E008002460B1B0FA80F3C3F11F03DBB2DC
:103B4C00044A002142F8331002EBC3025160704763
:103B5C00FF23F5E7E008002400B583B0124805F018
:103B6C0067FDA8B1002300930193BDF80030F42247
:103B7C0062F30B03ADF80030022301930A4B9B68F0
:103B8C001B686BB169460848984703B05DF804FBA5
:103B9C00064A0121064804F059FF6FF01200F4E7C1
:103BAC006FF05700F1E700BFA8CB0008D4DB00088A
:103BBC002CD3000808B500F01F02012393405F28A6
:103BCC0009D81F2811D84FF0B042D2F8882093435F
:103BDC0009D0002008BD03460F4A01210F4804F00C
:103BEC003FFF0020F6E70120F4E73F2809D84FF00B
:103BFC00B042D2F89820934301D00020EAE701208C
:103C0C00E8E74FF0B042D2F8A820934301D000204F
:103C1C00E0E70120DEE700BFBCDB00082CD3000886
:103C2C0008B500F01F02012393405F2807D81F2816
:103C3C000ED84FF0B042C2F88830002008BD0346C1
:103C4C000A4A01210A4804F00BFF6FF01500F5E752
:103C5C003F2805D84FF0B042C2F898300020EDE76D
:103C6C004FF0B042C2F8A8300020E7E7BCDB0008F8
:103C7C002CD300080048704740787D0108B50B4BE9
:103C8C001B6903F03803102B09D0182B09D1FFF74F
:103C9C00F1FF01236E22052105F02DF902E0044805
:103CAC0000E00020022105F023F908BD0044025871
:103CBC0040787D01074A936923F44043936100E007
:103CCC0033B9044B9B6913F40053F9D00123F7E784
:103CDC000020704700480258074A936923F4404378
:103CEC00936100E033B9044B9B6913F40053F9D092
:103CFC000123F7E70020704700480258144BB3FB30
:103D0C00F0F0144B0344144A934202D8002008608C
:103D1C007047124B0344124A934203D801230B60A1
:103D2C00002070470F4B03440F4A934203D80223E1
:103D3C000B60002070470D4B03440D4A934203D295
:103D4C0003230B60002070476FF02100704700BF09
:103D5C0040787D01C0BDF0FF40420F007F7BE1FF4A
:103D6C007F841E00FFF6C2FFFF083D00FFED85FFBC
:103D7C0000127A000B88C3F30B0303F62C72C2F308
:103D8C000B02202A10D810B483B0094A48689C58FA
:103D9C00204398500B88C3F30B039B580193019B52
:103DAC00002003B010BC70476FF08500704700BF57
:103DBC00004402580B88C3F30B0303F62C72C2F3B6
:103DCC000B02202A07D8054849681A5822EA010232
:103DDC001A50002070476FF085007047004402585D
:103DEC0070B50C46154602215D4B186805F080F83D
:103DFC000646022105F07CF82388C3F30B02134618
:103E0C00132A25D812B27AB1013B122B00F29F80F3
:103E1C00DFE803F04E5559525D9D9D6069727B84BD
:103E2C008D9D9D9D9D9698006FF085000FE003F68B
:103E3C002C73C3F30B03012202FA03F341F21112A8
:103E4C0013421FD113F4803F2ED16FF0850070BD4B
:103E5C00E42A0FD9F42A7DD8E82A10D3E83B0C2B9E
:103E6C0072D8DFE803F01D7171711D7171711F71D2
:103E7C0071712300D42ADAD26FF08500E7E76FF076
:103E8C008500E4E72E602368B3F5805F65D32A686C
:103E9C00C3F313330133B2FBF3F22A600020D6E7ED
:103EAC002860F0E72860EEE72860ECE72860EAE796
:103EBC00FFF7E4FE2860E6E72A4B2B60E3E74FF4BC
:103ECC0000432B60DFE74FF4FA432B60DBE7264B14
:103EDC002B60D8E7FFF7CEFE01236E22052105F0FB
:103EEC000AF82860CFE7FFF7C5FE04236E220521F0
:103EFC0005F001F82860C6E7FFF7BCFE02236E222E
:103F0C00052104F0F8FF2860BDE7FFF7B3FE052399
:103F1C005022194604F0EFFF2860B4E7FFF7AAFE21
:103F2C0005235022194604F0E6FF2860ABE7FFF7A3
:103F3C00A1FE05235022194604F0DDFF2860A2E7FC
:103F4C002E60A0E72E609EE76FF085007FE76FF094
:103F5C0085007CE76FF0850079E7002077E700BFEC
:103F6C007400002440787D01006CDC020F4B1B6850
:103F7C0013F0040F0ED10D4A136843F001031360C4
:103F8C0001E0012B06D0094B1B6813F00403F8D099
:103F9C000123F6E7054A136923F007031361034B6A
:103FAC001B6913F0380FFAD1704700BF0044025858
:103FBC0030B583B0644B1B6903F03803182B5BD00E
:103FCC00614B1A6822F080721A601A6822F08062C3
:103FDC001A601A6822F080521A609A6A22F0030260
:103FEC0042F002029A6201A90520FFF787FE002821
:103FFC00C0F2A780019C204604F084FF524B9A6AC1
:10400C0022F47C7242F050029A62DA6A22F00C02BC
:10401C0042EA8402DA62DA6A22F0020242EA4002DE
:10402C00DA62196B494A0A4042F06D021A63DA6A85
:10403C0022F00102DA621A6B22F47E421A63DA6A07
:10404C0042F48032DA621A6B22F4FE0242F44032FD
:10405C001A63DA6A42F40032DA621A6B22F0FE4218
:10406C0042F080721A63DA6A42F48022DA621A68C9
:10407C0042F080721A6009E0FFF778FF324A9369C8
:10408C0023F00F0393619BE7012C06D02E4B1C6889
:10409C0014F00074F8D00124F6E701A90520FFF70D
:1040AC002DFE00284DDB019D284604F02BFF264BEE
:1040BC009A6A22F47C3242F4A0429A62DA6A22F0C2
:1040CC00C00242EA8512DA62DA6A22F0200242EA7F
:1040DC004012DA62996B1D4A0A4042F04F029A6311
:1040EC00DA6A22F01002DA629A6B22F47E4242F40F
:1040FC0000629A63DA6A42F40022DA629A6B22F462
:10410C00FE0242F480229A63DA6A42F48012DA6286
:10411C009A6B22F0FE4242F080629A63DA6A42F4B1
:10412C000012DA621A6842F080621A6001E0012B18
:10413C0006D0054B1B6813F00063F8D02346F6E756
:10414C00002003B030BD00BF0044025800FEFFFF4A
:10415C0038B5244B1A6822F480221A601A6842F48B
:10416C0080321A6001E0012B06D01E4B1B6813F441
:10417C000033F8D00123F6E71A494A6F42F00102E6
:10418C004A6701E0012D06D0164A556F15F002055D
:10419C00F8D01D46F6E7FDF787FC124B1A6F22F09C
:1041AC0018021A671A6F42F001021A6701E0012C1B
:1041BC0006D00C4B1C6F14F00204F8D02C46F6E71A
:1041CC00FDF798FC074A136843F48053136001E031
:1041DC00012B06D0034B1B6813F40053F8D0234675
:1041EC00F6E738BD0044025870B582B0324BD3F8B4
:1041FC00E02042F00072C3F8E020D3F8E03003F086
:10420C0000730193019BFFF7A3FFFFF753FDFFF72B
:10421C00CFFE041E45DBFFF731FD06460221274881
:10422C0004F066FE054686423ED3234B9A6922F47F
:10423C0070629A619A6922F00F0242F008029A6148
:10424C00DA6922F0700242F04002DA61DA6922F493
:10425C00E06242F48062DA619A6922F0700242F004
:10426C0040029A611A6A22F0700242F040021A620D
:10427C001A6922F0070242F003021A610E4B1B6905
:10428C0003F03803182BF9D1AE4210D20B4D28464F
:10429C00FFF722FD084A136923F400431361084B0E
:1042AC001D60204602B070BD00F00EFEBDE7284632
:1042BC0000F00AFEEAE700BF004402588055C8200F
:1042CC0074000024132806D8064BC34013F0010FCA
:1042DC0004D0002070476FF0850070476FF08500A8
:1042EC00704700BF3E3F0C0010B50C460888C0F369
:1042FC000B00FFF7E7FF00281EDB6268FF2A1CD0CB
:10430C001FFA82FC0E49C2F3415001300123834055
:10431C00013BC2F3044293405CF8012022EA030300
:10432C004CF80130626890B2130EC2F30442934011
:10433C00425813434350002010BD0020FCE700BF3F
:10434C000044025810B504460A2806D0E1B20648CB
:10435C0083685B689847204610BD034883685B6898
:10436C000D219847F2E700BF68CD000810B5044C4A
:10437C002046FFF7CBFA2046FDF758FB10BD00BFD7
:10438C005143000808B5054805F052F918B1FFF77C
:10439C00EDFF002008BD6FF01200FBE768CD0008B0
:1043AC0008B5436841B103F10C010B4B9B681B68CA
:1043BC005BB10948984708BD03F10C01064B9B689B
:1043CC005B682BB104489847F5E76FF05700F2E7AC
:1043DC006FF05700EFE700BFA8CB00082DE9F843BA
:1043EC000F4614461D46D0F80480D0F81090D8F82B
:1043FC00080004F022FD0646B4F1026F14D0B4F1AB
:10440C00046F15D0B4F5001F16D0B4F5800F35D05D
:10441C00B5F1806F2ED0B5F1C06F2DD0B5F1007F06
:10442C0011D06FF0150422E004F00CFD00241EE006
:10443C00FFF740FB00241AE03946D8F8080004F0D6
:10444C001DFF002413E002254A460F493046FFF7B2
:10445C004BFB0446A8B9D8F80810384604F029FDDF
:10446C002946304604F0F7FC3046FFF723FB204684
:10447C00BDE8F8830125E7E70325E5E76FF0850440
:10448C00F5E76FF00F04F2E70590000810B504464D
:10449C0003695860054805F0CBF820B10449204663
:1044AC0004F058FD10BD6FF01200FBE7A8CB00081C
:1044BC0057920008B0F5D07F17D2F8B504460D46D8
:1044CC00164603090A4A52F823705FB1384605F0C4
:1044DC00AFF838B133462A4604F00F01384604F0E1
:1044EC00E5FEF8BD6FF01200FBE76FF015007047AA
:1044FC00C4DD000808B5024A04F0EDFF08BD00BF9A
:10450C004395000808B5024A04F0F8FF08BD00BF47
:10451C00499500082DE9F04184B000AF43681D684F
:10452C000269002900F0948004460E461068D96890
:10453C008368DB68CBB107F10C029847B0F1000837
:10454C0015DB2B6823F400432B60FB6803EB56034D
:10455C00B3FBF6F30F2B10D99BB2EB604FF00008B6
:10456C0040461037BD46BDE8F0816FF057083A4A17
:10457C0001213A4804F06AFAF2E7D4F800E06C46FC
:10458C0000233B7202237B728AB06D4615F1100238
:10459C0031D01221131E18BF012308460429D4BFA1
:1045AC004FF0000C03F0010CBCF1000F01D02C49B2
:1045BC00696100213971022179710828D4BF002169
:1045CC0003F0010109B1C5F818E00C28D4BF002391
:1045DC0003F0010303B1EE6182B105F12003002168
:1045EC0001290BD801F110063E4416F80C6C03F8A7
:1045FC00016B0131F4E76FF00041CBE7112824DDAA
:10460C00122342B10421397200217972B97201214D
:10461C00F972B868286100216FF300016FF3410152
:10462C006FF382016FF3C501012060F38811C3F3AE
:10463C000A0363F353216FF31F5100230748FDF75F
:10464C000DFEA5466FF015088AE76FF01B03D8E73F
:10465C006FF0150884E700BF44DE00087CD3000827
:10466C0074DE00082DE9F04104460D4647680369E5
:10467C005E680979012914D0022915D14FF48063A1
:10468C006A79012A15D0022A15D07AB14FF400525A
:10469C00A879022812D0042816D0002968D100204D
:1046AC0014E04FF4C063EBE70023E9E74FF48052CA
:1046BC00EEE70022ECE74FF44052E9E709B10020A5
:1046CC0004E04FF0805001E04FF48050E97901296B
:1046DC0051D04FF0000C032914BF00210121AE4230
:1046EC004CD0D7F80080D8F8007007F4C06E734532
:1046FC0006D0D8F8007027F4C0673B43C8F80030E8
:10470C0063681F687B6803F440539A4204D07B684B
:10471C0023F4405313437B6063681A68136803F0F7
:10472C001023984204D0136823F010231843106010
:10473C0063681A68936803F440739C4505D09368CA
:10474C0023F440734CEA0303936063681B689B6813
:10475C0013F4804300D00123003B18BF012399427E
:10476C0028D129683368994228D10020BDE8F0810E
:10477C004FF48050AAE74FF4407CACE73E683768B2
:10478C0013493940034319433160736823F4405390
:10479C001343736063681A68936823F440734CEA9C
:1047AC000303936029682046FFF7B4FE0028DDDB85
:1047BC000020DBE7204604F01EFED2E72046FFF780
:1047CC00A9FE0028D2DB2B6833600020CEE700BFA7
:1047DC00FFE9FFEF2DE9F84306460C4643681D68D8
:1047EC000369D3F804900B79012B17D0022B18D145
:1047FC004FF480616279012A18D0022A18D092B144
:10480C004FF4005794F80680B8F1020F13D0B8F1AA
:10481C00040F16D0002B7FD1002014E04FF4C061A0
:10482C00E8E70021E6E74FF48057EBE70027E9E7DC
:10483C004FF44057E6E70BB1002004E04FF08050F6
:10484C0001E04FF48050A3F1030C5FFA8CFCBCF137
:10485C00010F40F29E801BB1B8F1040F00F09C8058
:10486C00B7F5805F5DD0B7F5405F5CD0002F56D0B8
:10487C0003239A4240F0938004F0CBFD804540F036
:10488C009180E379002B32D0012B4ED0032B40F0DA
:10489C008C804A4A4A4B954218BF9D4227D003F55B
:1048AC000063EB1A18BF0123A2F5484295421ED0B3
:1048BC00EBB1444BEB1A18BF012302F50062954291
:1048CC0015D0A3B1404BEB1A18BF012302F52052AF
:1048DC0095420CD05BB13D4BEB1A18BF012302F58E
:1048EC002042954203D013B1394B9D4260D12B68C5
:1048FC0023F001032B6021463046FFF7B3FE00285E
:10490C0059DB2B6843F001032B6094E8030089E822
:10491C0003000020BDE8F8834FF4805093E7012397
:10492C00A7E70023A5E70223A3E72449244A8D42E5
:10493C0018BF9542DBD002F50062AA1A18BF0122FB
:10494C00A1F548418D42D2D0002AD0D01D4AAA1AD6
:10495C0018BF012201F500618D42C8D0002AC6D0D3
:10496C00194AAA1A18BF012201F520518D42BED056
:10497C00002ABCD0154AAA1A18BF012201F5204101
:10498C008D42B4D0002AB2D0114A95427FF47EAF4A
:10499C00ADE76FF08500BDE76FF08500BAE76FF00B
:1049AC008500B7E76FF08500B4E76FF08500B1E7DD
:1049BC006FF08500AEE76FF08500ABE700100140AB
:1049CC000044004000140140007C0040001C0140E9
:1049DC00000C005838B5456804690F48206004F095
:1049EC0027FE48B12068E96883681B6863B1984763
:1049FC00044658B9204638BD084A0121084804F03D
:104A0C0025F86FF01204F5E76FF05704054A012101
:104A1C00034804F01BF8EDE7A8CB00088CDE000877
:104A2C007CD30008ACDE00082DE9F04383B000AF66
:104A3C00064645682C680369D3F80480236823F084
:104A4C0001032360686804F0F3FD002800F0828005
:104A5C00A968686804F0C6FC54E8003F43F00C03F6
:104A6C0044E800329146002AF6D141463046FFF721
:104A7C00F9FD0028C0F2EC802B7D1BB1A36843F03C
:104A8C000803A3606B7D1BB1636843F40043636050
:104A9C00AB7D1BB1636843F480336360EB7D1BB16A
:104AAC00636843F4003363602B7E002B47D06A4A63
:104ABC006A4B944218BF9C4227D003F50063E31A5B
:104ACC0018BF0123A2F5484294421ED0EBB1644BAF
:104ADC00E31A18BF012302F50062944215D0A3B16A
:104AEC00604BE31A18BF012302F5205294420CD0FC
:104AFC005BB15D4BE31A18BF012302F520429442CF
:104B0C0003D013B1594B9C422CD173681A6893682B
:104B1C0043F4804393606A7E236823F0787343EAFE
:104B2C0042532360AA7E236823F4F81343EA02431A
:104B3C002360EB7E1BB1A36843F40043A3602B7F7F
:104B4C001BB1236843F000532360236843F0010337
:104B5C0023606BE0464A0121464803F077FF6FF073
:104B6C00120071E036686C4600233B7102237B71A6
:104B7C0088B06B4613F110021ED00E20111E18BF08
:104B8C00012105460428D4BF4FF0000C01F0010CA4
:104B9C00BCF1000F01D03848586100203870022059
:104BAC007870082DD4BF002101F0010101B19E6184
:104BBC008AB103F11C010BE06FF00040DEE709F154
:104BCC000800384410F8080C01F8010B09F1010930
:104BDC00B9F1010FF3D90D2D24DD0E2542B10321BE
:104BEC00397100217971B9710121F97178681861F5
:104BFC0000216FF300016FF341016FF382016FF33A
:104C0C00C501012363F38811C5F30A0565F353212C
:104C1C006FF31F5100231748FDF720FBA5466FF0DB
:104C2C00150011E06FF01B05D8E733B9E36913F4F5
:104C3C000013FAD00123F8E72AB9E26912F48002D2
:104C4C00FAD01A46F8E700200C37BD46BDE8F083D1
:104C5C006FF01500F8E700BF001001400044004061
:104C6C0000140140007C0040001C0140000C005866
:104C7C00CCDE00087CD30008E8DE00084FF0E0230F
:104C8C00996918699A6909B90C4B19680AB90B4BDF
:104C9C001A6810F4803F01D1914208D208490B6880
:104CAC000648006803440B604FF0E0231B69034B7C
:104CBC001B689B1A024A106818447047400A00246B
:104CCC003C0A00240A4B102283F82320094B4DF296
:104CDC00D8621A600020084B18604FF0E0234DF2A8
:104CEC00D7625A6198611A6942F007021A617047DB
:104CFC0000ED00E0400A00243C0A0024684620F045
:104D0C0007018D4619B5FFF7B9FF12480368124A1F
:104D1C00516814681B1941F10001136051600022A5
:104D2C0002600E490A68981A0D4BA3FB0030C00BA9
:104D3C004DF2D86300FB03F3D2184B6843F1000328
:104D4C000A604B6001F0B6FCFDF706FFBDE81940A8
:104D5C00854670473C0A0024D8050024D005002461
:104D6C0041288598F8B5B0F1FF3F14BF002101F040
:104D7C000101002940D13E4B1D68B0F1FF3F46D0E8
:104D8C00012847DD40F231139842A8BF1846441E53
:104D9C00EFF31186102383F31288BFF36F8FFFF7A5
:104DAC006DFF4FF0E0239969324B5A681F68C019A8
:104DBC0042F1000218605A6000222F4B1A602F4BF0
:104DCC001B68C21A28D44DF2D86C0CFB04244DF28B
:104DDC00D76222442A4CA4FB0242D20B1B1A0CFBB6
:104DEC00023340F66D529A4238BF1A462548834228
:104DFC0030D91F4B186013E04FF0E022136923F0F9
:104E0C00010313611A4B4FF07F421A6021E04FF4FB
:104E1C009870B7E70024BBE7154B40F66D521A604B
:104E2C004FF0E0239869124A1268013A5A61002245
:104E3C009A61814211D22D1A0D440E4A13685168A1
:104E4C005B1941F100011360516086F31188BFF3C7
:104E5C006F8FF8BD064B1A60E2E7091A054A136812
:104E6C0050685B1840F1000013605060EDE700BF24
:104E7C00400A0024D80500243C0A0024D005002454
:104E8C00412885988020FF0038B5EFF31185102359
:104E9C0083F31288BFF36F8F084B1C68084B1B6899
:104EAC00E41AFFF7EBFE204485F31188BFF36F8FF4
:104EBC00044BA3FB0030C00B38BD00BFD805002449
:104ECC00D005002441288598002800F0888010B473
:104EDC000346444A916911F4404112D1424A0244BA
:104EEC00424882422CD3424A1A44424882422AD92E
:104EFC00414A1A44824229D9404A934229D8002077
:104F0C0001E000210846374A926902F44042B2F5AA
:104F1C00404F20D0334A926902F44042B2F5004F20
:104F2C002BD0354A1A44364CA2423CD3354A1A444B
:104F3C00354CA24251D9354A934235D901204AE029
:104F4C0003210020DFE702210020DCE70121002003
:104F5C00D9E70120D7E72E4A1A442E4CA2421AD97F
:104F6C002D4A1A44A4F57424A4F51074A24214D941
:104F7C002A4A934218D901202DE0294A1A44294C77
:104F8C00A2420CD9284A1A44A2420AD9274A93426F
:104F9C000AD901201FE0022106E0012104E00221D0
:104FAC0002E0012100E00221A8B9214A136823F094
:104FBC000F030B43136002221D4B1B6803F00F03FE
:104FCC00013A14BF01240024994201D0002CF3D1E2
:104FDC00994200D0012010BC70470121E4E7012068
:104FEC00704700BF004802587FA77BF340D2DF0315
:104FFC00FFC4A7F77F1D2C047FE2D3FB801D2C047C
:10500C00C0E1E4003FF1E9FDBF0E1602C00E16022E
:10501C00BF9412F8BF56FE033FA901FCC056FE0315
:10502C00FF1E0AFA7FF0FA027F0F05FD80F0FA02EC
:10503C000020005238B50546B8B10378BBB10D4C11
:10504C000D4B9C420ED22168A94205D02846FBF795
:10505C008FFE08B12034F3E7204604F0E9FA10B9CA
:10506C00002400E00024204638BD0446FBE7002461
:10507C00F9E700BFA8CB0008A8CD000804280CD87D
:10508C00DFE800F0030D05070900064870470648E5
:10509C0070470648704706487047064870470648F0
:1050AC00704700BFD0DF0008F4DF000804E0000800
:1050BC0010E0000820E00008E0DF000830B108B57F
:1050CC0004F04DFB20B1037823B108BD02487047B2
:1050DC000148FAE70048F8E730E0000810B504464C
:1050EC00FCF7D8FF034A0121034803F0AFFC20462C
:1050FC0004F0AEFA38E000085CD300082DE9F04F5C
:10510C0083B000AF05460C46EFF31188102383F3F0
:10511C001288BFF36F8FDFF80C92D9F80860FFF795
:10512C00ADFF99F810A0E94601233B7103237B7175
:10513C008AB0EC461CF1100234D01621131E18BF95
:10514C0001238E460429D4BF4FF0000B03F0010B52
:10515C00BBF1000F02D07449CCF81410BEF1080F4B
:10516C00D4BF002103F0010109B1CCF81850012182
:10517C00397003217970BEF10C0FD4BF002103F0FC
:10518C00010109B1CCF81C00BEF1100FD4BF0023F3
:10519C0003F001030BB1CCF820A082B10CF1240375
:1051AC0000210AE06FF00041C8E701F10800384423
:1051BC0010F8080C03F8010B01310129F5D9BEF1E7
:1051CC00150F61DD16234AB1052139710021797162
:1051DC00B9710121F9717868CCF8100000216FF3D6
:1051EC0000016FF341016FF382016FF3C5010120E0
:1051FC0060F38811C3F30A0363F353216FF31F5158
:10520C0000234A48FDF72AF8CD4624B1E369C3F3DD
:10521C000803002B3BD13046FFF750FFE946012332
:10522C003B7103237B718AB0EC461CF1100234D025
:10523C001221131E18BF01238E460429D4BF4FF030
:10524C00000A03F0010ABAF1000F02D03849CCF879
:10525C001410BEF1080FD4BF002103F0010109B1F5
:10526C00CCF818600121397003217970BEF10C0F54
:10527C00D4BF002303F001030BB1CCF81C00CAB15E
:10528C000CF12003002113E06FF01B039BE7294A6C
:10529C000121264803F0DAFBBDE76FF00041C8E7B7
:1052AC0001F10800384410F8080C03F8010B013127
:1052BC000129F5D9BEF1110F31DD12234AB10421B8
:1052CC00397100217971B9710121F9717868CCF8C3
:1052DC00100000216FF300016FF341016FF38201A5
:1052EC006FF3C501012060F38811C3F30A0363F364
:1052FC0053216FF31F5100230C48FCF7AFFFCD4631
:10530C0021462846FFF7EAFE88F31188BFF36F8F1A
:10531C003046FDF76FFF0C37BD46BDE8F08F6FF0E0
:10532C001B03CBE7440A002448E000085CD30008C8
:10533C0094E0000870E0000810B586B0104C04EB47
:10534C00C01400EB400C00EB80000E4B03EB800311
:10535C0000220592012104910F21039102920192E6
:10536C000093094B4FF4A072084901EBCC11204675
:10537C0000F06AFB637B23F00403637306B010BD7B
:10538C00E0050024440A00246D960008C06900243E
:10539C0038B505460B4B53F8204002E0236898477C
:1053AC0008346B1C074A52F82330A34209D96068B1
:1053BC000028F3D0037F13F0010FF1D104F01FF993
:1053CC00EEE738BDB4E0000808B553EA020102D19B
:1053DC0000F02EFF08BD0249183001F0D1F8F9E7B2
:1053EC006799000810B586B0184C14E0636A0593F1
:1053FC00236A0493E3690393A3690293636901939A
:10540C0023690093E368A2686168206800F01CFBC4
:10541C0023685C6530340E4B9C42E7D300F0E6FD0C
:10542C000A4C00E030340A4B9C420BD2A26AE36A6D
:10543C00B3F1FF3F08BFB2F1FF3FF3D02068FFF795
:10544C00C3FFEFE700F0EAFD06B010BDC0D20008C4
:10545C00C0D2000808B50A4B01221A700320FFF7CE
:10546C0097FF04F07DFB0420FFF792FFFFF7BAFFD4
:10547C0002F021FA034A137B23F00103137308BDD6
:10548C00275E00246006002408B50146014A024844
:10549C00FDF798FF615400086006002410B504461F
:1054AC00FFF74AFF0B4901EBC4110B4A04EB8403D1
:1054BC0002EB8303D9601C7404EB4411074B03EB20
:1054CC00811303F5046304EB840402EB8402536040
:1054DC0010BD00BFE0050024440A002480610024B4
:1054EC0070B586B000F0D2FD104D114B5D61114BC3
:1054FC0005930123049300240394029401940094D3
:10550C000D4B4FF480520D49284600F09DFA06468B
:10551C006B7B23F004036B73284604F0B6F920462A
:10552C00FFF7BCFF304606B070BD00BF600600241C
:10553C00440A0024ACE0000861540008406B0024CD
:10554C0008B50020FFF724FF174B83F30888174C8E
:10555C00F02384F822300023E37723766376A37656
:10556C0084F82030636A43F4E0236362FDF710FE95
:10557C00FDF746FF4FF0FF33A362E362FEF764F9D9
:10558C00FDF7BEFFFCF7D4FC094800F08DFAFCF7E0
:10559C00EDFA0120FFF7FCFE0220FFF7F9FEFFF702
:1055AC009FFFFFF771FF00BFC069002400ED00E012
:1055BC00E00600242DE9F04182B00446EFF3118798
:1055CC00102181F31288BFF36F8FC16899B900293C
:1055DC0050D1364B9B6893F90E3023610131E16059
:1055EC00324B9B68A36087F31188BFF36F8F002049
:1055FC0002B0BDE8F08116461D4682682B4B9B68B5
:10560C009A42E4D055EA060136D092F90E80414612
:10561C0093F90E0004F031F8804534DC4FF00008AB
:10562C000096019522463946214800F0F1FB0028EE
:10563C00DED0EFF31185102383F31288BFF36F8F45
:10564C00A36843B323689C4223D013B3216993F915
:10565C000E0004F012F80146204604F019F8E8B9DF
:10566C00B8F1000F1AD185F31188BFF36F8F6FF06B
:10567C000A00BDE72369B0E787F31188BFF36F8F8A
:10568C006FF00F00B4E70146204604F001F88046A5
:10569C00C6E72169E0E7B8F1000FE4D029460448D9
:1056AC0000F078FC6FF00A00A2E700BF440A002467
:1056BC00640A0024F8B58368002B46D00446264AB9
:1056CC009268934244D1C368012B04D9013BC36057
:1056DC0000252846F8BDEFF31186102383F31288BA
:1056EC00BFF36F8F016903F0D3FF2768A7420CD07B
:1056FC003D1E18BF012557B9A760CDB90023E36043
:10570C0086F31188BFF36F8FE3E70027F0E77A6821
:10571C003B6813605A6000233B607B607A7B22F00D
:10572C0002027A73BB6007F1180004F0B8F9E3E7E2
:10573C0097F90E3023610025BD67384604F0A5F8B3
:10574C003146064800F026FCC3E76FF01505C0E7AC
:10575C004FF0FF35BDE700BF440A0024640A002463
:10576C00F8B50446EFF31187102383F31288BFF3C7
:10577C006F8F0568A84212D02E1E18BF012685B95E
:10578C0006BBA368E268934223D001221344A360B2
:10579C00002303BB87F31188BFF36F8FF8BD00257F
:1057AC00EAE76A682B6813605A6000232B606B6011
:1057BC006A7B22F002026A73AB6005F1180004F0F8
:1057CC006EF9DDE70023AB67284604F05EF8012391
:1057DC00DFE70022DAE73946014800F0DBFBDDE7C2
:1057EC00640A002410B582B0EFF31181102484F305
:1057FC001288BFF36F8F846844B1013C846081F3DD
:10580C001188BFF36F8F002002B010BD53EA020461
:10581C0006D0009201930246054800F0F9FAF3E72E
:10582C0081F31188BFF36F8F6FF00F00ECE700BFAF
:10583C00640A002410B5C36823F00203C360134B41
:10584C001C687CB1236803B10CB100210FE0234626
:10585C00FBE722460D4803F03AFF04F10800FFF77E
:10586C007FFF10BD2346F0E71A461C461346002C5A
:10587C00F7D062688242ECD02146002BF4D01A6833
:10588C00002AF2D0002BF0D11A46EEE7640A00246D
:10589C0070B584B00546EFF31186102383F312889C
:1058AC00BFF36F8FD5F88440002C3FD02368C5F828
:1058BC008430D5F8882094424DD0D5F89C3043F0F4
:1058CC000203C5F89C30E36843F00102E26023F068
:1058DC00040343F00103E360636886F31188BFF3AC
:1058EC006F8F20469847EFF31186102383F31288AD
:1058FC00BFF36F8FE36823F00103E36013F0100F25
:10590C0044D1E36813F0020F44D1D5F89C3023F056
:10591C000203C5F89C30C3F3002386F31188BFF350
:10592C006F8F002BB7D100F0B9FBB4E7D5F89C30E2
:10593C0023F00402C5F89C2013F0040F0ED112F0D2
:10594C00100F14D00023C5F89C3086F31188BFF3D8
:10595C006F8F04B070BDC5F88830AEE705F19404C4
:10596C0000220121204604F032F80028F8D100234F
:10597C0002934FF0FF324FF0FF33CDE9002305F1D6
:10598C008C023146054800F02FFD84E7204603F0D9
:10599C00B1FEB6E72046FFF74DFFB6E76C0A0024D0
:1059AC00F0B589B004460E9D0020C4F88400C4F8FC
:1059BC00880004F18C00C4F88C00C4F8900004F149
:1059CC009400C4F89400C4F898003DB3287938BB0F
:1059DC000120C4F89C004FF0FF364FF0FF37CDE9A3
:1059EC0006670020049003930290019000940E4BE4
:1059FC00204603F0C1FE55B1296811B1204603F0D1
:105A0C00ABFE6B791BB1237B43F001032373204660
:105A1C0000F00EFCC4F8804009B0F0BD0120D8E7BE
:105A2C0040F20110D5E700BF9D58000808B553EAB5
:105A3C00020102D100F0FCFB08BD0249183000F055
:105A4C009FFDF9E767990008F0B585B004460E464E
:105A5C0015461F4600F158038365C3650E9B04224F
:105A6C000D9903F07EFE2A463146204603F04BFE8C
:105A7C0005460C9B02930B9B01930A9B00933B46A0
:105A8C00024631462046FDF75DFC00236365054B5D
:105A9C009B6823B1DB6EE366284605B0F0BDE36678
:105AAC00FAE700BF440A002410B5044601234373EF
:105ABC00037300230366436600F044FF014B9C60B4
:105ACC0010BD00BF440A0024094A936858676FF060
:105ADC000A01996707494B6843F080534B600023D8
:105AEC0083F31188BFF36F8F9368986F704700BF73
:105AFC00440A002400ED00E0437B90F90D20002ABD
:105B0C0051DB13F01F0F4ED110B563F07F034373BD
:105B1C00254A52F8183F93420ED100230CE05A68E4
:105B2C0042600360106058601EE01A461E49C96945
:105B3C008A420FD01B687BB173B190F90E1093F9A8
:105B4C000E209142F1D0521A002AE8DC1A46002BA2
:105B5C00ECD1F0E70023EEE7134BDA6903F11801FF
:105B6C00016042601060D8610F4B53F8184F9C4293
:105B7C000ED06CB10C4B9B685A7B12F01F0F0AD1E4
:105B8C00DA897F2A07D9A2692AB9074A536109E041
:105B9C00054BDC68EEE7A34202D0204600F06EFC19
:105BAC00014B5C6110BD7047440A002410B5437B67
:105BBC0090F90D20002A14DB154B9A6853F8184FF6
:105BCC009C4219D0C4B1824219D0537B13F01F0FE1
:105BDC0015D1D3897F2B12D9A36983B90C4B5A6188
:105BEC0014E003F07F0343734268036813605A6048
:105BFC00002303604360DFE7054BDC68E3E7A24268
:105C0C0002D0204600F03AFC014B5C6110BD00BF95
:105C1C00440A00242DE9F84305460C46404B9E6887
:105C2C00737B13F0600F28D013F0200F2AD00827B5
:105C3C001F4222D13B43737313F0800F24D1082FE2
:105C4C002DD04FF00009364B53F8188F98454BD098
:105C5C00B8F1000F48D0324B9B68434502D0404608
:105C6C0000F00CFC2E4BC3F81480102F05D03046DE
:105C7C0003F03BF8B9F1000F3AD184F31188BFF36C
:105C8C006F8F46E01027D3E703F07F0373737268BE
:105C9C00336813605A60002333607360CFE7B368D6
:105CAC005BB17268336813605A60002333607360B1
:105CBC00727B22F002027273B360304603F0B2FDC5
:105CCC0006F1580003F0B3FD154B9B689E4202D0C1
:105CDC004FF00009B7E7EFF3058313B94FF0000954
:105CEC00B1E74FF00109AEE70D4BD3F80C80B2E7EA
:105CFC000C48FFF7D9FEC0E7EFF31184102383F3B0
:105D0C001288BFF36F8F03F0B6FC84F31188BFF3D6
:105D1C006F8F6B7B13F0600FEED1BDE8F88300BF83
